:020000040800F2
:100000009062002031560008AD510008AF51000841
:10001000B1510008B3510008B551000800000000BC
:100020000000000000000000000000007B4B000802
:10003000B751000800000000354B0008CD4800080B
:1000400075560008795600087D560008815600084C
:1000500085560008895600088D56000891560008FC
:1000600095560008995600089D560008B951000899
:10007000A1560008A5560008A9560008AD5600086C
:10008000B1560008B5560008B9560008BD5600081C
:10009000C1560008C5560008C9560008CD560008CC
:1000A000D1560008D5560008D9560008DD5600087C
:1000B000E1560008E5560008E9560008ED5600082C
:1000C000F1560008F5560008F9560008FD560008DC
:1000D0000157000805570008C351000809570008D8
:1000E0000D57000811570008155700081957000848
:1000F0001D570008215700082557000829570008F8
:100100002D570008315700083557000839570008A7
:100110003D570008415700081B5200085352000881
:1001200045570008495700084D5700085157000827
:1001300010B50400002C01D101202FE094F83D00FF
:10014000002805D1002084F83C00200000F0EDFDDF
:10015000022084F83D00211D206800F0C6FA01202D
:1001600084F84600012084F83E00012084F83F0016
:10017000012084F84000012084F84100012084F827
:100180004200012084F84300012084F8440001204B
:1001900084F84500012084F83D00002010BD90F84F
:1001A0003D10012901D0012039E0022180F83D10E5
:1001B0000168C96851F001010268D1600168DFF887
:1001C0000821914217D00168DFF80021914212D036
:1001D0000168B1F1804F0ED00168DFF8F420914240
:1001E00009D00168DFF8EC20914204D00168DFF803
:1001F000E82091420CD10168896811F007010629B5
:100200000CD00168096851F001010068016005E047
:100210000168096851F00101006801600020704721
:100220000168C968490849000268D1600168096A23
:1002300041F2111211420BD10168096A40F24442A5
:10024000114205D101680968490849000268116036
:10025000012180F83D100020704710B50400002CEB
:1002600001D101202FE094F83D00002805D10020A5
:1002700084F83C00200000F08EFD022084F83D0050
:10028000211D206800F031FA012084F84600012089
:1002900084F83E00012084F83F00012084F84000EB
:1002A000012084F84100012084F84200012084F8F4
:1002B0004300012084F84400012084F84500012017
:1002C00084F83D00002010BD002C014000340140A6
:1002D0000004004000080040000C004010B504007D
:1002E000002C01D101202FE094F83D00002805D119
:1002F000002084F83C00200000F0C4FD022084F8B7
:100300003D00211D206800F0F0F9012084F846002E
:10031000012084F83E00012084F83F00012084F889
:100320004000012084F84100012084F842000120AF
:1003300084F84300012084F84400012084F845003B
:10034000012084F83D00002010BD10B50400206895
:10035000006980071AD52068C068800716D57FF02D
:10036000020021680861012020772068806910F070
:10037000030F03D0200000F086FD05E0200000F010
:1003800083FD200000F081FD0020207720680069B7
:1003900040071AD52068C068400716D57FF00400D2
:1003A00021680861022020772068806910F4407F6E
:1003B00003D0200000F067FD05E0200000F064FDA0
:1003C000200000F062FD002020772068006900070F
:1003D0001AD52068C068000716D57FF0080021688C
:1003E0000861042020772068C06910F0030F03D053
:1003F000200000F048FD05E0200000F045FD200051
:1004000000F043FD0020207720680069C0061AD55F
:100410002068C068C00616D57FF01000216808610A
:10042000082020772068C06910F4407F03D02000A6
:1004300000F029FD05E0200000F026FD200000F07E
:1004400024FD0020207720680069C0070AD52068B5
:10045000C068C00706D57FF0010021680861200050
:1004600000F09CFD2068006900060AD52068C0687D
:10047000000606D57FF0800021680861200000F0AA
:100480009CFD2068006940060AD52068C0684006C7
:1004900006D57FF0400021680861200000F08EFD45
:1004A0002068006980060AD52068C068800606D5E5
:1004B0007FF0200021680861200000F080FD10BD61
:1004C00010B5040094F83C00012801D102201FE07F
:1004D000012084F83C00002A06D0042A08D0082A0B
:1004E0000AD00C2A0CD00FE0206800F043F90BE092
:1004F000206800F071F907E0206800F0A4F903E03B
:10050000206800F0D6F9FFE7002084F83C000020C6
:1005100010BD38B504000D0094F83C00012801D14D
:1005200002206DE0012084F83C00002A06D0042A55
:100530001BD0082A31D00C2A46D05DE02900206863
:1005400000F018F92068806950F00800216888617F
:100550002068806930F00400216888612068816922
:10056000286901432068816146E02900206800F085
:1005700033F92068806950F4006021688861206840
:10058000806930F480602168886120688069296909
:1005900050EA0120216888612EE02900206800F0DF
:1005A00052F92068C06950F008002168C8612068CD
:1005B000C06930F004002168C8612068C1692869F9
:1005C00001432068C16117E02900206800F071F93B
:1005D0002068C06950F400602168C8612068C06963
:1005E00030F480602168C8612068C069296950EAD8
:1005F00001202168C861FFE7002084F83C0000204A
:1006000032BD10B5040094F83C00012801D102204D
:100610006AE0012084F83C00022084F83D00206854
:10062000806830F0770030F47F402268906008687E
:1006300000284DD010284BD0202849D0302847D052
:1006400040283BD0502825D060282DD0702807D0D6
:10065000B0F5805F03D0B0F5005F0ED03DE03CE028
:10066000CB684A688968206800F081F92068806852
:1006700050F07700216888602FE0CB684A6889686D
:10068000206800F074F92068806850F48040216888
:10069000886022E0CA684968206800F03BF9502170
:1006A000206800F05CF918E0CA684968206800F02A
:1006B00043F96021206800F052F90EE0CA684968E9
:1006C000206800F027F94021206800F048F904E094
:1006D0000968206800F043F9FFE7012084F83D0035
:1006E000002084F83C00002010BD10B40468DFF83E
:1006F0001032984211D0DFF80C2290420DD0B0F1A8
:10070000804F0AD0DFF80022904206D0DFF8FC21AB
:10071000904202D07E4A904203D134F070044A687D
:10072000144398420ED0774A90420BD0B0F1804FDC
:1007300008D0754A904205D0744A904202D0744A5B
:10074000904203D134F44074CA68144334F08004F6
:100750004A69144304608A68C2620A6882629842E5
:1007600002D0684A904201D10969016301214161C7
:1007700010BC704770B4026A520852000262046AE8
:100780004568836933F070039B089B000A68134334
:1007900034F002048A681443594EB04202D0594AD8
:1007A000904205D134F00804CA68144334F00404BC
:1007B000B04202D0534A904207D135F4807535F4E7
:1007C00000754A6915438A69154345608361496824
:1007D0004163046270BC704770B4026A32F0100268
:1007E0000262036A4468826932F4E04232F4407281
:1007F0000D6852EA052233F020038D6853EA051391
:100800003F4DA84202D03F4EB04206D133F08003A4
:10081000CE6853EA061333F04003A84202D0394DA4
:10082000A84209D134F4806434F400644D6954EA78
:1008300085048D6954EA8504446082614968816356
:10084000036270BC704770B4026A32F48072026254
:10085000046A4568C36933F070039B089B000A680B
:10086000134334F400748A6854EA0224244A904200
:1008700002D0244EB04206D134F40064CE6854EA6B
:10088000062434F48064904202D01E4A904209D17A
:1008900035F4805535F400554A6955EA02158A69E0
:1008A00055EA02154560C3614968C163046270BCC2
:1008B000704730B4026A32F480520262036A4468BC
:1008C000C26932F4E04232F440720D6852EA052205
:1008D00033F400538D6853EA0533094DA84202D022
:1008E000084DA84204D134F480444D6954EA85147B
:1008F0004460C26149680164036230BC7047000013
:10090000002C014000340140000400400008004079
:10091000000C004010B4046A036A5B085B000362C9
:10092000836933F0F00353EA021334F00A042143DD
:100930008361016210BC704710B4036A33F0100386
:1009400003628369046A33F4704353EA023334F078
:10095000A00454EA01148361046210BC70478268E9
:1009600032F0700251F0070111438160704710B4FA
:10097000846834F47F44114351EA032121438160A8
:1009800010BC704718B595B01022002111A800F0D6
:1009900017FB08220021684600F012FB1C220021F0
:1009A00002A800F00DFB2022002109A800F008FB9E
:1009B000DFF89C44DFF89C04206000206060002089
:1009C000A0600020E0600020206100206061002025
:1009D000A0612000FFF7ACFB002801D000F0ECFA8A
:1009E0004FF48050119011A92000FFF70AFE002853
:1009F00001D000F0E1FA2000FFF770FC002801D0E0
:100A000000F0DAFA002000900020019069462000F2
:100A100000F0E0FA002801D000F0CEFA6020029049
:100A200000200390002004900020059000200690F4
:100A30000020079000200890002202A92000FFF764
:100A400068FD002801D000F0B7FA042202A92000B6
:100A5000FFF75FFD002801D000F0AEFA082202A9DE
:100A60002000FFF756FD002801D000F0A5FA0C2267
:100A700002A92000FFF74DFD002801D000F09CFAEC
:100A80000020099000200A9000200B9000200C907C
:100A900000200D904FF400500E900020109009A9F6
:100AA000200000F0DFFA002801D000F085FA2000D5
:100AB00000F091F916B010BD18B589B008220021D8
:100AC000684600F07DFA1C22002102A800F078FAA6
:100AD000DFF884435FF080402060472060600020A2
:100AE000A06040F2E730E060002020610020A061BB
:100AF0002000FFF7B2FB002801D000F05DFA2020B3
:100B00000090002001906946200000F063FA002860
:100B100001D000F051FA0020029000200390002044
:100B2000049000200690002202A92000FFF7C8FCD4
:100B3000002801D000F040FA0AB010BD18B589B005
:100B400008220021684600F03BFA1C22002102A87E
:100B500000F036FADFF80443DFF804032060472092
:100B600060600020A06040F2E730E060002020617B
:100B70000020A0612000FFF770FB002801D000F0EA
:100B80001BFA20200090002001906946200000F010
:100B900021FA002801D000F00FFA00200290002076
:100BA00003900020049000200690002202A920005B
:100BB000FFF786FC002801D000F0FEF90AB010BD56
:100BC0001CB508220021684600F0FAF9A54CA64899
:100BD0002060472060600020A0600020E0600020CE
:100BE000A0612000FFF7A4FA002801D000F0E4F98A
:100BF00000200090002001906946200000F0EAF9F2
:100C0000002801D000F0D8F913BD18B595B0102216
:100C1000002111A800F0D4F908220021684600F054
:100C2000CFF91C22002102A800F0CAF920220021DD
:100C300009A800F0C5F98D4C8D4820604720606000
:100C40000020A0604FF47A70E06000202061002056
:100C500060610020A0612000FFF76AFA002801D03F
:100C600000F0AAF94FF48050119011A92000FFF76D
:100C7000C8FC002801D000F09FF92000FFF72EFBF0
:100C8000002801D000F098F9202000900020019069
:100C90006946200000F09EF9002801D000F08CF990
:100CA0006020029000200390002004900020059016
:100CB000002006900020079000200890002202A942
:100CC0002000FFF726FC002801D000F075F904226F
:100CD00002A92000FFF71DFC002801D000F06CF9EC
:100CE000082202A92000FFF714FC002801D000F020
:100CF00063F90020099000200A9000200B9000204A
:100D00000C9000200D904FF400500E900020109099
:100D100009A9200000F0A6F9002801D000F04CF944
:100D2000200000F058F816B010BD80B50168494A9F
:100D300091420AD14F48016851F400610160006896
:100D400010F400600090009824E00168464A914247
:100D500012D14948016851F010010160006810F09B
:100D600010000090009800220521362000F018FAAB
:100D7000362000F026FA0DE000683D49884209D18E
:100D80003C48016851F400510160006810F40050C3
:100D90000090009801BD81B00168B1F1804F0AD187
:100DA0003548016851F001010160006810F0010050
:100DB000009000980DE000682949884209D12E482A
:100DC000016851F002010160006810F0020000901B
:100DD000009801B0704718B585B0040010220021BA
:100DE000684600F0EDF820681A49884215D121487C
:100DF000016851F004010160006810F004000490E3
:100E000004984FF47060009002200190022003903B
:100E100069461A4800F0E4F918E02068144988424D
:100E200014D11448016851F010010160006810F0FD
:100E30001000049004984FF4E0700090022001909C
:100E40000220039069460E4800F0CAF906B010BDB2
:100E5000385B0020002C0140805B0020C85B002034
:100E600000040040105C002000100040585C00208E
:100E700000340140181002401C10024000080140DC
:100E800000100140704770477047704738B500F058
:100E9000BBFA00F03BF800F0C9FA00F039FB00F0B3
:100EA0004DFBFFF76FFDFFF7B0FE00F09BFBFFF778
:100EB00087FE00F0FBFBFFF7FFFDFFF73FFE3B4C1B
:100EC0003B4D2900200000F0B9FC2068002801D12A
:100ED000012000E00020216811F1010F01D1012162
:100EE00000E00021C0B2C9B20843002809D05FF475
:100EF000E13020600D2020712A00D4E9000100F0CB
:100F00007FFC00F008FD00F008FEFEE700B595B09C
:100F10002822002105A800F053F814220021684679
:100F200000F04EF8182200210FA800F049F8012027
:100F300005905FF48030069000210791012109910E
:100F400002210C910D905FF480100E9005A800F026
:100F500023FE002801D000F02FF80F20009002207F
:100F60000190002002904FF48060039000200490D4
:100F70000221684600F0F9FF002801D000F01CF8BB
:100F800002200F904FF4004011900FA801F02EF9AD
:100F9000002801D000F010F815B000BD80B5006841
:100FA0000449884201D101F0A3F901BD00000020ED
:100FB000007C00080014004070477047704770477D
:100FC00010B5044610460A460146204601F09CF939
:100FD000204610BD10B490F83C20012A01D1022017
:100FE00034E0012280F83C20022280F83D20026893
:100FF00054680268936834F070040A681443026805
:1010000054600268124CA24213D00268114CA242F2
:101010000FD00268B2F1804F0BD002680E4CA24292
:1010200007D002680D4CA24203D002680C4CA242C9
:1010300005D133F0800349680B4301688B600121BF
:1010400080F83D10002180F83C10002010BC704753
:10105000002C014000340140000400400008004022
:10106000000C0040002390F83C20012A01D102200E
:1010700024E0012280F83C201B0A1B02CA681343AB
:1010800033F440738A68134333F480634A6813432C
:1010900033F400630A68134333F480530A6913433B
:1010A00033F400534A69134333F48043C9690B4353
:1010B00001684B64002180F83C100020704730B478
:1010C000002513E050F8042BD30744BFA9F1010316
:1010D0009A18091F042942F8045BFAD213468C07B8
:1010E00044BF15809B1CC90748BF1D7050F8041BE6
:1010F0000029E7D130BC704710F00700334B1A6865
:101100004FF6FF010A40324951EA00210A431A60B2
:1011100070472E480068C0F302207047010049B2B2
:10112000002908D4012210F01F018A40294940B249
:10113000400941F820207047020052B2002A04D42E
:101140000901254A40B2115407E00901234A40B27F
:1011500010F00F00104400F8041C704710B410F099
:101160000700D0F10703052B01D3042301E0D0F1E0
:101170000703041D072C01D2002000E0C01E01243B
:1011800014FA03F35B1E1940814014FA00F0401E6C
:101190001040084310BC704780B5FFF7ADFF01BD9C
:1011A00070B504000D0016000020FFF7B2FF3200FA
:1011B0002900FFF7D3FF0100200040B2FFF7BCFF7A
:1011C00070BD80B540B2FFF7A9FF01BD0CED00E096
:1011D0000000FA0500E100E000E400E018ED00E0A6
:1011E000F8B502000023002514E0DFF8D4010668FA
:1011F00036EA040404600CE0DFF8C8010668A64380
:10120000066048688002F0D5DFF8B4010668344310
:1012100004605B1C0868D840002800F0C6800126E6
:101220009E400C683440B442F3D1486800282BD06B
:1012300001281ED0022821D0032833D011281AD02B
:1012400012281ED0DFF88071B8421DD0DFF87C7103
:10125000B84219D0DFF87871B84215D0DFF8747150
:10126000B84211D05C4FB8420ED05C4FB8420BD0A0
:101270001AE0CD6818E0CD682D1D15E0CD68083561
:1012800012E0CD680C350FE08868002801D10425F4
:1012900007E08868012802D10825166101E00825C9
:1012A000566101E00025FFE7B4F5807F01D2170009
:1012B00000E0171DB4F5807F02D25FEA830C03E0E3
:1012C000B3F1080C5FEA8C0C0F26D7F800E016FA91
:1012D0000CF03EEA000E15FA0CFC5CEA0E0CC7F8A6
:1012E00000C04868C00094D53D48076857F0010722
:1012F0000760006810F0010000900098394F180056
:10130000800857F820C013F00300C0B28000864068
:101310003CEA060C3448824201D1002619E03348E9
:10132000824201D1012614E03148824201D10226D5
:101330000FE03048824201D103260AE02E48824263
:1013400001D1042605E02D48824201D1052600E0A6
:10135000062613F00300C0B28000864056EA0C0C4B
:101360001800800847F820C04868C00304D5244806
:1013700006682643066003E021480668A643066027
:101380004868800304D51F4806682643066003E0CA
:101390001C480668A64306604868C0027FF52CAF6B
:1013A00008480668264306602BE7F1BDD2B2002A42
:1013B00002D089B2016102E089B20904016170477B
:1013C0000C0401400804014000001110000012103C
:1013D0000000211000002210000031100000321027
:1013E000181002400800014000080140000C0140B4
:1013F000001001400014014000180140001C014091
:10140000000401400404014080B50748016851F020
:10141000100101600320FFF7BFFE002000F0A8FFCD
:1014200000F0E6FF002002BD0020024030B585B08C
:10143000102200216846FFF7C3FD3148016851F0D2
:1014400020010160016811F02001049104990168F4
:1014500051F010010160016811F01001049104992C
:10146000016851F004010160016811F00401049168
:101470000499016851F008010160006810F008004B
:10148000049004981F4C002202212000FFF78EFFD9
:101490001D4D00224FF4E0412800FFF787FF0E208A
:1014A0000090002001900120029069461748FFF744
:1014B00097FE02200090012001900020029002205F
:1014C000039069462000FFF78BFE40F6074000902E
:1014D000002001900120029069462800FFF780FE5D
:1014E0004FF4E04000900120019000200290022083
:1014F000039069462800FFF773FE05B030BD00BFBA
:101500001810024000080140000C0140001001408A
:1015100080B50948016851F001010160006810F0D0
:10152000010000900098002205210B20FFF738FEF3
:101530000B20FFF746FE01BD1410024080B5234882
:101540002349016023494160002181600021C1607D
:101550004FF480410161002141610021816100213E
:10156000C1610021016200F06DFF002801D0FFF78A
:1015700023FD01BD18B585B004001022002101A88B
:10158000FFF71EFD2068124988421DD112480168EC
:1015900051F008010160006810F008000090009808
:1015A000C0200190122002900320049001A90B4852
:1015B000FFF716FE0A48016851F400110160006847
:1015C00010F400100090009806B010BD9C5A002046
:1015D00000540040A086010018100240000C014099
:1015E0001C10024080B52C482C4901605FF4E131A9
:1015F0004160002181600021C160002101610C2156
:101600004161002181610021C16101F00FF80028D2
:1016100001D0FFF7D1FC01BD18B585B00400102240
:1016200000216846FFF7CCFC20681C49884230D175
:101630001B48016851F400310160006810F400306B
:10164000049004981748016851F004010160006893
:1016500010F00400049004980420009002200190EF
:1016600003200390104C69462000FFF7B9FD0820C5
:101670000090002001900020029069462000FFF7B2
:10168000AFFD002205212620FFF78AFD2620FFF767
:1016900098FD06B010BD0000E45C0020004400404E
:1016A0001C10024018100240000801401FB50C2217
:1016B00000216846FFF784FC4A4C4B4820604FF4F9
:1016C0008070A06000202073002020755FF400204F
:1016D000E0610020606003202061200001F030FA0A
:1016E000002801D0FFF768FC07200090012001903E
:1016F000062002906946200001F085FB002801D0F9
:10170000FFF75AFC0E20009002200190694620004D
:1017100001F079FB002801D0FFF74EFC0F2000906C
:10172000032001906946200001F06DFB002801D0E4
:10173000FFF742FC1FBD30B585B004001022002128
:1017400001A8FFF73DFC20682749884247D1274878
:10175000016851F400710160016811F40071009199
:101760000099016851F004010160016811F0040161
:1017700000910099016851F010010160006810F0BB
:10178000100000900098802001900320029001A991
:101790001748FFF725FD302001900320029001A992
:1017A0001448FFF71DFD144D1448286000206860A0
:1017B0000020A8608020E8604FF4807028614FF41A
:1017C000806068612020A8610020E861280001F0A5
:1017D0006FFC002801D0FFF7EFFB25626C6205B0BB
:1017E00030BD0000245D002000240140181002409C
:1017F0000008014000100140A05C002008000240E9
:10180000F3B581B01400022601AF00F047F82000C4
:1018100000F02FF800250AE02800C0B257F8201089
:101820002800C0B214EB800000F044F86D1C2800C2
:10183000C0B2B042F0D300F037F8F7BD30B40222A6
:10184000002308E01C00A4B251F824401D00ADB2F2
:1018500040F825405B1C1C00A4B29442F2D330BC7B
:1018600070472348006810F0010090F00100C0B2FA
:10187000704710B51F4C216851F0020121601E49CC
:101880000860206850F040002060FFF7EAFF002861
:10189000FBD0206830F00200206010BD17481849C6
:1018A00001601849016070471248016851F08001D9
:1018B0000160704770B504000D000E4E306850F0A6
:1018C00001003060FFF7CDFF0028FBD02580FFF737
:1018D000C8FF0028FBD0A41C2D0C2580FFF7C1FFFA
:1018E0000028FBD0306840084000306070BD000028
:1018F0000C2002401020024014200240042002402C
:1019000023016745AB89EFCD6E4B03606E480860DD
:1019100080201060704780B58EB007A86B491C22EC
:1019200001F034FF002107A800F0FCF868490860C6
:10193000684668491C2201F029FF0021684600F032
:10194000F1F8654908600FB000BD80B51E226349FB
:10195000634801F0A1F96348FEF721FC012000F083
:1019600010F9F3E780B56048002100910368032275
:101970000179002001F04EFF01F099FF01F0A7FF6F
:101980005FF0805059490860BFF34F8FBFF36F8FEE
:10199000F4E770470020C0B2704710B50A0092B259
:1019A000002A00D0491E0024DBB2002B02D0012BFC
:1019B0004AD082E089B2002911D0022919D013D36C
:1019C000042920D01AD3062927D021D308292ED0C4
:1019D00028D30A2931D02BD30B292FD032E0444908
:1019E00009880170401C2EE0414949880170401C63
:1019F00029E03F4989880170401C24E03C49C9889E
:101A00000170401C1FE03A4909890170401C1AE02E
:101A1000374949890170401C15E0354989890170B1
:101A2000401C10E03249C9890170401C0BE00AE0FB
:101A3000304909780170401C05E004E02A49096832
:101A4000417000E0012439E089B2002916D0012953
:101A500015D0022914D0032913D0042912D0052946
:101A600011D0062910D007290FD008290ED0092936
:101A700015D00B2914D00F2916D01CE01CE01BE058
:101A80001AE019E018E017E016E015E00178427856
:101A900052EA01220A204243134802600CE00BE0A4
:101AA00040781149087107E0134A0F4BD3E9000150
:101AB000FFF7A6FE00E0012400E002242000C0B2EF
:101AC00010BD0000485A0020BC5600208855000870
:101AD000F05D0020A4550008F45D0020BC4E0020FD
:101AE000245D0020805B00200000002004ED00E069
:101AF000D85D002098000020007C0008012070477D
:101B000001207047010000200A0012B2842A03D08D
:101B100009B2C91C09180800704780B502F0BCF86A
:101B2000002002BD38B584B004000D0060690028B3
:101B300015D0A069002812D0B4F90800FFF7E2FF21
:101B4000A16902916169019100902B0022692168CD
:101B5000606801F05FFF0390039805B030BDB4F9F1
:101B60000800FFF7CFFF03A9019100902B00226925
:101B700092B22168606801F08EFF0128ECD000204D
:101B8000EBE780B50121B0FBF1F0002800D1012086
:101B900002F05CF8002002BD2DE9FC410400002C9D
:101BA00001D10120DFE12078C0076BD5DFF8F40513
:101BB000016811F00C01042907D0016811F00C0133
:101BC00008290CD10068C00309D5DFF8D4050068E6
:101BD000800357D56068002854D10120C3E16068B4
:101BE000B0F5803F06D1DFF8B805016851F48031C7
:101BF000016026E0606800280AD1DFF8A4050168CA
:101C000031F480310160016831F48021016018E015
:101C10006068B0F5A02F0AD1DFF88405016851F49F
:101C200080210160016851F48031016009E0DFF832
:101C30007005016831F480310160016831F4802160
:101C40000160606800280ED002F09CFA0500DFF801
:101C500050050068800315D402F094FA401B6528F3
:101C6000F5D303207FE102F08DFA0500DFF830059F
:101C70000068800306D502F085FA401B6528F5D37D
:101C8000032070E1207880071ED5DFF81805016871
:101C900011F00C0F07D0016811F00C0108292CD1AC
:101CA0000068C00329D4DFF8F8040168890704D567
:101CB0002169012901D0012055E1016831F0F801C5
:101CC000626951EAC20101602078000749D5A06924
:101CD000002871D00120DFF8E014086002F052FA09
:101CE0000500DFF8D0040068800737D402F04AFA14
:101CF000401B0328F5D3032035E1206900281AD0C2
:101D00000120DFF8B814086002F03CFA0500DFF8A3
:101D100090040168890706D402F034FA401B0328B6
:101D2000F5D303201FE1016831F0F801626951EA3F
:101D3000C2010160C8E70020DFF88014086002F0EB
:101D400021FA0500DFF8580400688007BCD502F0CE
:101D500019FA401B0328F5D3032004E1012000F009
:101D60000BFA2078400740F196800026DFF85054A7
:101D70002868C00009D4286850F08050286028687E
:101D800010F08050009000980126DFF83874386811
:101D9000C00524D4386850F48070386002F0F2F93D
:101DA00080463868C0051AD402F0ECF9B0EB0800A0
:101DB0006528F6D30320D6E00020DFF8FC13086086
:101DC00002F0E0F90500DFF8EC0300688007C8D5F1
:101DD00002F0D8F9401B0328F5D30320C3E0E068E4
:101DE000012806D1DFF8E003016851F0010101602C
:101DF00025E0E06800280AD1DFF8CC030168490833
:101E000049000160016831F00401016017E0E068F9
:101E100005280AD1DFF8B003016851F00401016020
:101E2000016851F00101016009E0DFF89C030168DD
:101E3000490849000160016831F004010160E0686F
:101E4000002810D002F09EF90700DFF87C0300683C
:101E5000800719D402F096F9C01B41F289318842FB
:101E6000F3D303207FE002F08DF90700DFF8580379
:101E70000068800708D502F085F9C01B41F289315E
:101E80008842F3D303206EE0F6B2012E03D1286816
:101E900030F080502860E069002863D0DFF80463E8
:101EA000306810F00C0008284AD0E069022834D1CC
:101EB000DFF818730020386002F064F98046DFF81C
:101EC000E0522868800107D502F05CF9B0EB080009
:101ED0000328F4D3032046E0206AB0F5803F05D103
:101EE000316831F40031A06801433160316831F468
:101EF0007411206A0143606A014331600120386037
:101F000002F040F90400286880012BD402F03AF96D
:101F1000001B0328F7D3032025E00020DFF8AC12D4
:101F2000086002F02FF90400DFF8740200688001F5
:101F300018D502F027F9001B0328F5D3032012E07F
:101F4000E069012801D101200DE0306810F48031F2
:101F5000226A914204D110F47010616A884201D063
:101F6000012000E00020BDE8F6812DE9F0410400E9
:101F70000E00002C01D1012098E0DFF854522868AF
:101F800010F00700B0420BD22868C008C0003043F0
:101F90002860286810F00700B04201D0012085E0D9
:101FA0002078800716D52078400704D57D48016841
:101FB00051F4E06101602078000704D57948016898
:101FC00051F46051016077490A6832F0F002A0686C
:101FD00002430A602078C00732D56068012805D125
:101FE0006F480068800310D401205FE06068022819
:101FF00005D16B480068800107D4012056E068488D
:102000000068800701D4012050E0664F39688908D4
:10201000890060680143396002F0B4F8804638688E
:1020200010F00C006168B0EB810F09D002F0AAF843
:10203000B0EB080041F289318842F0D3032035E04B
:10204000286810F0070086420BD22868C008C0003C
:1020500030432860286810F00700B04201D001200A
:1020600024E02078400706D54E490A6832F4E06241
:10207000E06802430A602078000707D549480168F4
:1020800031F46051226951EAC201016000F010F898
:102090005049444A1268C2F30312895CC84043495C
:1020A00008604348006800F063F90020BDE8F08153
:1020B00000B585B001A84849102201F067FB4748E8
:1020C0000088ADF800000020002000200020002043
:1020D000344A116811F00C00042802D0082802D0FC
:1020E00014E03F4813E001A8C1F38343C05CC90377
:1020F00009D569461268C2F340428A5C38494843B0
:10210000B0FBF2F001E03749484300E0264805B053
:1021100000BD26480068704780B5FFF7FAFF3249D6
:10212000204A1268C2F30222895CC84002BD80B511
:10213000FFF7EFFF2C491B4A1268C2F3C222895CE9
:10214000C84002BD0F220260164A136813F0030351
:102150004360136813F0F0038360136813F4E063C3
:10216000C3601268D20812F4E06202611848006885
:1021700010F007000860704781B00C490968C90871
:102180004FF47A72B1FBF2F14843009000BF00981F
:10219000411E00910028F9D101B0704700000000F5
:1021A000001002400410024000127A009400002047
:1021B000900000202410024080044242000042426D
:1021C0001C1002400070004020100240600042429B
:1021D0000020024020560008105600086E23000818
:1021E000001BB70000093D00605600082DE9FC41C6
:1021F0000400002000202078C00757D50026374D66
:102200002868C00009D4286850F0805028602868E9
:1022100010F08050009000980126314F3868C005BA
:1022200011D4386850F48070386001F0ABFF8046FC
:102230003868C00507D401F0A5FFB0EB0800652899
:10224000F6D3032047E0274F386810F44070002889
:102250001FD0616811F4407188421AD0386830F498
:102260004070214901220A6000220A603860C007DC
:102270000FD501F087FF80463868800709D401F048
:1022800081FFB0EB080041F289318842F4D303208A
:1022900021E0396831F44071606801433960F6B279
:1022A000012E03D1286830F0805028602078800704
:1022B00006D50E490A6832F44042A06802430A601B
:1022C0002078C00606D509490A6832F480026069A0
:1022D00002430A600020BDE8F68100001C100240A5
:1022E00000700040201002404004424204100240AE
:1022F00003490A680348007882180A60704700BFE3
:10230000345E00209A00002062F30F2262F31F4225
:10231000401810F0030308D0C91A1FD3DB0748BFC9
:1023200000F8012D28BF20F8022D130030B4144608
:102330001546103928BF20E93C00FAD8490728BFC4
:1023400020E90C0048BF40F8042D890028BF20F880
:10235000022D48BF00F8012D30BC7047C91818BFC6
:1023600000F8012DCB0728BF00F8012D70470102AE
:1023700018B587B001000020002000223720FEF7AA
:102380000FFF3720FEF71DFF1548016851F02001AF
:102390000160006810F020000090009801A902A8D8
:1023A000FFF7D0FEFFF7B8FE40000E49B0FBF1F09A
:1023B000401E0D4C0D49216040F2E731E160606044
:1023C000002020610020A0602000FDF7B1FE002861
:1023D00003D12000FDF7E3FE00E0012008B010BDAE
:1023E0001C10024040420F00F05A00200014004030
:1023F00080B51148016851F001010160006810F0DA
:102400000100009000980D48016851F08051016072
:10241000006810F080500090009800220F217FF09B
:102420000100FEF7BDFE0649086830F0E06050F09C
:102430000070086001BD00BF181002401C1002406F
:102440000400014038B50400002C01D10120E0E077
:1024500094F83D00002805D1002084F83C002000BD
:10246000FFF788F8242084F83D00206800684008C1
:102470004000216808602068006850F4004021682E
:1024800008602068006830F4004021680860FFF7A9
:1024900043FE0100DFF87C216068904208D2DFF83B
:1024A0007801814201D2012000E00020C0B207E0A3
:1024B000DFF86801814201D2012000E00020C0B2B3
:1024C000012801D10120A4E0DFF85401B1FBF0F3B1
:1024D000206840688009800118432568686020688A
:1024E000056A6068904201D25B1C07E04FF4967069
:1024F00043434FF47A70B3FBF0F35B1CAD09AD01BD
:102500002B43206803622068C3696068904214D23C
:10251000481E62685200B0FBF2F0401C0005000D3E
:10252000042801D204213EE0491E60684000B1FB4E
:10253000F0F1491C0905090D35E0A068002809D112
:102540004A1E656803204543B2FBF5F0401C0005B8
:10255000000D0AE04A1E656819204543B2FBF5F0FC
:10256000401C0005000D50F48040000501D1012100
:1025700019E0A068002809D1491E6268032042437F
:10258000B1FBF2F1491C0905090D0AE0491E626818
:1025900019204243B1FBF2F1491C0905090D51F420
:1025A000804151F40041DFF87C0003400B43206878
:1025B000C3612068016831F0C001E0690143206A0D
:1025C00001432068016020688168DFF85C000140F9
:1025D00020690143E0680143206881602068C16888
:1025E000090A0902A2696069024311432068C160B7
:1025F0002068006850F00100216808600020206415
:10260000202084F83D0000202063002084F83E0054
:10261000002032BDA186010080841E0000093D001B
:1026200040420F000030FFFF007CFFFF10B50400A8
:10263000002C01D1012033E0A0690028FFD194F8DB
:102640003900002805D1002084F838002000FEF76A
:10265000E3FF242084F839002068C06830F400507B
:102660002168C860200000F000FA2068006930F49A
:102670009040216808612068406930F02A00216894
:1026800048612068C06850F400502168C86000208C
:10269000E063202084F83900202084F83A000020EC
:1026A00010BD2DE9FC4106000D0014001F000020A4
:1026B00096F83900202857D1002D03D0200080B291
:1026C000002801D1012050E096F83800012801D1FE
:1026D00002204AE0012086F838000020F063212023
:1026E00086F8390001F04EFD8046B484F484B06869
:1026F000B0F5805F04D13069002801D1002401E0E9
:102700002C000025002086F838000FE02078316882
:102710004860641C07E0002CF8D12888C005C00D73
:1027200031684860AD1CF08C401EF084F08C0028AD
:102730000AD00097434600228021300000F0B3F811
:102740000028E8D0032010E00097434600224021F3
:10275000300000F0A8F8002801D0032005E0202078
:1027600086F83900002000E00220BDE8F68138B587
:102770000400206801682068C2682068436900205E
:10278000002011F00F00002807D18D0605D5950611
:1027900003D5200000F017F984E0002872D0D80794
:1027A00002D412F4907F6DD011F00100C0B2002865
:1027B00005D0D00503D5E06B50F00100E063480779
:1027C00008D513F00100C0B2002803D0E06B50F030
:1027D0000200E063880708D513F00100C0B20028AA
:1027E00003D0E06B50F00400E06308070AD59006C0
:1027F00004D413F00103DBB2002B03D0E06B50F0E4
:102800000800E063E06B00283BD0880604D5900602
:1028100002D5200000F0D7F820684069800910F048
:102820000100E16B090701D4002825D0200000F049
:1028300071F82068406940061AD52068406930F078
:10284000400021684861606B00280DD00FF2E50060
:10285000616B4863606B00F0B1FC002811D0606BC5
:10286000616B496B88470CE0200001F091FC08E0A7
:10287000200001F08DFC04E0200001F089FC002024
:10288000E0630FE0080605D5100603D5200000F030
:102890005BF807E0480605D5500603D5200000F098
:1028A00084F8FFE731BD2DE9F04105000E009046A8
:1028B0001F00069C286800683040B04201D101200A
:1028C00000E000204146C9B2884220D114F1010F36
:1028D000F0D0002C04D001F055FCC01B8442E9D29A
:1028E0002868C06830F4D0702968C86028684069DA
:1028F0004008400029684861202085F839002020E0
:1029000085F83A00002085F83800032000E0002018
:10291000BDE8F0810168C96831F490710268D16046
:10292000016849694908490002685161202180F81D
:102930003A10704780B5406A0021C1850021C184EA
:1029400001F026FC01BD000090F8391021292AD1A0
:102950008168B1F5805F0CD10169002909D1016A54
:102960000988C905C90D02685160016A891C0162A4
:1029700005E0016A4A1C0262097802685160C18C54
:10298000491EC18489B200290BD10168C96831F0A0
:1029900080010268D1600168C96851F04001006897
:1029A000C160002000E00220704780B50168C9685E
:1029B00031F040010268D160202180F8391001F027
:1029C000E8FB002002BD80B590F83A1022294AD1D8
:1029D0008168B1F5805F0DD1016900290AD100211C
:1029E000816A02685268D205D20D0A80816A891C08
:1029F000816217E0826A00218168B1F5805F05D0AD
:102A00008168002906D10169002903D1016849685C
:102A1000117004E00168496811F07F011170816A4A
:102A2000491C8162C18D491EC18589B2002918D116
:102A30000168C96831F020010268D1600168C96885
:102A400031F480710268D160016849694908490020
:102A500002685161202180F83A1001F09BFB0020B0
:102A600002E0002000E0022002BDF8B5040020686A
:102A7000016931F44051E068014320680161A168B7
:102A800020690143606901432068C2682A48024006
:102A900011432068C1602068416931F44071A06928
:102AA00001432068416120682449884202D1FFF730
:102AB0003EFB01E0FFF730FB6421192202FB00F32B
:102AC0006568AD00B3FBF5F36425B3FBF5F302FBDA
:102AD00000F56668B600B5FBF6F502FB00F6676820
:102AE000BF00B6FBF7F66427B6FBF7F601FB1655F9
:102AF0002D0132356426B5FBF6F515F0F00515EB22
:102B0000031502FB00F36668B600B3FBF6F350430F
:102B100062689200B0FBF2F06422B0FBF2F001FBBD
:102B20001031080132306421B0FBF1F010F00F00D9
:102B3000451920688560F1BDF3E9FFFF00380140C9
:102B4000F8B504000020002500260027002C01D144
:102B50000120A0E0A068002801D0207D0028A06A04
:102B6000002807D10020E062002084F82400200023
:102B7000FEF7E1FD200000F039FAA16AC90600F174
:102B800084800100C9B2002940F07F80A16A31F43D
:102B9000885151F00201A1622168DFF82C24914292
:102BA00008D1E169B1F5402F02D15FF4002102E0C4
:102BB000E16900E0E16962681143227B51EA420168
:102BC0000E43A168B1F5807F02D0A168012902D12E
:102BD0004FF4807100E000210D43217D012911D1C6
:102BE000217B002906D1A169491E490351F40061E6
:102BF0000D4307E0A16A51F02001A162E16A51F0A2
:102C00000101E1622168496831F469410D4321689D
:102C10004D6021688A68DFF8B4130A4032432168A6
:102C20008A60A168B1F5807F02D0A168012902D134
:102C30004FF4807100E00021B1F5807F02D1276957
:102C40007F1E3F052168C96A31F470010F43216876
:102C5000CF6221688A68DFF878130A40B24208D14F
:102C60000021E162A16A31F0020151F00101A1628B
:102C700010E0A06A30F0020050F01000A062E06A9C
:102C800050F00100E062012004E0A06A50F0100062
:102C9000A0620120C0B2F2BD2DE9F04104000D0098
:102CA00016000020DFF834732068B84204D0206892
:102CB000DFF82013884205D1DFF81C03006810F408
:102CC000702000E00020002840F0978094F8240055
:102CD000012801D1022094E0012084F82400200082
:102CE00000F03AF980464046C0B2002840F08180AA
:102CF000A16ADFF8F002014051F48071A162DFF8AF
:102D0000D4122068884209D1DFF8CC02006810F4A0
:102D1000702F01D1012002E0002000E001200028F6
:102D20000ED0A06A30F48010A06220684068400590
:102D30001FD5A06A30F4005050F48050A06218E013
:102D4000A06A50F48010A0622068B84202D02068C7
:102D5000884205D1DFF88002006810F4806000E04E
:102D60000020002805D0A06A30F4005050F48050B4
:102D7000A062A06AC00404D5E06A30F00600E062F8
:102D800001E00020E062002084F824000FF2A92076
:102D9000216A88620FF2F120216AC8620FF2F520E1
:102DA000216A08637FF0020021680860206880685B
:102DB00050F480702168886033002A00206810F188
:102DC0004C01206A00F0B8F92068806810F4602097
:102DD000B0F5602F06D12068806850F4A00021680B
:102DE00088600CE02068806850F48010216888605A
:102DF00005E0002084F8240001E05FF0010840466F
:102E0000C0B2BDE8F08178B40200080000210023C0
:102E1000009392F82430012B01D102209AE0012383
:102E200082F824304368072B12D213685C6B1F258D
:102E300043685E1E05235E43B540AC4305684368A6
:102E40005E1E05235E43B5402C4313685C6329E096
:102E500043680D2B12D213681C6B1F254368DE1FBD
:102E600005235E43B540AC4305684368DE1F052378
:102E70005E43B5402C4313681C6313E01368DC6A9F
:102E80001F254368B3F10D0605235E43B540AC43EF
:102E900005684368B3F10D0605235E43B5402C4336
:102EA0001368DC6203680A2B14D31368DC680725F7
:102EB0000368B3F10A0603235E43B540AC4385685B
:102EC0000368B3F10A0603235E43B5402C4313683D
:102ED000DC600FE013681C690725066803235E4366
:102EE000B540AC438568066803235E43B5402C4378
:102EF00013681C610368102B02D00368112B24D1C6
:102F00001368364CA3421BD113689B681B021CD468
:102F100013689B6853F400031468A36000681028CA
:102F200013D12F480068304BB0FBF3F30A20434322
:102F300000930098002808D00098401E0090F8E701
:102F4000906A50F0200090620121002082F8240055
:102F50000800C0B272BC704738B5040000200020E1
:102F6000009020688068C0072BD42068806850F0EB
:102F70000100216888601A4800681B49B0FBF1F025
:102F8000009002E00098401E009000980028F9D1BF
:102F900001F0F8F8050020688068C00711D401F03E
:102FA000F1F8401B0328F6D3A06A50F01000A0628D
:102FB000E06A50F00100E062002084F82400012063
:102FC00000E0002032BD0000003C0140FDF7E1FFC1
:102FD000FE0E1FFF00280140042401400024014090
:102FE00094000020FEF1FFFF40420F0038B50400BE
:102FF000002020688068C0071BD5206880684008D2
:1030000040002168886001F0BDF8050020688068F4
:10301000C0070ED501F0B6F8401B0328F6D3A06A0E
:1030200050F01000A062E06A50F00100E062012060
:1030300000E0002032BD000080B5416A8A6A12F0CB
:10304000500F1CD1886A50F400708862086880684C
:1030500010F46020B0F5602F0DD1087B00280AD154
:10306000886A30F480708862886AC00403D4886AF1
:1030700050F0010088620800FEF78BFC02E0096A4C
:10308000096B884701BD000080B5406A01F083F8F4
:1030900001BD000080B5406A816A51F04001816243
:1030A000C16A51F00401C16201F076F801BD00006F
:1030B0000021002801D101203DE00168DFF8B422A1
:1030C00091420CD20268DFF8B0128A181421B2FBC8
:1030D000F1F189000164DFF8A412C1630BE002681A
:1030E000DFF89C128A181421B2FBF1F18900016407
:1030F000DFF89012C163022180F8211001680A688C
:103100006FF30D12436881680B43C1680B4301697B
:103110000B4341690B4381690B43C1690B431A435C
:1031200001680A6000218163012180F821100021DB
:1031300080F820100020704770B50400002594F836
:103140002000012801D1022037E0012084F820006E
:1031500094F8210001282AD1022084F821000020BF
:10316000A0632068006840084000266830602000A6
:1031700000F0E6FAE06A002806D02068006850F007
:103180000E00216808600BE02068006830F0040041
:10319000216808602068006850F00A002168086013
:1031A0002068006850F001002168086003E00020FA
:1031B00084F8200002252800C0B270BD10B500249C
:1031C00090F82110022903D0042181630124CEE06C
:1031D0000168096831F00E01026811600168096830
:1031E00049084900026811600168DFF89C2191429A
:1031F00059D30168DFF89421914201D101214EE0B9
:103200000168DFF88C21914201D1102147E001686B
:10321000DFF88021914202D14FF480713FE00168D4
:10322000DFF87421914202D14FF4805137E00168F8
:10323000DFF86821914202D15FF480312FE001680C
:10324000DFF85C21914202D15FF4801127E0016830
:10325000DFF85021914202D15FF080711FE00168D8
:10326000DFF81021914201D1012118E00168DFF857
:103270003821914201D1102111E00168DFF82C21A1
:10328000914202D14FF4807109E00168DFF82021FA
:10329000914202D14FF4805101E05FF48031DFF8B8
:1032A0001421116058E00168DFF8E020914201D15B
:1032B00001214EE00168DFF8D820914201D11021B0
:1032C00047E00168DFF8CC20914202D14FF48071D1
:1032D0003FE00168DFF8C020914202D14FF48051F5
:1032E00037E00168DFF8B420914202D15FF4803109
:1032F0002FE00168DFF8A820914202D15FF480112D
:1033000027E00168DFF89C20914202D15FF08071D4
:103310001FE00168DFF85C20914201D1012118E033
:103320000168DFF88420914201D1102111E0016889
:10333000DFF87820914202D14FF4807109E00168F2
:10334000DFF86C20914202D14FF4805101E05FF42C
:103350008031DFF8B4231160012180F821100021B1
:1033600080F82010416B002901D0416B8847200074
:10337000C0B210BD08040240F8FFFDBF00000240CB
:10338000F8FBFDBF0004024081000240080002403B
:103390001C0002403000024044000240580002403D
:1033A0006C000240800002401C04024030040240D5
:1033B000440402400404024010B5C16B0A6801686D
:1033C0000B680424016C8C40224200F0BE80590737
:1033D00040F1BB8001680968890605D40168096865
:1033E00031F00401026811600168DFF82023914286
:1033F00057D30168DFF81823914201D104214DE031
:103400000168DFF81023914201D1402146E00168B4
:10341000DFF80423914202D14FF480613EE001685D
:10342000DFF8F822914202D14FF4804136E0016882
:10343000DFF8EC22914202D15FF480212EE0016896
:10344000DFF8E022914202D15FF4800126E00168BA
:10345000DFF8D422914202D15FF080611EE0016862
:10346000DFF8C822914201D1042117E00168DFF89A
:10347000C022914201D1402110E00168DFF8B4225E
:10348000914202D14FF4806108E00168AA4A91425A
:1034900002D14FF4804101E05FF48021A74A11601E
:1034A0004CE001689A4A914201D1042144E001684C
:1034B000984A914201D140213EE00168964A9142EA
:1034C00002D14FF4806137E00168944A914202D101
:1034D0004FF4804130E00168914A914202D15FF49B
:1034E000802129E001688F4A914202D15FF4800176
:1034F00022E001688C4A914202D15FF080611BE0BA
:1035000001688A4A914201D1042115E00168884A84
:10351000914201D140210FE00168864A914202D1D7
:103520004FF4806108E00168834A914202D14FF470
:10353000804101E05FF48021734A1160C16A002973
:1035400000F0E080C16A8847DCE00224016C8C4016
:10355000224200F0B880990740F1B58001680968FF
:10356000890608D40168096831F00A01026811600F
:10357000012180F821100168644A91424DD301680D
:10358000634A914201D1022144E00168614A9142BB
:1035900001D120213EE001685F4A914202D14FF4FF
:1035A000007137E001685D4A914202D14FF4005149
:1035B00030E001685A4A914202D15FF4003129E0BB
:1035C0000168584A914202D15FF4001122E001687B
:1035D000554A914202D15FF000711BE00168534AE5
:1035E000914201D1022115E00168514A914201D175
:1035F00020210FE001684F4A914202D14FF400713F
:1036000008E001684C4A914202D14FF4005101E0B8
:103610005FF40031494A11604CE001683C4A914234
:1036200001D1022144E001683A4A914201D12021AE
:103630003EE00168384A914202D14FF4007137E010
:103640000168364A914202D14FF4005130E00168DE
:10365000334A914202D15FF4003129E00168314AD6
:10366000914202D15FF4001122E001682E4A91429A
:1036700002D15FF000711BE001682C4A914201D138
:10368000022115E001682A4A914201D120210FE070
:103690000168284A914202D14FF4007108E00168A4
:1036A000254A914202D14FF4005101E05FF400310C
:1036B000154A1160002180F82010816A002921D06C
:1036C000816A88471EE00824016C8C40224219D090
:1036D000190717D50168096831F00E0102681160F9
:1036E0000122016C8A40C16B4A6001218163012182
:1036F00080F82110002180F82010016B002901D0F2
:10370000016B884710BD00000400024081000240A8
:10371000080002401C000240300002404400024009
:10372000580002406C000240800002400804024041
:103730001C040240300402404404024004040240DD
:1037400030B40125046CA540C46B656004686360F7
:103750004368102B04D103689A600068C16003E0DD
:10376000036899600068C26030BC704762B38B0721
:1037700008D0521E11F8013B00F8013B00F02480F4
:103780008B07F6D1830740F0208000BF103A07D3A3
:1037900030B4B1E83810103AA0E83810F9D230BC93
:1037A000530724BFB1E80810A0E8081044BF51F83F
:1037B000043B40F8043BD20724BF31F8022B20F829
:1037C000022B44BF0B7803707047121F17D35B00A6
:1037D00009D151F8043B20F8023B1B0C121F20F8C2
:1037E000023BF6D20BE051F8043B00F8013B1B0A08
:1037F00020F8023B1B0C121F00F8013BF3D238BF2C
:10380000121D521E24BF11F8013B00F8013BF8D8ED
:103810007047000070B5050014001A000020080071
:10382000C0B2002807D00800C0B2002803D00800AA
:10383000C0B2F82801DB022436E05E4E3170280069
:10384000C0B2002820D1049B5B485C4908605C48FA
:103850005C4908605C485D4908605D485D490860F6
:1038600000205D4908605D485D4908605D485E492B
:1038700008605E485E490860DBB22100C9B230785A
:1038800000F08CFC040000E002242000C0B20028FC
:103890000AD100F0E5FD002801D1032404E05548D9
:1038A00005700120544908702000C0B270BD38B5C1
:1038B0000024514D2878012805D1404800688047F0
:1038C0000020287000E006242000C0B232BD7CB584
:1038D000002049480078002801D0062068E06846AA
:1038E00000F0CAFD012862D19DF80000002805D033
:1038F00002281AD003D3032859D058E057E0404C8F
:10390000404A41492000334B1B689847C0B2002809
:103910000AD1207827490978884202D020780028E7
:1039200002D1022000F0A1FD41E0384C364D28685C
:1039300000782070364E01203070002205E013F828
:1039400032002178884208D0521C102A0CDA2B4B06
:1039500013F832000028F2D106E02A49286803EB68
:10396000C2025268904730702548007800281DD068
:103970003078002812D0234800210180217851F0AE
:1039800080012A680388D1540188491C018031785C
:103990002A680388D1540188491C0180194802888B
:1039A000296804480078094B1B689847FFE7002006
:1039B00076BD0000805E0020E34100080C5E002020
:1039C000FD410008105E00207B420008085E0020D8
:1039D00011420008145E0020185E0020DB4200083F
:1039E0001C5E002065430008205E0020D3430008D1
:1039F000245E0020815E0020990000200800002045
:103A0000825E0020745E0020285E0020835E00201D
:103A1000845E002078B585B005000B98002807D19A
:103A2000502080F31188BFF34F8FBFF36F8FFEE7F5
:103A30000C9C002C07D1502080F31188BFF34F8FCE
:103A4000BFF36F8FFEE754260096009E542E07D0DA
:103A5000502080F31188BFF34F8FBFF36F8FFEE7C5
:103A6000002C13D0002811D02063022084F85100CC
:103A700000200390029404A801900A980090280066
:103A800000F042F8200000F094F801E000200490DB
:103A9000049806B070BD2DE9F84384B0070088464D
:103AA00016009946300080B2800000F0F7FC050057
:103AB000002D0BD0542000F0F1FC0400002C01D0AC
:103AC000256304E0280000F073FD00E00024002CD2
:103AD00015D0002084F851000020039002940D9826
:103AE00001900C9800904B46B6B232004146380027
:103AF00000F00AF8200000F05CF8012001E05FF01F
:103B0000FF3005B0BDE8F0832DE9F84305001E0045
:103B10000A9F386B00EB8200B0F104085FEAD80816
:103B20005FEAC80818F00700002807D0502080F38B
:103B30001188BFF34F8FBFF36F8FFEE7002200E0C5
:103B4000521C102A07D2885C07EB020383F834006A
:103B5000885C0028F4D1DDF82090002087F843002D
:103B6000B9F1070F01D35FF00609099CC7F82C9043
:103B7000C7F844900020B864381D00F0CEFD17F15E
:103B8000180000F0CAFD3F61D9F10709C7F8189085
:103B90007F620020F864002087F85000320029007E
:103BA000404600F0F7FD3860002C00D02760BDE8EB
:103BB000F18338B5040000F059FEDFF8C01308683F
:103BC000401C0860DFF8B8532868002806D12C6034
:103BD000086801280DD100F0EDF90AE0DFF8C8030C
:103BE0000068002805D1E06A2968C96A884200D3C4
:103BF0002C60DFF8B8030168491C0160DFF8B013DE
:103C00000A680123E06A83401A430A60211DDFF835
:103C1000F423E36A1420434302EB030000F080FD29
:103C200000F03EFEDFF88003006800280DD0286811
:103C3000C06AE16A884208D25FF08050DFF87814E9
:103C40000860BFF34F8FBFF36F8F31BD10B5040015
:103C50000020002C14D0DFF85C040068002807D096
:103C6000502080F31188BFF34F8FBFF36F8FFEE7B3
:103C700000F059F80021200000F038FA00F059F85F
:103C8000002808D15FF08050DFF82C140860BFF3E3
:103C90004F8FBFF36F8F10BD10B586B0002004901A
:103CA0000020039005AA03A904A8FDF72DFEDFF864
:103CB000144404980290039801900020009000237F
:103CC000059ADFF804140FF2BD20FFF7A3FE206071
:103CD0002068002801D0012000E00020012817D131
:103CE000502080F31188BFF34F8FBFF36F8F5FF0C9
:103CF000FF30DFF8DC1308600120DFF8AC12086049
:103D00000020DFF8D013086000F069FD06B010BD98
:103D100010F1010FFAD1502080F31188BFF34F8FBB
:103D2000BFF36F8FFEE7DFF88C030168491C016069
:103D3000704770B500240025DFF8786330680028EC
:103D400007D1502080F31188BFF34F8FBFF36F8FDF
:103D5000FEE700F08BFD3068401E306030680028C0
:103D600055D1DFF818020068002826D14FE0C86856
:103D7000C46814F1180000F0FAFC201D00F0F7FCF4
:103D8000DFF82C120A680123E06A83401A430A60B4
:103D9000211DDFF87022E36A1420434302EB030085
:103DA00000F0BEFCE06ADFF8D8110968C96A8842F1
:103DB00003D30120DFF830130860DFF81013086820
:103DC0000028D4D1002C01D000F05FF9DFF808639F
:103DD0003468002C0CD000F01EF8002803D001201D
:103DE000DFF804130860641E002CF4D1002030605A
:103DF000DFF8F4020068002809D001255FF0805048
:103E0000DFF8B4120860BFF34F8FBFF36F8F00F07D
:103E100047FD280070BDF8B50025DFF8980200685E
:103E2000002867D1DFF8AC020468641C0460002C31
:103E30001AD1DFF8A81208680068002807D05020BF
:103E400080F31188BFF34F8FBFF36F8FFEE70868D1
:103E5000DFF88C2213680B601060DFF888020168BD
:103E6000491C016000F011F9DFF864623068844297
:103E700030D322E0381D00F07AFCB86A002803D065
:103E800017F1180000F073FCDFF824110A68012311
:103E9000F86A83401A430A60391DDFF86821FB6A1B
:103EA0001420434302EB030000F03AFCF86A344963
:103EB0000968C96A884200D30125DFF82012086822
:103EC0000068002812D00868C068C7687868844213
:103ED000D0D230602A480068DFF82811C26A142066
:103EE0004243885802280AD3012508E05FF0FF30DA
:103EF0003060EFE7DFF8E0010168491C0160DFF89E
:103F0000E8010068002800D001252800F2BDDFF894
:103F1000A4010068002804D00120DFF8CC1108605B
:103F20002AE00020DFF8C011086021480068B0FADC
:103F300080F1D1F11F011422324B02FB01F018581D
:103F4000002807D1502080F31188BFF34F8FBFF3B3
:103F50006F8FFEE7514303EB010041684968416000
:103F6000416810F10802914202D1416849684160FC
:103F70004068C0680249086070470000485E002041
:103F8000385E002080B500F03FF81E480068022827
:103F9000F9D35FF08050DFF828110860BFF34F8F2E
:103FA000BFF36F8FEFE70000545E0020645E0020D7
:103FB000505E002038B5002407E01248142101FBB0
:103FC00004F1084400F09AFB641C072CF5D3DFF8D9
:103FD0009841200000F092FBDFF89051280000F09B
:103FE0008DFBDFF8E80000F089FB154800F086FB48
:103FF000324800F083FBDFF8E4000460DFF8700172
:10400000056031BDBC59002038B514E000F02EFC2D
:104010000B48C068C468201D00F0A9FBDFF8400110
:104020000168491E01602868401E286000F038FCC5
:10403000200000F009F8034D28680028E6D131BDC2
:10404000B05D0020445E002010B5040094F85100DB
:10405000002806D1206B00F0ABFA200000F0A8FA8F
:1040600010BD94F85100012803D1200000F0A0FAFF
:10407000F6E794F851000228F2D0502080F311881E
:10408000BFF34F8FBFF36F8FFEE7DFF85010086864
:104090000068002805D15FF0FF30DFF834100860B9
:1040A00006E00868C068C0684068DFF8241008604F
:1040B00070470000705E002004ED00E0C45D002049
:1040C00004ED00E06C5E0020685600089C5D002056
:1040D000685E00204C5E0020585E00203C5E0020A0
:1040E000405E0020605E00205C5E0020F8B50500A8
:1040F0000C001A4806681B4F3868001D00F037FB9B
:10410000002807D138681B490A680123C06A834028
:104110009A430A6015F1010F07D1002C05D03868C9
:10412000011D154800F0FCFA16E0AD19386845602D
:10413000B54206D23868011D0D48006800F0FCFA4F
:104140000AE03868011D0D48006800F0F5FA0C48D7
:1041500001688D4200D20560F1BD00004C5E002078
:10416000485E0020385E0020745D0020885D0020DD
:10417000405E0020505E0020C45D00203C5E0020B8
:10418000685E002001480068704700BF345E002070
:1041900070477047704770477047000038B5080097
:1041A0001400002572B6DBB208222100C0B200F074
:1041B00000FC012801D003250FE044F601308442C1
:1041C00001D3232003E09A486100B0FBF1F080B2F4
:1041D00000F03EFC012800D0032562B62800C0B2E2
:1041E00032BD80B572B600209249087000210120CE
:1041F00000F0A6FB00F053FC62B601BD80B572B6BC
:104200000021002000F09CFB00F052FC62B601BDD2
:104210002DE9F84304000D0016000020002772B6B7
:10422000DFF81482B8F80000B0F5807F06DBA12229
:104230008249834800F04CFCAFF30080B8F80000DE
:10424000042814DBDFF8FC91B8F80010484600F0B1
:1042500051FC00280BD199F800002070B8F800003C
:10426000C01E308019F101002860012000E0052700
:1042700062B63800C0B2BDE8F28338B5002472B629
:104280006C4B1B78012B23D16F4B491E19606F4D6E
:104290000121298019680870288812182A80298825
:1042A000186800F027FC29884A1C2A80654A89B2D0
:1042B000505429884B1C2B8080B2000A89B250547C
:1042C0000120634908700121002000F039FB00E063
:1042D000052462B62000C0B232BD1CB500245C4883
:1042E0000078002806D0EB2254495A4800F0F0FB31
:1042F000AFF30080684600F09DFB4E48017800292E
:1043000005D0022919D008D3032903D027E000F0F3
:10431000C6FB24E000F0C3FB21E0474900220A80ED
:104320000A88531C0B809DF80010464B92B299549A
:104330000221017000F0B3FB11E03F490A88B2F599
:10434000807F08DA0888421C0A809DF800103D4AE8
:1043500080B2115401E00321017000F0A0FB2000A5
:10436000C0B216BD70B5002432480078012807D0CD
:104370004FF493723149384800F0AAFBAFF3008044
:10438000334E3078002802D0012805D01EE00021ED
:10439000012000F0D5FA19E02C4D288800280BD018
:1043A000294E3068007800F036FB3068401C3060E1
:1043B0002888401E288009E0032000F056F80400F9
:1043C0000021012000F0BCFA002030702000C0B2B3
:1043D00070BD38B50024174D2878002804D0022875
:1043E00007D003280AD00AE0002000F03EF80400BD
:1043F00016E0012000F039F8040011E010E0287800
:1044000000280DD0287802280AD02878032807D061
:104410004FF4B0720949114800F05AFBAFF3008025
:1044200000F046FB012028702000C0B232BD000021
:10443000A07F1700865E00207A5E002000540008EE
:10444000F8550008BC5800202C5E0020785E002043
:10445000855E0020C0550008DC5500089C5300080C
:1044600000200C490870012070470121094A117091
:10447000094908700120704702000020054B197897
:10448000002905D004480078107000201870012021
:10449000C0B27047895E0020885E00202DE9F84395
:1044A00004000025FFF73FFCDFF83492D9F8000044
:1044B000002801D100F0B5F88A4F3868044266D16F
:1044C000002C15D088480068041914F0070F0FD08D
:1044D00014F1080014F00704041B14F0070F07D0B0
:1044E000502080F31188BFF34F8FBFF36F8FFEE72B
:1044F000002C4CD0DFF8F481D8F80000A04246D35D
:104500007B480100066801E0310036687068A0420F
:1045100002D230680028F7D1D9F80000864236D0A0
:1045200071480A68036802EB030532680A60006894
:1045300040007168091B884214D206EB040111F097
:104540000700002807D0502080F31188BFF34F8F59
:10455000BFF36F8FFEE77068001B4860746008004F
:1045600000F08EF8D8F800107068091AC8F800102A
:104570006048D8F800100268914202D2D8F80010C2
:104580000160716838680143716000203060FFF796
:10459000D0FB15F00700002807D0502080F31188C9
:1045A000BFF34F8FBFF36F8FFEE72800BDE8F283A4
:1045B00010B50100002833D04B480068404201EBA1
:1045C0000004484960680A68104207D1502080F30F
:1045D0001188BFF34F8FBFF36F8FFEE7206800286D
:1045E00007D0502080F31188BFF34F8FBFF36F8F38
:1045F000FEE760680A68104212D0206800280FD1D8
:104600006268086882436260FFF78DFB37490A6879
:10461000606882180A60200000F032F8FFF789FB1A
:1046200010BD10B444F620623348010011F0070FAA
:1046300004D0C91DC908C900521A82182C4801604B
:1046400000234360521828480068121AD208D2008A
:104650002348026000230468636000230468236029
:10466000521A4A60006808604868224A1060486828
:104670001E4908605FF000401A49086010BC70478E
:1046800010B41B4A00E0126811688142FBD311008C
:1046900053681944814204D15168406841185160FF
:1046A00010000100436819441368994210D10C4965
:1046B00013680C68A34208D0436811684968CB1896
:1046C000436011680968016004E00968016001E065
:1046D00011680160824200D0106010BC7047000079
:1046E000F85D0020045E002070560008FC5D00208C
:1046F000E85D0020005E00209C00002010F1080111
:1047000041605FF0FF31816010F10801C16010F17C
:1047100008010161002101607047002101617047BB
:1047200042684A6093688B60936859609160086141
:104730000168491C0160704710B40B6813F1010F48
:1047400001D1026907E010F1080200E052685468E4
:104750002468A342FAD253684B604B6899608A6020
:10476000516008610168491C016010BC7047016913
:10477000826843689A60426883685A604A688242E5
:1047800001D182684A60002202610868401E086008
:1047900008687047001F5FF080730360001F4908BE
:1047A00049000160001F0FF20D0101601438026022
:1047B000203870474F48006810F1010F07D0502093
:1047C00080F31188BFF34F8FBFF36F8FFEE7502048
:1047D00080F31188BFF34F8FBFF36F8FFEE7E0B513
:1047E000454801780191FF21017001788DF8001092
:1047F0009DF8001011F05001404A11704049072205
:104800000A6007E00A68521E0A609DF80020520004
:104810008DF800209DF800201206F3D40A68D2F12A
:104820000702042A07D0502080F31188BFF34F8F6E
:10483000BFF36F8FFEE70A6812020A600A6812F47B
:10484000E0620A60019901702E48016851F470011C
:104850000160016851F07041016000F057F80020DC
:104860002449086000F099F900200EBD502080F323
:104870001188BFF34F8FBFF36F8F1E490A68521C18
:104880000A60096801290AD11F490968090606D08A
:1048900080F31188BFF34F8FBFF36F8FFEE7704730
:1048A00014490868002807D1502080F31188BFF30D
:1048B0004F8FBFF36F8FFEE70868401E08600868DF
:1048C000002802D1002080F31188704780B5502065
:1048D00080F31188BFF34F8FBFF36F8FFFF79BFA01
:1048E000002803D05FF0805007490860002080F363
:1048F000118801BD8800002000E400E0875E0020F0
:10490000305E002020ED00E004ED00E008480021CA
:1049100001600021074A1160074909684FF47A7263
:10492000B1FBF2F1491E054A116007210160704791
:1049300010E000E018E000E09400002014E000E047
:1049400010B50C00C0B200280ED0002202213D4854
:10495000FCF72CFD3C4801680968C96851F020014A
:1049600000680068C16008E0374801680968C968E4
:1049700031F0200100680068C160E4B2002C0ED064
:10498000012202212F48FCF711FD2F480168096818
:10499000C96851F0800100680068C16008E02A48D9
:1049A00001680968C96831F0800100680068C16069
:1049B00010BD10B52448254A046822600268516081
:1049C00000210268D160DBB2002B03D0022B11D092
:1049D00007D317E00021026891600021026811618D
:1049E00010E04FF48051026891604FF4C06102689A
:1049F000116107E04FF48051026891604FF48061CB
:104A0000026811610068FDF711FE002801D0FCF773
:104A1000D3FA012010BD01B50A23012269460A48D4
:104A20000068FDF73EFE002801D1012000E00020D3
:104A3000C0B202BD044909680968496801700120D3
:104A400070470000000801408C0000200044004036
:104A50003EB50500194C1A482060FDF75DFB194969
:104A6000B0FBF1F0401E60600020A0603120E060EB
:104A7000154805802000FBF75BFB002801D00020D3
:104A80000CE0202000900020019069462000FCF7F7
:104A9000A1FA002801D0002000E001203EBD80B531
:104AA00009480088094908800448FBF778FB01BDE4
:104AB00080B50248FBF7B4FB01BD0000105C00208C
:104AC0000010004040420F007C5E00207E5E00200F
:104AD00000B583B00091019202906A460449182003
:104AE000ABBE002801D100F069F803B000BD00BFE3
:104AF0001010020010B40300FF2004000AE0C0B24E
:104B00001A78504002005B1C0848805C444020003A
:104B1000074CA45C0A00511E92B2002AEFD1E4B205
:104B2000C0B250EA042080B210BC7047AC4F0008FD
:104B3000AC500008EFF30980BFF36F8F1D4B1A686C
:104B400020E9F00F106008B54FF0500080F3118895
:104B5000BFF34F8FBFF36F8FFFF7D9F94FF000000E
:104B600080F31188BDE8084019680868B0E8F00FC4
:104B700080F30988BFF36F8F70470E4B1968086880
:104B8000B0E8F00F80F30988BFF36F8F4FF000009B
:104B900080F311884EF00D0E7047074800680068DA
:104BA00080F3088862B661B6BFF34F8FBFF36F8F93
:104BB00000DF0000385E002008ED00E0012000F07A
:104BC00001B8000080B5AFF30080024A1100182040
:104BD000ABBEFBE72600020010B5002409880529BA
:104BE00013D14178090282781143491C0123012223
:104BF00089B2C01CFCF7D1FE0100C9B2002905D062
:104C0000C0B200F0F5F8040000E003242000C0B2B8
:104C100010BD70B50D000026298806292DDB4478CB
:104C2000240281780C43641CC278120201790A4381
:104C30004379110089B200291DD0110089B2792968
:104C400019DA110089B24900DBB2C9B28B4212D124
:104C5000012392B2210089B2801DFCF79EFE010063
:104C6000C9B2002904D0C0B200F0C2F8060005E0C5
:104C70000520288002E0032600E003263000C0B2B1
:104C800070BDF8B50C0000252188052937D147787B
:104C90003F0281780F437F1CC178090206793100F9
:104CA00089B2002929D0310089B27E2925DA002174
:104CB000218003210170401C2188491C2180310082
:104CC000C9B249000170401C2188491C2180002381
:104CD000320092B2390089B2FCF75FFE0100C9B21E
:104CE000002904D0C0B200F083F8050008E0208855
:104CF000B6B210EB4600208002E0032500E0032559
:104D00002800C0B2F2BD2DE9F04180460D0000241C
:104D100028880A2868DB98F801703F0298F802009A
:104D200007437F1C98F80360360298F80400064396
:104D300098F80510090298F806000143491C98F8F4
:104D40000720120298F80800024398F80930300052
:104D500080B2002847D0300080B27E2843DA1000AD
:104D600080B200283FD0100080B27A283BDA1000D1
:104D700080B24000DBB2984235D1012392B289B2B1
:104D800018F10A00FCF709FE0100C9B2002921D17F
:104D900000202880172088F8000018F101002988D9
:104DA000491C29803100C9B249000170401C298882
:104DB000491C29800023320092B2390089B2FCF7E5
:104DC000ECFD0100C9B2002904D12988B6B211EB6B
:104DD000460129800100C9B2002905D0C0B200F007
:104DE00007F8040000E003242000C0B2BDE8F08111
:104DF000C0B2002804D0012804D0072804D005E060
:104E0000002004E0022002E0062000E00420C0B2FE
:104E10007047F8B50D0000262988052944D144784B
:104E2000240281780C43641CC278120201790A437F
:104E3000110089B2002935D0110089B2B1F5FA6F9D
:104E400030DA0021298001210170401C2988491C89
:104E50002980110011F0070F06D0110089B2082334
:104E600091FBF3F77F1C04E0110089B2082391FB4A
:104E7000F3F70770401C2988491C2980002392B24F
:104E8000210089B2FCF73AFE0100C9B2002904D022
:104E9000C0B2FFF7ADFF060007E02888FFB23F1859
:104EA0002F8002E0032600E003263000C0B2F2BDEE
:104EB00038B50024098805292CD145782D02817840
:104EC0000D436D1C0179002922D1C178FF2902D040
:104ED000C17800291CD100218DF80110C078FF286D
:104EE00003D101208DF8000002E000208DF80000C1
:104EF00001230122290089B26846FCF7FFFD010069
:104F0000C9B2002907D0C0B2FFF772FF040002E067
:104F1000032400E003242000C0B232BDF8B50D0028
:104F20000026298806293CDB4478240281780C433A
:104F3000641CC278120201790A434379110011F00E
:104F4000070F06D0110089B2082791FBF7F77F1CE5
:104F500004E0110089B2082791FBF7F7110089B22C
:104F600000291CD0110089B240F2B17C614516DAEB
:104F7000FFB2DBB29F4212D1012392B2210089B26B
:104F8000801DFCF7BBFD0100C9B2002904D0C0B2EE
:104F9000FFF72EFF060005E00520288002E003262B
:104FA00000E003263000C0B2F2BD000000C1814025
:104FB00001C0804101C0804100C1814001C08041E9
:104FC00000C1814000C1814001C0804101C08041D9
:104FD00000C1814000C1814001C0804100C18140C9
:104FE00001C0804101C0804100C1814001C08041B9
:104FF00000C1814000C1814001C0804100C18140A9
:1050000001C0804101C0804100C1814000C1814098
:1050100001C0804101C0804100C1814001C0804188
:1050200000C1814000C1814001C0804101C0804178
:1050300000C1814000C1814001C0804100C1814068
:1050400001C0804101C0804100C1814000C1814058
:1050500001C0804101C0804100C1814001C0804148
:1050600000C1814000C1814001C0804100C1814038
:1050700001C0804101C0804100C1814001C0804128
:1050800000C1814000C1814001C0804101C0804118
:1050900000C1814000C1814001C0804100C1814008
:1050A00001C0804101C0804100C1814000C0C101F8
:1050B000C30302C2C60607C705C5C404CC0C0DCD88
:1050C0000FCFCE0E0ACACB0BC90908C8D81819D9F8
:1050D0001BDBDA1A1EDEDF1FDD1D1CDC14D4D51528
:1050E000D71716D6D21213D311D1D010F03031F118
:1050F00033F3F23236F6F737F53534F43CFCFD3D48
:10510000FF3F3EFEFA3A3BFB39F9F83828E8E92937
:10511000EB2B2AEAEE2E2FEF2DEDEC2CE42425E5E7
:1051200027E7E62622E2E323E12120E0A06061A157
:1051300063A3A26266A6A767A56564A46CACAD6D07
:10514000AF6F6EAEAA6A6BAB69A9A86878B8B97977
:10515000BB7B7ABABE7E7FBF7DBDBC7CB47475B5A7
:1051600077B7B67672B2B373B17170B05090915197
:105170009353529296565797559594549C5C5D9DC7
:105180005F9F9E5E5A9A9B5B9959589888484989B7
:105190004B8B8A4A4E8E8F4F8D4D4C8C4484854567
:1051A0008747468682424383418180407047FEE7BD
:1051B000FEE7FEE7FEE7704780B52848FEF7FCF8FB
:1051C00001BD1CB5264C20680068400910F00100A4
:1051D0002168C96811F0200100280ED000290CD0E8
:1051E00020480068804700200090206800680090F8
:1051F00020684068009000980EE020680068000673
:1052000007D52068C068000603D5174800688047A6
:1052100002E02000FDF7ABFA13BD10B5134C206877
:105220000069C00711D52068C068C0070DD57FF0A0
:105230000100216808610E480188491E018000882C
:10524000002802D10B48006880472000FBF77DF85A
:1052500010BD80B50848FBF778F801BDA05C0020C0
:10526000E45C00201C5E0020205E0020105C00201A
:105270007E5E0020245E0020F05A002070B50C00F5
:1052800000252188052943D143781B0281780B43EF
:105290005B1CC278120201790A43110089B200290D
:1052A00034D0110089B2B1F5FA6F2FDA00212180D4
:1052B00002210170401C2188491C2180110011F03D
:1052C000070F06D0110089B2082691FBF6F6761C6E
:1052D00004E0110089B2082691FBF6F60670401C26
:1052E0002188491C218092B2190089B2FCF708FC80
:1052F0000100C9B2002904D0C0B2FFF779FD050052
:1053000007E02088F6B23618268002E0032500E088
:1053100003252800C0B270BD70B50C00002521889F
:10532000052937D143781B0281780B435B1CC67873
:10533000360201790E43310089B2002928D03100AC
:1053400089B27D2924DA0021218004210170401CCA
:105350002188491C21803100C9B249000170401CDC
:105360002188491C2180320092B2190089B2FCF7D1
:1053700011FB0100C9B2002904D0C0B2FFF738FD0B
:10538000050008E02088B6B210EB4600208002E05D
:10539000032500E003252800C0B270BD2820655217
:1053A00063765374617465203D3D205354415445E8
:1053B0005F52585F494E49542029207C7C20282088
:1053C000655263765374617465203D3D20535441AA
:1053D00054455F52585F5243562029207C7C202838
:1053E00020655263765374617465203D3D205354AB
:1053F0004154455F52585F4552524F522029000098
:10540000443A5C4B696361647320536368656D5C07
:1054100049525F436F6E74726F6C6C65725C495277
:10542000436F6E74726F6C6C5F416E616C6F675F1F
:1054300053656E736F72735C4D6964646C657761FC
:105440007265735C6D6F646275735C7274755C6DAC
:10545000627274752E6300000F49086850F00100F5
:1054600008600E4A13680E48034013600B680D482D
:1054700003400B60086830F480200860106830F446
:10548000FE0010605FF41F00074908605FF00060D5
:1054900006490860704700000010024004100240F6
:1054A0000000FFF8FFFFF6FE0810024008ED00E0E4
:1054B00030B5016884684218416802EB5103C9079E
:1054C00003D54C4401E0491C05D19A420AD012F997
:1054D000011B12F8015B002904F8015BF3D4491E9B
:1054E000F7D5F2E70C3030BD10B5074979441831D3
:1054F000064C7C44163404E00A68081D11448847B1
:105500000146A142F8D110BD2C0000004800000067
:1055100070B50C00054D2A880549461C3000FEF781
:1055200025F92888401C2080002070BD765E002070
:10553000545D00208BBBFFFFF05D00009C0000204D
:10554000000000006DFFFFFF0C020000D80000000B
:105550000000002000F00DF8002801D0FFF7C4FF84
:10556000AFF300800020AFF30080FBF78FFC00F06A
:1055700002F80120704700F001B8000007463846E5
:10558000FFF720FBFBE70000405600084B1900081E
:10559000000000000000000000010000000000000A
:1055A00000000000585600086519000800000000BF
:1055B00000000000000100000000000000000000EA
:1055C00065536E645374617465203D3D20535441AE
:1055D00054455F54585F49444C450000655263761A
:1055E0005374617465203D3D2053544154455F52CE
:1055F000585F49444C4500007573526376427566A6
:10560000666572506F73203C203235360000000012
:1056100002030405060708090A0B0C0D0E0F1010F3
:105620000000000000000000010203040607080952
:105630000148804701480047595400084D5600086A
:105640004D61696E5461736B00000000AFF3008020
:10565000AFF30080FFF77EFF4D6F6462757300004B
:10566000000000000102030449444C450000000012
:1056700008000000FFF7FEBFFFF7FEBFFFF7FEBF09
:10568000FFF7FEBFFFF7FEBFFFF7FEBFFFF7FEBF4E
:10569000FFF7FEBFFFF7FEBFFFF7FEBFFFF7FEBF3E
:1056A000FFF7FEBFFFF7FEBFFFF7FEBFFFF7FEBF2E
:1056B000FFF7FEBFFFF7FEBFFFF7FEBFFFF7FEBF1E
:1056C000FFF7FEBFFFF7FEBFFFF7FEBFFFF7FEBF0E
:1056D000FFF7FEBFFFF7FEBFFFF7FEBFFFF7FEBFFE
:1056E000FFF7FEBFFFF7FEBFFFF7FEBFFFF7FEBFEE
:1056F000FFF7FEBFFFF7FEBFFFF7FEBFFFF7FEBFDE
:10570000FFF7FEBFFFF7FEBFFFF7FEBFFFF7FEBFCD
:10571000FFF7FEBFFFF7FEBFFFF7FEBFFFF7FEBFBD
:10572000FFF7FEBFFFF7FEBFFFF7FEBFFFF7FEBFAD
:10573000FFF7FEBFFFF7FEBFFFF7FEBFFFF7FEBF9D
:10574000FFF7FEBFFFF7FEBFFFF7FEBFFFF7FEBF8D
:10575000FFF7FEBF0400C201000EFD000011FD00B6
:10576000041155000804FD00041953000803FD004E
:1057700004834C000810FD0004134C000806FD00D3
:1057800004D94B000817FD0004074D000801FD0077
:1057900004134E000805FD0004B14E00080FFD0083
:1057A000041D4F000802FD00037D520008D000FCDC
:1057B000AA04E45C002010FC000524F400FF0201B0
:040000050800564D4C
:00000001FF
