:020000040800F2
:10000000687A0020AD8F00086184000869840008C8
:100010006B8400086D8400086F84000800000000F5
:100020000000000000000000000000005B34000839
:1000300071840008000000001534000885300008B5
:10004000099000080D900008119000081590000814
:10005000199000081D9000082190000825900008C4
:10006000299000082D900008319000087384000842
:1000700035900008399000083D9000084190000834
:1000800045900008499000084D90000851900008E4
:1000900055900008599000085D9000086190000894
:1000A00065900008699000086D9000087190000844
:1000B00075900008799000087D90000881900008F4
:1000C00085900008899000088D90000891900008A4
:1000D00095900008999000087D8400089D90000884
:1000E000A1900008A5900008A9900008AD90000814
:1000F000B1900008B5900008B9900008BD900008C4
:10010000C1900008C5900008C9900008CD90000873
:10011000D1900008D5900008D58400080D8500080E
:10012000D9900008DD900008E1900008E5900008F3
:100130002DE9F14FB2B09946924600230691CDE9E0
:1001400000333C9A0F930DF14A0114914A7011E06B
:10015000329E57462C4617F8011B0698B0470028D8
:10016000069000F026810F98401C641E0F90F2D17B
:100170003296AA449AF80000252808D100210022CE
:1001800009910A920B910C920D910E920FE06A4622
:100190004FF0FF31504601F07FF8050002D10F9873
:1001A00000F066BED4D50125E3E741F001011AF85D
:1001B000010F2028F9D023280CD02B2804D02D287B
:1001C00005D0302809D00BE041F00201EFE741F003
:1001D0000401ECE741F00801E9E741F01001E6E72E
:1001E0002A280FD1D9F8002052F8040BC9F80020B2
:1001F0000028119003D54042119041F004010AF10A
:10020000010A14E01192DFF8EC3B0AE011989842E1
:1002100005DA00EB800402EB4402303A11920AF155
:10022000010A9AF80020A2F130000A28EED39AF8C9
:1002300000002E2803D04FF0FF32109229E01AF868
:10024000010F2A2809D1D9F8000050F8042BC9F869
:10025000000010920AF1010A1BE02D280CBF0AF1E0
:10026000010A002000221092DFF8882B0BE040B931
:10027000109B934205DA03EB830504EB4504303C05
:1002800010940AF1010A9AF80040A4F130030A2BF5
:10029000EDD3ADF848100FF660309AF8001001F079
:1002A00005F808B11AF8010B8DF84A009DF84A00CC
:1002B000682805D19AF8000068280CD1622106E070
:1002C0006C2804BF9AF800006C2804D171218DF8C5
:1002D0004A100AF1010A1FA808901AF801BBBBF1E5
:1002E00025012DD01C3900F06181091F022940F23F
:1002F0005D810E392AD0491F00F0B384093900F01E
:100300005581891E00F04985491E00F0F584491E7B
:10031000022940F24B81091F00F0EE84491F00F0D2
:10032000BA80491E00F09D84491E65D0C91E21D0A7
:10033000891E00F09684C91E00F0938400F04CBD25
:1003400025238DF87C30012109912AE06C208DF85D
:100350004A00D9F8000050F8042BC9F80000002A20
:1003600043D11499487800283DD04FF0FF340FF660
:10037000902012E09DF84A006C28EAD0D9F80000DD
:1003800050F8044BC9F800000794D4B91499487880
:1003900098B14FF0FF340FF6842000F0A1FF201A2F
:1003A00007D132981FAA04A900F065FD00287FF547
:1003B000E1AE4FF0FF3000F05BBD0FF67C20079000
:1003C000EFE7109D002D04D5204600F0A9FF04465C
:1003D00007E02A46204600F0BFFF002814BF041B98
:1003E0002C460A94DDE70FF65422329804A900F057
:1003F000C8FD0028D5D5DCE7D9F8001051F8040B6A
:10040000C9F8001020F00004002121F0FF351FABD7
:10041000CDE904450793DDE9042308993C2413B989
:100420000AB9109898B102F00F053035641EEEB28B
:100430003A2EA8BF2735120942EA03721B090D554F
:1004400008BF002A03D007980D19A842EBD308195A
:100450000790C4F13C0210980A92824209DABDF872
:100460004810821A4FF6EF7001400C92ADF8481018
:1004700097E7002895D59DF8480000F01400102853
:100480008FD1119B09990C985B1A1B1A9A1A002A92
:1004900087DD0C9285E71499487820B14FF0FF343E
:1004A0000FF69C1079E79DF84A00622862D0682810
:1004B00019D06A2840D06C2806D071284DD07428F5
:1004C0002DD07A281ED064E0D9F8001051F8040B22
:1004D000C9F8001020B94FF0FF340FF67C105CE72C
:1004E0000F9901605DE7D9F8001051F8040BC9F8C5
:1004F000001020B94FF0FF340FF65C104DE70F9954
:1005000001804EE7D9F8001051F8040BC9F800102B
:100510000028E5D14FF0FF340FF63C103DE7D9F845
:10052000001051F8040BC9F800100028D8D14FF082
:10053000FF340FF6241030E7D9F8001051F8040BFF
:10054000C9F8001020B94FF0FF340FF60C1024E763
:100550000F9AD317C0E9002323E7D9F8001051F808
:10056000040BC9F800100028F2D14FF0FF340FF649
:10057000E80012E7D9F8001051F8040BC9F8001090
:1005800020B94FF0FF340FF6D00006E70F99017045
:1005900007E7D9F8001051F8040BC9F8001000283B
:1005A0009ED14FF0FF340FF6B000F6E6D9F80020E8
:1005B000D21D22F00702C9F80020D2E9000108325A
:1005C000C9F80020CDE90401C80F02D009982D21F7
:1005D0000AE0BDF84800810702D509982B2103E005
:1005E000C00705D5099820211FAA1154401C099065
:1005F000DDE9042309991FA8CDE92E2308444BF017
:1006000020016129079015AC0BD01099002902D563
:100610000621109105E001BF4BF02001672901225E
:100620001092DDE9042359004915491C10D11A0321
:100630000ED0ABF1610503211A2D0A9102D20FF6FB
:10064000A43101E00FF6A031032200F0B1FEA8E6CC
:1006500059004915491C0AD11A0308D1ABF16105AB
:1006600003211A2D0A9116D30FF68431ECE7DDE948
:100670000401CDE93001DDE9302323F00047B7F56F
:10068000801F22F000060DD20022002F08BF002E8E
:10069000029203D116E00FF65431D5E702AA00F01A
:1006A000DBFE0FE0DFF8EC0ADFF8EC1A00EB175086
:1006B0000290DDE930234FF0FF301940DFF8DC7A9B
:1006C00010403943CDE904014BF0200061280DD1E1
:1006D000079830210170821CBBF1610F07920CBF9B
:1006E0007821582141700998801C0990DDE90401A6
:1006F00020F0000231F0004308BF002A02D100269A
:10070000002571E14BF02008B8F1610F40F0BE8088
:100710001098002847BF21210391401C0390039F9C
:10072000DDE92E017F1C00220023DDE9044500F0F5
:10073000CBFE02998DF8542038BF85F00045091F83
:10074000002F02910DF155065DDDDFF8541ACDE959
:10075000302140F2FF732E932046294600220023C9
:1007600000F0CAFE4FD24800400D00F11C0215D027
:10077000002A13DD2E9B9A420ADBDDE9300121F0CD
:10078000004205F000400243DDE93001114611E06E
:100790006FF31E5141EA025120460BE024F00000A5
:1007A00035F0004108BF00280FBF29461C2229460A
:1007B00000F0BAFE04460D4600F054FFFF1F002F64
:1007C000804609DD00F06CFF02460B4620462946B4
:1007D00000F078FF04460D46F01D0721B8F1000F28
:1007E0000CDD491E5EBF08F00F0200F8012D4FEA34
:1007F0002818F3D502E0002200F8012D491EFAD591
:10080000C61D002FA8DC0DF15500361A039886424C
:10081000D8BF304600280DF1550430D4B04206DA76
:100820000DF155010A5C082AA8BF0F2100DA00214A
:10083000024615AB134400E0401E13F80159521E46
:100840008D42F9D00F2904D10DF155018B5C5B1C51
:100850008B54002A04D50299091D15AC401C029145
:10086000411E0CD46218ABF13A0613783033DDB276
:100870003A2DA8BFF318491E02F80139F5D5109991
:10088000002940F1AF80421E1092ABE00299DFF8E0
:10089000142947F29750414391FBF2F2DDE92E45CE
:1008A000029225F00045D2F1070204DD20462946D8
:1008B00000F04CFC0BE052420020DFF8EC1800F096
:1008C00045FC02460B462046294600F06DFF0446D3
:1008D000B8F1660F109806BF029F0A3706273F1827
:1008E000142FC8BF142730208DF854000D46002067
:1008F000DFF8B818CDE92E010DF15506002F33DDD4
:100900002046294601F074F801460A4606F108031C
:1009100004200A26B2FBF6F606EB860EA2EB4E0288
:10092000303203F8012C0A22B6FBF2F202EB820EFF
:10093000A6EB4E063036401E03F8026DE9D1083FA3
:10094000002F03F10806D9DD084601F065F80246DC
:100950000B462046294600F0B5FEDDE92E2301F0C6
:1009600069F804460D46CBE70DF15500361A0DF136
:10097000550404E00298401E761E0290641C207804
:100980003028F7D0B8F1660F02D10299491C04E073
:10099000B8F1650F0CBF012100211098081886429C
:1009A000B8BF701E00281DD4B04204DA215C34297F
:1009B000C8BF392100DC30210246631E9D1800E0CB
:1009C000401E15F80169521E8E42F9D0392902D114
:1009D000A15C491CA154002A04D50299491C1C465B
:1009E000401C02910646029D00F05AFC406A0778BE
:1009F000DDF8408030B2002802DC01260FF2F474EA
:100A00004BF02000662808BF6D1C16D0672846D121
:100A100028B210F1040F48DB404546DA9DF8480043
:100A20006D1C010703D430B24045B8BF804628B2E0
:100A3000B8EB000848BF4FF000080FFA85FB079895
:100A40000A99BBF1000F00F3B2804A1C0A923023CE
:100A50004354B8F1000F03DC9DF84800010704D5AA
:100A60000A98411C0A9107990F5418EB0B0FB8BF55
:100A7000C8F100052DB268420D90A84432B29045ED
:100A8000B8BF4646079B0A9836B20B9632462146B7
:100A9000184400F08DFCA8EB06000E90CBE0BBF1F3
:100AA000610F17D14FF0700B19E030B2404504DAF6
:100AB0009DF848100A0758BF8046B8F1010848BFA2
:100AC0004FF00008BBF1670F14BF4FF0450B4FF01C
:100AD000650B04E0BBF1410F08BF4FF0500B0A98C3
:100AE000411C0A91B8F1000F079914F8012B0A5420
:100AF00003DC9DF8480001071AD50A98411C0A91A9
:100B0000B8F1000F07990F5412DD761E30B2804500
:100B100007980A9BB8BF464632B22146184400F0F7
:100B200047FC0A9936B271180A91A8EB06000D909D
:100B300007980A9908442AB2002A80F800B003D422
:100B40002B224270811C04E02D2141701546811C2E
:100B50006D4200202EAA0A2409E02B4693FBF4F5EF
:100B600005EB8506A3EB460302F8013B401C2DB2C2
:100B7000002DF2DC012806DC4BF02002652A04BFC0
:100B8000302201F8012B00282EAA08D1302001F8CC
:100B9000010B06E0401E135C303301F8013B0028D6
:100BA000F8DC079A0A981044091A0B9143E00844AC
:100BB00031B22AB2914219DA32B2214600F0F8FB82
:100BC0000A9936B27118ABEB0606B8F1000F0A911C
:100BD0000D9603DC9DF84800020704D5079847549A
:100BE0000B99491C0B91CDF8388024E0214600F088
:100BF000DFFB0A98761B5844B8F1000F0A9003DC1B
:100C00009DF848100A0703D5411C0A9107990F5413
:100C100030B2804507980A9BB8BF464632B204EB13
:100C20000B01184400F0C4FB0A9836B230180A9041
:100C3000A8EB06000D909DF8480000F01400102865
:100C40007FF4AFAB099A0A990D988A180B9982180C
:100C50000E988A18821811988242BFF6A2AB821AA7
:100C600017E49DF84A00622808D068280ED06A2848
:100C700014D06C281FD0712810D01CE0D9F80010B7
:100C800051F8040BC9F80010C0B21AE0D9F80010EE
:100C900051F8040BC9F8001080B212E0D9F8002016
:100CA000D21D22F00702C9F80020D2E90001083263
:100CB000C9F8002006E0D9F8001051F8040BC9F873
:100CC00000100021CDE904019DF8480001075AD524
:100CD000DDE90423002B08BF002A54D04BF020008C
:100CE000782850D109981FA930220A54401C431C6F
:100CF000099301F800B046E09DF84A00622808D048
:100D000068280ED06A2814D06C281FD0712810D003
:100D10001CE0D9F8001051F8040BC9F8001040B2DB
:100D20001AE0D9F8001051F8040BC9F8001000B20D
:100D300012E0D9F80020D21D22F00702C9F80020E5
:100D4000D2E900010832C9F8002006E0D9F8001005
:100D500051F8040BC9F80010C117CDE904010029AE
:100D600002D509982D210AE0BDF84800810702D577
:100D700009982B2103E0C00705D5099820211FAA57
:100D80001154401C09901FA809990144079104A817
:100D9000594600F056F9FFF704BB9DF84A006C284D
:100DA0000BD001210991D9F8000050F8041BC9F8B3
:100DB00000008DF87C10FFF7F4BAD9F8000050F865
:100DC000041BC9F8000015914FF0FF32109200216A
:100DD000169115AAFFF709BB25210122BBF1000FCF
:100DE0008DF87C1009923FF4DCAA8DF87DB00221C9
:100DF000FFF7AABACBCCCC0C686A6C747A4C0000B2
:100E00007072696E74665F733A2062616420256C4B
:100E10007320617267756D656E7400007072696E23
:100E200074665F733A206261642025732061726783
:100E3000756D656E74000000000000000000000089
:100E40007072696E74665F733A20256E20646973F0
:100E5000616C6C6F776564007072696E74663A20BD
:100E600062616420256E20617267756D656E740025
:100E700033B0BDE8F08F2DE9FC410F4606469046A1
:100E80007A6B7869396ABC6A121AB869521A796A37
:100E9000121AF869521A121A97F83800141B4107EF
:100EA0000FD42020002C8DF800000ADD25460123F8
:100EB0006A463946304600F07DF900285DD16D1E46
:100EC000F5D17B6942463946304600F073F9002877
:100ED00053D130208DF800003D6A002D09DD01233B
:100EE0006A463946304600F065F9002845D16D1E46
:100EF000F5D1BB69FA683946304600F05BF9002845
:100F00003BD130208DF800007D6A002D08DD0123E3
:100F10006A463946304600F04DF970BB6D1EF6D179
:100F2000F868B969FB6942183946304600F042F961
:100F300018BB30208DF80000BD6A002D08DD0123AC
:100F40006A463946304600F035F9B0B96D1EF6D123
:100F500097F8380041070DD52020002C8DF80000AF
:100F600008DD01236A463946304600F023F920B9EE
:100F7000641EF6D10020BDE8F6814FF0FF30BDE8D9
:100F8000F6812DE9F8470D46A3B02F6B002F82465E
:100F9000904648BF6FF0004700F01DFE696B401897
:100FA00001AA0021C2E90011812828BF4FF0FF30BB
:100FB00044D289461EE0A74230DB686920188128A8
:100FC0000BD30021696303AA29465046FFF753FF5C
:100FD0005FEA000922D40020686103AB6E692246F3
:100FE0006946981900F0E4F9A6196E6158F8040BE7
:100FF000A0B13F1B002F11DDD8F8001001AA6846F0
:1010000000F04CF90446002C05D4D8F80000002864
:10101000D1D1641ECFD54FF0FF390EE0B9F1000FEA
:10102000504604D103AA2946FFF725FF8146B9F1AE
:10103000000F02D1002068616863484624B0BDE813
:10104000F0872DE9FC4307466F293E6908BF082455
:1010500005D041F02000782814BF0A2410243C2534
:10106000D7E90023642918BF69299046994605D11C
:10107000002B03D5D8F1000869EB4909B9F1000F3D
:1010800008BFB8F1000F0CD1386B50B9082C39D11A
:1010900097F83800010735D530203B2586F83B000E
:1010A00030E08DF80010404649462246E31700F034
:1010B00097FD3032D0B26D1E3A28019504DB9DF8C1
:1010C0000000A0F151018A18725540464946224657
:1010D000E31700F085FD80465FEA010908BFB8F11B
:1010E000000F03D0F86871198842DCD3082C09D1AD
:1010F00097F83800010705D5705D302802D06D1EC5
:1011000030207055C5F13C02BA617119F960386B35
:10111000824208DA821A3A624FF6EF70398F014044
:101120003987BDE8F38300280ED597F8380000F022
:101130001400102808D17B6B7969386A5B1A1B1A76
:101140009A1A002AC8BF3A62BDE8F3832DE9D0435A
:1011500006460F4614464FF00008DFF8549012E0A0
:10116000E00707D542464B463046394600F062FC60
:1011700006460F464046494642464B4600F05AFC5A
:10118000641080468946002CEAD130463946BDE8D5
:10119000D083000002FCFFFFFFFF0F800000E03F54
:1011A0000000F07FA08601000000F03F84D7974147
:1011B00000002440F8B505460E4617461C460020A0
:1011C0005CB117F8011BB068A847B06030B1F06A95
:1011D000401CF0620020641EF3D1F2BD4FF0FF30DE
:1011E000F2BD00006E616E004E414E00696E6600F9
:1011F000494E4600300030B4002513E050F8042B6F
:10120000D30744BFA9F101039A18091F042942F822
:10121000045BFAD213468C0744BF15809B1CC90798
:1012200048BF1D7050F8041B0029E7D130BC70473F
:101230001C48704770B45368D41801E05B1C491E09
:10124000042B08DA00291FBF057804F8015B10F8A9
:10125000016B002EF2D1536070BC704738B5144654
:101260001D4661B1FFF7E6FF61686A6B2046904753
:101270006FF00102811A02D0491E01D001E003E0A3
:1012800005E00021616032BD6FF0010032BD4FF01A
:10129000FF3032BDDA6B1047024BDFE7014BF9E755
:1012A00001487047D40000209C000020C9B2027899
:1012B0008A421AB11CBF10F8012FF9E718BF0020AD
:1012C0007047B1F5807F02D34FF0FF307047017057
:1012D000012070470078401E8041C043C00F704716
:1012E00080B500B906A005490B681BB12222002178
:1012F000984701E000F08CFD222002BD403A00201A
:10130000636F6E73747261696E742068616E646C71
:1013100065723A20626164206D6573736167650070
:1013200000F10103810704D010F8011B820781B18D
:10133000FAD10268A2F10131914311F0803104BF6A
:1013400050F8042FF6E709BAB1FA81F100EBD100A9
:10135000401CC01A70470102C9B2830706D0521E52
:1013600022D310F8013B9942F7D11FE0083A13D37A
:1013700002F1040241EA012141EA014150F8043B33
:10138000121F21BF4B40A3F1013C2CEA030C1CF0BF
:10139000803FF3D0C9B2001F083210F8013B521E43
:1013A00028BF91EA030FF8D818BF0120401E7047EC
:1013B00062B38B0708D0521E11F8013B00F8013BC5
:1013C00000F024808B07F6D1830740F0208000BF17
:1013D000103A07D330B4B1E83810103AA0E838100A
:1013E000F9D230BC530724BFB1E80810A0E80810B8
:1013F00044BF51F8043B40F8043BD20724BF31F806
:10140000022B20F8022B44BF0B7803707047121F89
:1014100017D35B0009D151F8043B20F8023B1B0CA9
:10142000121F20F8023BF6D20BE051F8043B00F803
:10143000013B1B0A20F8023B1B0C121F00F8013B6A
:10144000F3D238BF121D521E24BF11F8013B00F821
:10145000013BF8D870472E0010B5144600F002F892
:10146000226010BDC1F30A5343B14A0012F5001FB8
:1014700028D2A3F2FE32A1EB0251704750EA410C90
:1014800020D001F0004C31EA0C01B1FA81F204BF26
:10149000B0FA80F3D2180B3AB2F120032CBF00FA55
:1014A00003F1914041EA0C013EBFC2F1200C20FA49
:1014B0000CF319439040524240F2FD33D21A01EB33
:1014C00003517047002270474FF4001C1CEB410F82
:1014D00094BF1CEB430F09E041EA030C50EA4C0CAB
:1014E00052EA0C0C03D2994208BF9042704714BFD5
:1014F0008B428242704743004FF4001C1CEB410FAB
:1015000094BF1CEB430F09E041EA030C50EA4C0C7A
:1015100052EA0C0C03D28B4208BF8242704714BFC0
:101520009942904270470000124254D440F2FF7C2E
:101530001CEA11530FD0634531D09B1863453CBF63
:1015400001EB0251704701F0004141EA0C510020CB
:10155000AFF30080704750EA410320D001F0004C07
:1015600091EA0C011CD0B1FA81F30B3B9A420DD9E0
:10157000D21A994051EA0C01C3F1200C20FA0CFC5C
:1015800061449840531C40F2FF7CD7E7914041EA08
:101590000C01C2F1200C20FA0CF319439040704763
:1015A000B0FA80F31533202BE0D3202AEED3203A73
:1015B000203B9A4209D9D21A00FA03F141EA0C0100
:1015C0000020531C40F2FF7CB8E700FA02F141EA28
:1015D0000C0100207047524240F2FF7C1CEA11537C
:1015E0000DD06345DBD0B2EB030C3CBFA1EB025145
:1015F00070470CF1010221EA035141F4801150EAD5
:10160000410CCCD001F0004C352A27DC30B481EA03
:101610000C01B2F1200309DAC2F12003044601FAF9
:1016200003F5D0402843D1409C400CE0C3F1200298
:10163000450020FA03F418BF44F0010421FA03F036
:1016400091400C43002174F1004550F1000051EB32
:101650000C01244230BC7FF47BAF70476146002010
:1016600076E70000C1F30A5340F2FE329B1A14DD04
:10167000D3F120034FEAE17208DDC90241EA50517B
:1016800041F00040D84080185040704703F2E130EC
:1016900010B1D24382F00040704700207047000034
:1016A000C11768B14840401AB0FA80F29040D21C8D
:1016B000C907C2F5846241EA025202EBD02140051B
:1016C0007047000070B44FF0004591EA030F40F1FD
:1016D000A3836B40841A71EB030603D2001BB14154
:1016E000121973414FF4001C1CEB410F34BF7CEB0B
:1016F000430442E00C0DA4EB1356352E4FDC45EAB3
:10170000C323DB0A45EAC121C912B6F120050DDD6C
:1017100063FA05F6EB4086EA0305124218BF45F06E
:101720000105C01851F100010CD213E062FA06F570
:10173000F2405540F3415A40B340F3405A408018BC
:10174000594107D349085FEA30005FEA350528BFF1
:1017500045F0010501F58011420875F1004250F194
:10176000000041EB04514E0016F5001F70BC38BF5D
:1017700070470020090D090570471CEB410F10D27E
:1017800052EA43060BD0BCEB410F05D80C0DAB431E
:10179000661E342EB6DD02E0AB438018594170BCA2
:1017A000704770BC70470000F0B540F2FF7581EAE9
:1017B000030C0CF0004C15EA11541DBF15EA135729
:1017C000AC42AF42E5E0BC41C1F31301C3F31303E4
:1017D000801A994143F4801304D2641E40004941A9
:1017E00080185941C90241EA5051B1FBF3F603FB9D
:1017F0001611A2FB0675D7EBC020A94102D2761EB6
:1018000080185941C90241EA5051B1FBF3FE03FB74
:101810001E11A2FB0E75D7EBC020A94103D2AEF179
:10182000010E80185941890241EA9051760546EA35
:101830008E2EB1FBF3F603FB1611A2FB0675D7EB58
:101840008020A94102D2761E80185941C90241EA7E
:1018500050514EEA060EB1FBF3F603FB1611A2FB44
:101860000675D7EBC020A94102D2761E80185941D7
:10187000C90241EA5051B1FBF3F703FB1711A2FB78
:101880000735D3EBC020A94167F100070CBF004228
:1018900047F0010766F3D5274FEA1E31B80814F563
:1018A000806412DDBD0775F1004250EB0E5051EB24
:1018B000045111F5801F5CBF41EA0C01F0BD4CF0F2
:1018C0007F6141F0E0410020F0BDBD076D0840EAB6
:1018D0000E5041F48011D4F10104B4F120060ADA6B
:1018E000C4F120060200E04001FA06F3E14018438B
:1018F000B24015430EE0342C13DCC6F1200445EA57
:1019000040056D0820FA06F2154321FA06F0A140C1
:101910000D43002175F1004250F1000051EB0C0124
:10192000F0BD00205FEA0C01F0BDCFB992185B4119
:10193000B3FA83F704BFB2FA82F6BF190B3FB7F1CF
:1019400020062FBF02FA06F3BB40C7F1200622FA99
:1019500006F638BF3343BA401CB1E419641E33E7BE
:101960007F4231F00041B1FA81F404BFB0FA80F651
:10197000A4190B3CB4F120062FBF00FA06F1A140D8
:10198000C4F1200620FA06F638BF3143A0403C1BC4
:101990001AE7AC421ABF05EA1357AF4212E050EA09
:1019A00041061CBF52EA4306BFE750EA41073046F2
:1019B00061461CBF41EA0551F0BD52EA430C08BF25
:1019C000C143F0BD00204FF4001616EB410F98BF45
:1019D00016EB430F08BF16EB410F24BFC14305E0D0
:1019E00016EB430F0CBF61464CEA0551F0BD0000F9
:1019F000400D491840EA81200CD2490DA1F58061C3
:101A0000491C40F0004005DBD1F11F0154BFC84024
:101A1000C017704700207047014648B1B0FA80F106
:101A20008840C91CC1F58461090501EBD02140053E
:101A300070470000B0B581EA030C0CF0004C40F296
:101A4000FF7515EA11541DBF15EA1357AC42AF429A
:101A500039E0E41923EA455343F48013C90241F005
:101A6000004141EA505EC7021100A7FB02020028B4
:101A70004FF00000EEFB01204FF00001E3FB0721D7
:101A800018BF42F00102401800214941E3FB0E015A
:101A9000A4F580640F0302D252004041494154F141
:101AA00001046CDD470872F1004250F1000051EB77
:101AB0000451A1F580115CBF41EA0C01B0BD4CEAB4
:101AC00005510020B0BD05EA1357AC4214BFAF4228
:101AD00041E050EA410E1CBF52EA430E02E061466B
:101AE0000020B0BD24423C441BD15FEA070EF6D073
:101AF000090302BF01460020AEF1140EB1FA81F7CE
:101B0000AEEB070401FA07FE0C37C7F1200100FA1B
:101B100007F7C8404EEA000E23EA455343F480130A
:101B2000A2E733F00043B3FA83F704BFB2FA82FEB0
:101B300077440B3FE41BB7F1200E2FBF02FA0EF3E0
:101B4000BB40C7F1200E22FA0EFE38BF43EA0E0357
:101B5000BA40641C82E750EA410E14BF52EA430EB9
:101B60006FF000014FF4001717EB430F8ABF1946BF
:101B700017EB410FB5E74CEA05510020B0BDD4F199
:101B80000104B4F120070FDAC4F12007520828BF7E
:101B900042F0010210FA07F501FA07F7E1BF2A4304
:101BA000E0403843E1400FE0352C98DCC7F12004D9
:101BB00052EA400220FA07F218BF42F0010231FA5D
:101BC00007F0A1400A43002172F1004250F10000E9
:101BD00051EB0C01B0BD80B5FFF72AFB006C02BDD4
:101BE000BBBBE1B1B2F5803F80F07E80022A1ED9F6
:101BF0008C46B1FBF2F102FB11C31B0443EA104314
:101C0000B3FBF2FC02FB1C3380B240EA0343B3FB9C
:101C1000F2F002FB103240EA0C4000237047022A27
:101C200005D98446B0FBF2F002FB10C270474AB1FE
:101C300005D100F0010249085FEA30007047002238
:101C40000023704700F09EB90B0002000021002025
:101C50007047904271EB030CF6D3B3F5803F2FD25F
:101C6000F0B5B3FA83F7B1FA81F4A7F10F0E3D1B7B
:101C70005340CEF1200602FA0EF2F3415340B5F183
:101C80000F0746D80F3C2C444140C4F12006A04029
:101C9000F1414140B1FBF3F603FB1611A2FB0645EF
:101CA000001BA94102D2761E8018594180EA010228
:101CB00021FA0EF362FA0EF200215A403046F0BDCE
:101CC00030B4B1FBF3FC03FB1C11A2FB0C45001B61
:101CD000A94103D2ACF1010C8018594130BC024635
:101CE0000B46604600217047B2F1807F65D3F0B5A6
:101CF000B2FA82F7B1FA81F4C7F10F063D1B22FA5E
:101D000006F307F1110EF24120355A40B5F10F07E5
:101D1000B8D94140C4F12006A040F1414140B1FB97
:101D2000F3FC03FB1C11A2FB0C45001BA94103D2D1
:101D3000BCF1010C801859410F2F12D30F3FC9037A
:101D400041EA5041B1FBF3F603FB1611A2FB064535
:101D5000D4EBC030A94102D2761E8018594146EA20
:101D6000CC3C07B34140C7F12006B840F1414140A7
:101D7000B1FBF3F603FB1611A2FB0645001BA941BC
:101D800002D2761E8018594180EA010221FA0EF330
:101D9000C7F1200462FA0EF20CFA07F05A402CFA4E
:101DA00004F13043F0BD80EA010221FA0EF3002174
:101DB00062FA0EF260465A40F0BD8C46B1FBF2F179
:101DC00002FB11C31B0243EA1063B3FBF2FC02FBEC
:101DD0001C331B024CEA002043EA1063B3FBF2FC05
:101DE00002FB1C331B024CEA002043EA1063B3FBE6
:101DF000F2FC02FB1C331B024CEA002043EA106396
:101E0000B3FBF2FC02FB1C324CEA002000237047BB
:101E1000012000F0B9B80000841A71EB030604D267
:101E20006E40001BB141121973414FF4001C1CEBB2
:101E3000410F34BF7CEB430683E00C0DA4EB13563B
:101E4000362E00F37C80012E45EAC32341DC43EAB1
:101E5000525312BFD20292025B08240545EAC12107
:101E600041EA5051D2EBC020994125D407D1B0FAB4
:101E700080F610FA06F162D00020203608E0B1FAB0
:101E800081F6B140C6F1200220FA02F21143B040BF
:101E90004FEAF474B4EB465434F001064FEA74048C
:101EA0000AD8D6F50016760D04F00044F04061FA29
:101EB00006F25040F1404840C00A40EA415021F04B
:101EC000004128BF5FEA500550F1000044EBD121EA
:101ED00035E0DB0A45EAC121C90AB6F120050EDD6D
:101EE00042EA0242120CC5F1200603FA06F6EB4064
:101EF00042EA06056D42984161F100010DE062FA87
:101F000006F5F240554063FA06FC82EA0C02F34003
:101F10005A406D42904161EB030111F4801F05D1DD
:101F2000641E620502D06D004041494121F48011D8
:101F3000430875F1004350F1000041EB045170BCBF
:101F400070471CEB410F15D223F0004352EA4306C1
:101F50000BD04FEA4C0CBCEB410F04D80C0D661EA5
:101F6000342EB7DDEBE7801A994150EA410608BFED
:101F70000021E4E708BF1CEB430F28BF6FF000010E
:101F8000DDE700007047000080B500F007F8024A66
:101F900011001820ABBEFBE72600020010B500F0D0
:101FA00052F802000023DB4300241068984203D05B
:101FB00011000220ABBE14605068984203D0111D7E
:101FC0000220ABBE546010BDF0B583B0040000F039
:101FD0003AF8A10047183D680026F643B54216D1ED
:101FE00000F01AF83D68B5420FD100BF09A000907B
:101FF000002C01D1002000E0042001900320029079
:1020000069460120ABBE05003D6000F014F82800D1
:1020100003B0F0BD3A7474000C480121BFF35F8F28
:10202000D0E84F3FC0E8421F002AF9D1BFF35F8FCD
:10203000002BF3D170470548BFF35F8F002101707B
:10204000BFF35F8F7047024870470000603A00207E
:10205000140200202DE9F84785B006000F009046D5
:1020600099460F9C109D002C07D1502080F31188B9
:10207000BFF34F8FBFF36F8FFEE7002D07D15020C6
:1020800080F31188BFF34F8FBFF36F8FFEE75420AB
:1020900000900098542807D0502080F31188BFF397
:1020A0004F8FBFF36F8FFEE7002D19D0002C17D094
:1020B000AA46CAF8304002208AF851000020039056
:1020C000CDF808A004A801900E9800904B46424617
:1020D0003900300000F043F8504600F0A3F801E06A
:1020E00000200490049806B0BDE8F0872DE9F8437D
:1020F00084B006000F0090469946404680B28000AA
:1021000000F09CFD0500002D0BD0542000F096FD42
:102110000400002C01D0256304E0280000F01EFE1E
:1021200000E00024002C15D0002084F8510000208D
:10213000039002940D9801900C9800904B464246F3
:1021400092B23900300000F00AF8200000F06AF87E
:10215000012001E05FF0FF3005B0BDE8F0832DE91C
:10216000F84F05000E0017009846DDF828900B9CEC
:10217000DDF830A0DAF8300000EB8700001FC0085F
:10218000C0000090009810F0070F07D0502080F397
:102190001188BFF34F8FBFF36F8FFEE75FF0000B27
:1021A000BBF1100F0CD216F80B000AEB0B0181F8F3
:1021B000340016F80B00002802D01BF1010BEFE7EA
:1021C00000208AF84300B9F1070F01D306208146A9
:1021D000CAF82C90CAF844900020CAF848001AF1B6
:1021E000040000F074FE1AF1180000F070FECAF846
:1021F00010A0D9F10700CAF81800CAF824A00020DE
:10220000CAF84C0000208AF8500042462900009885
:1022100000F09CFECAF80000002C01D0C4F800A019
:10222000BDE8F18F38B5040000F0FCFEDFF8A01423
:102230000868401C0860DFF89C542868002806D114
:102240002C60086801280DD100F0AEFA0AE0DFF832
:1022500088040068002805D1E06A2968C96A8842B4
:1022600000D32C60DFF874040168491C0160DFF8BA
:1022700070140A680123E06A83401A430A60211D32
:10228000DFF8F024E36A1420434302EB030000F07C
:1022900021FE00F0E1FEDFF84004006800280DD0C8
:1022A0002868C06AE16A884208D25FF08050DFF88F
:1022B00024160860BFF34F8FBFF36F8F31BD38B561
:1022C00005000024002D15D0DFF8740500680028F3
:1022D00007D0502080F31188BFF34F8FBFF36F8F6B
:1022E000FEE700F05BF80021280000F047FC00F05A
:1022F0005BF80400002C08D15FF08050DFF8441731
:102300000860BFF34F8FBFF36F8F31BD10B586B03C
:10231000002004900020039005AA03A904A800F05F
:1023200022FFDFF8304804980290039801900020C3
:1023300000900023059ADFF820180FF24940FFF7BC
:1023400089FE20602068002801D0012400E00024DC
:10235000012C16D1502080F31188BFF34F8FBFF3AB
:102360006F8F5FF0FF30DFF8F41708600120DFF8AF
:10237000681308600020DFF8E817086000F00BFE23
:102380000AE014F1010F07D1502080F31188BFF348
:102390004F8FBFF36F8FFEE706B010BDDFF8A004CC
:1023A0000168491C01607047F8B500250026DFF878
:1023B00090442068002807D1502080F31188BFF393
:1023C0004F8FBFF36F8FFEE700F02CFE2068401E9A
:1023D00020602068002857D1DFF8F4020068002848
:1023E00052D0DFF86C170868002827D0C868C0688A
:1023F000050015F1180000F094FD281D00F091FD76
:10240000DFF8DC120A680123E86A83401A430A6095
:10241000291DDFF86023EB6A1420434302EB03001D
:1024200000F058FDE86ADFF8AC120968C96A884212
:10243000D7D30120DFF830170860D2E7002D01D094
:1024400000F022FADFF81C773C68002C0CD000F07A
:102450001FF8002803D00120DFF80C170860641E65
:10246000002CF4D100203860DFF8FC06006800285A
:102470000AD0012006005FF08050DFF8C815086020
:10248000BFF34F8FBFF36F8F00F0E6FD3000F2BD5A
:102490002DE9F0410027DFF8A803006800286ED17D
:1024A000DFF8BC060468641C0460002C1CD1DFF853
:1024B000BC1608680068002807D0502080F31188F7
:1024C000BFF34F8FBFF36F8FFEE7D1F80080DFF8C7
:1024D000A00602680A60C0F80080DFF8980601686C
:1024E000491C016000F0D0F9DFF87086D8F80000D0
:1024F000844238D3DFF8741608680068002804D1D5
:102500005FF0FF30C8F800002DE00868C068C068C0
:10251000050068680600B44202D2C8F8006022E0F4
:10252000281D00F0FEFCA86A002803D015F1180051
:1025300000F0F7FC6A490A680123E86A83401A43FD
:102540000A60291D8B4AEB6A1420434302EB030007
:1025500000F0C0FCE86A5F490968C96A8842C9D3CB
:1025600001200700C6E75B4800688249C26A142060
:1025700042438858022807D30120070004E0DFF80F
:10258000E4050168491C0160DFF8DC0500680028EB
:1025900001D0012007003800BDE8F081DFF8A0027B
:1025A0000068002804D00120DFF8BC1508602BE08B
:1025B0000020DFF8B415086049480068B0FA80F1DF
:1025C000D1F11F0114226B4B02FB01F018580028B7
:1025D00007D1502080F31188BFF34F8FBFF36F8F67
:1025E000FEE702FB01F203EB020042685268426020
:1025F000426810F108039A4202D142685268426070
:102600004068C068334A1060704738B504000D0058
:10261000002C07D1502080F31188BFF34F8FBFF3F8
:102620006F8FFEE7DFF8D805006810F11801200071
:1026300000F05CFC0121280000F0A0FA31BD38B5A3
:102640000500E868C468002C07D1502080F3118889
:10265000BFF34F8FBFF36F8FFEE714F1180000F048
:1026600060FC77480068002813D1201D00F059FC59
:102670001B490A680123E06A83401A430A60211D4E
:102680003C4AE36A1420434302EB030000F022FCBF
:1026900005E014F11801DFF8B80400F01BFC0D4848
:1026A0000068C06AE16A884205D201200121DFF892
:1026B000C824116000E0002032BDDFF8B8140968BA
:1026C0000160DFF8401509684160704700000000B4
:1026D000143A0020043A0020203A0020303A00202A
:1026E0001C3A00202DE9F04104000D00002C07D118
:1026F000502080F31188BFF34F8FBFF36F8FFEE739
:10270000002D07D1502080F31188BFF34F8FBFF306
:102710006F8FFEE700F086FCDFF844040668676808
:10272000F71B286810F1010F02D15FF000081BE0D1
:10273000DFF8400400682168884205D0606886425E
:1027400002D35FF001080FE02868874208D22868AA
:10275000C01B28602000FFF7B0FF5FF0000803E017
:10276000002028605FF0010800F076FC4046BDE8DC
:10277000F0810000303400200120DFF8FC130860F5
:102780007047000010B5040000F03AF8DFF8780454
:1027900000680228F8D35FF08050AA490860BFF3B0
:1027A0004F8FBFF36F8FEFE770B50024072C09D26E
:1027B000DFF85404142101FB04F1084400F078FB15
:1027C000641CF3E7DFF84454280000F071FBDFF8E5
:1027D0004064300000F06CFBDFF8740300F068FB2D
:1027E000064800F065FB984800F062FBDFF87C03C8
:1027F0000560DFF82004066070BD0000803900200D
:1028000038B5DFF814542868002817D000F00AFC07
:10281000DFF80804C068C0680400201D00F081FBD8
:10282000DFF8FC030168491E01602868401E28602B
:1028300000F012FC200000F005F8E2E731BD0000D6
:102840003C3A002010B5040094F85100002806D14D
:10285000206B00F083FA200000F080FA13E094F877
:102860005100012803D1200000F078FA0BE094F821
:102870005100022807D0502080F31188BFF34F8FFA
:10288000BFF36F8FFEE710BDDFF8E022106800682D
:10289000002805D15FF0FF30DFF8C022106007E0AC
:1028A0001068C068C06801004868DFF8B022106096
:1028B0007047DFF870030068002801D1012007E0AD
:1028C000DFF864030068002801D1022000E0002046
:1028D0007047000004ED00E02DE9F84304002500F6
:1028E0000026002C52D0DFF81893E86AD9F80010BF
:1028F000C96A884242D2A869002805D4D9F80000E4
:10290000C06AD0F10700A861DFF8FC725FF014081C
:102910006869E96A08FB01F13944884227D1281D1A
:1029200000F0FFFA00280DD1E86A08FB00F03858E3
:10293000002807D1DFF8F4120A680123E86A83400F
:102940009A430A60D9F80000C06AE862DFF8DC1236
:102950000A680123E86A83401A430A60291DE86A6D
:1029600008FB00F807EB080000F0B4FA03E0D9F820
:102970000000C06AE8620120060007E0686CD9F830
:102980000010C96A884201D2012006003000BDE86B
:10299000F28370B5040025000026002C50D0DFF82B
:1029A00060020068854207D0502080F31188BFF391
:1029B0004F8FBFF36F8FFEE7A86C002807D1502020
:1029C00080F31188BFF34F8FBFF36F8FFEE7A86CC2
:1029D000401EA864E86A696C884231D0A86C00285F
:1029E0002ED1281D00F09DFA00280FD1DFF8181213
:1029F000EA6A142042438858002807D1DFF82C12D5
:102A00000A680123E86A83409A430A60686CE862B6
:102A1000E86AD0F10700A861DFF810120A68012304
:102A2000E86A83401A430A60291DDFF8DC21EB6A5B
:102A30001420434302EB030000F04CFA012006008F
:102A4000300070BD04ED00E0943900202DE9F84F0E
:102A500004000F00A0465FF00109002C6BD0D8F8ED
:102A60004800002807D1502080F31188BFF34F8F12
:102A7000BFF36F8FFEE7D8F84400B84201D23E00A2
:102A800002E0D8F844000600D8F82C00B04252D03A
:102A9000D8F8480048454ED1DFF864010068804509
:102AA00007D1502080F31188BFF34F8FBFF36F8F92
:102AB000FEE7D8F82C000500C8F82C60D8F81800FC
:102AC000002803D4D6F10700C8F81800DFF838A1B1
:102AD0005FF0140BD8F814000BFB05F15144884249
:102AE00029D118F1040000F01CFA002810D1D8F800
:102AF0002C000BFB00F05AF80000002808D1DFF88A
:102B00002C110A680123D8F82C0083409A430A60EC
:102B1000DFF818110A680123D8F82C0083401A4303
:102B20000A6018F10401D8F82C000BFB00FB0AEB3B
:102B30000B0000F0CFF9BDE8F18FDFF8C410086892
:102B4000002803D00868826C521C826408687047B1
:102B50006C390020383A0020F88F0008343A002001
:102B6000183A0020243A0020283A0020083A002091
:102B70000C3A00202C3A0020283A00202DE9F041A0
:102B800005000C001F480768DFF87480D8F80000C3
:102B9000001D00F0C6F9002808D1D8F8000023492C
:102BA0000A680123C06A83409A430A6015F1010F45
:102BB00008D1002C06D0D8F80000011D1C4800F0F8
:102BC00089F91AE0E8190600D8F800004660BE420C
:102BD00007D2D8F80000011D0E48006800F086F901
:102BE0000BE0D8F80000011D1248006800F07EF9E3
:102BF000114801688E4200D20660BDE8F0810000F5
:102C0000043A0020183A00203034002044390020D3
:102C1000583900200C3A0020103A0020803900205A
:102C2000143A0020203A00203C3A00201C3A0020B0
:102C300094390020083A0020343A00202DE9F84F5A
:102C400004005FF00008FFF7A9FBDFF84892D9F80D
:102C50000000002801D100F0BBF8DFF83CA2DAF850
:102C60000000044269D1002C15D08C48006804197A
:102C700014F0070F0FD014F1080014F00704041B20
:102C800014F0070F07D0502080F31188BFF34F8F47
:102C9000BFF36F8FFEE7002C4FD0DFF804B2DBF8F4
:102CA0000000A04249D37F4806000068050068681C
:102CB000A04205D22868002802D02E002D68F6E731
:102CC000D9F80000854238D0744831680268114450
:102CD000884629683160006840006968091B88429D
:102CE00015D205EB0400070017F00700002807D0F5
:102CF000502080F31188BFF34F8FBFF36F8FFEE733
:102D00006868001B78606C60380000F092F8DBF8AF
:102D100000106868091ACBF800106348DBF800104F
:102D20000268914202D2DBF8001001606968DAF8AB
:102D300000000143696000202860FFF735FB18F0B0
:102D40000700002807D0502080F31188BFF34F8F71
:102D5000BFF36F8FFEE74046BDE8F28F70B5040009
:102D60002600002C33D04D48006840420644350010
:102D7000494968680A68104207D1502080F31188D9
:102D8000BFF34F8FBFF36F8FFEE72868002807D08F
:102D9000502080F31188BFF34F8FBFF36F8FFEE792
:102DA00068680A68104212D0286800280FD16A6843
:102DB000086882436A60FFF7F1FA39490A6868686F
:102DC00082180A60280000F034F8FFF7EDFA70BDB1
:102DD00070B442F210723548010011F0070F04D0B0
:102DE000C91DC908C900521A82180B002D4803607A
:102DF00000244460D41829480068241AE408E40038
:102E0000244D2C6000202E68706000202E683060F9
:102E10001800261A46602D6805604568224E356008
:102E200045681F4E35605FF000451B4E356070BC35
:102E3000704730B41B4A1168814201D21268FAE728
:102E4000140051682144814204D153684168CB1871
:102E5000536010000300416819441568A94210D15D
:102E60000C4914680D68AC4208D044681168496880
:102E70000C19446011680968016004E00968016088
:102E800001E011680160824200D0106030BC7047E0
:102E900000000000C4390020D03900200090000854
:102EA000C8390020A8390020CC3900202002002099
:102EB00010F1080141605FF0FF31816010F10801FD
:102EC000C16010F10801016100210160704700211B
:102ED0000161704742684A6093688B6093685960EB
:102EE0009160086103685B1C0360704710B40B6855
:102EF00013F1010F01D1026907E010F108025468D3
:102F00002468A34201D35268F9E754684C604C68C6
:102F1000A1608A60516008610468641C046010BC90
:102F20007047010008698A684B689A604A688B6834
:102F30005A6042688A4201D18A68426000220A616E
:102F40000268521E0260006870470000001F5FF0B8
:102F500080730360001F4B085B000360001F0FF2CB
:102F60000D0303601438026020387047634800681E
:102F700010F1010F07D0502080F31188BFF34F8F5D
:102F8000BFF36F8FFEE7502080F31188BFF34F8FA0
:102F9000BFF36F8FFEE7E0B5594801780191FF213B
:102FA000017001788DF800109DF8001011F05001AB
:102FB000544A1170544907220A609DF800201206F5
:102FC00008D50A68521E0A609DF8002052008DF84C
:102FD0000020F2E70A68D2F10702042A07D0502144
:102FE00081F31188BFF34F8FBFF36F8FFEE70A683D
:102FF00012020A600A6812F4E0620A600199017024
:103000004248016851F470010160016851F070415B
:10301000016000F083F800203849086000F02DFAC4
:1030200000200EBD502080F31188BFF34F8FBFF3F7
:103030006F8F32490A68521C0A60096801290AD157
:1030400033490968090606D080F31188BFF34F8F12
:10305000BFF36F8FFEE7704728490868002807D143
:10306000502080F31188BFF34F8FBFF36F8FFEE7BF
:103070000868401E08600868002802D1002080F31C
:103080001188704780B5502080F31188BFF34F8FAF
:10309000BFF36F8FFFF7FCF9002803D05FF080507B
:1030A0001B490860002080F3118801BDEFF3058003
:1030B000102811D3174A1268125C11000A00114B34
:1030C0001B78D2B29A4207D2502282F31188BFF302
:1030D0004F8FBFF36F8FFEE70B4A12680E4B1B68D2
:1030E00013F4E0639A4207D2502282F31188BFF3AF
:1030F0004F8FBFF36F8FFEE7704700008C000020FA
:1031000000E400E05D3A0020FC39002020ED00E002
:1031100004ED00E0049000080CED00E008480021F8
:1031200001600021074A1160074909684FF47A726B
:10313000B1FBF2F1491E054A116007210160704799
:1031400010E000E018E000E09800002014E000E04B
:1031500080B59A4800F0A2F9994800F09FF9994883
:1031600000F09CF901BD984B0360984808608020EE
:103170001060704780B590B09548D0E90023CDE944
:1031800000230121684600F016FA9249086009A858
:1031900091491C22FEF71CF9002109A800F0CDF985
:1031A0008E49086002A88E491C22FEF711F9002101
:1031B00002A800F0C2F98B49086011B000BD70B5DB
:1031C000894C03222100894800F03AFB884800F02E
:1031D00080FD884D01224FF48041280001F09AFAC9
:1031E00001224FF40051280001F094FA01224FF41B
:1031F0008051280001F08EFA05E000224FF4804152
:10320000280001F087FA5FF0FF317248006800F093
:10321000F9F96A4E2188300001F0B2FA61886848F5
:1032200001F0AEFAA188674801F0AAFA300001F077
:10323000D8FA010089B2704801F0E4FA6F490888B1
:10324000002805D0002008802100300000F043F95C
:10325000300000F032F90028CFD101224FF4804134
:10326000280001F057FACEE780B5654800210091AB
:10327000036803220179002001F0D8FA01F02FFB46
:1032800001F03EFBFCE780B55248006800F0F9F918
:1032900001BD0020C0B2704738B50500080080B2FB
:1032A000002800D0491E0024DBB2002B02D0012BE5
:1032B00046D07EE089B2002911D0022923D018D34C
:1032C00004292BD029D306292AD028D3082929D08C
:1032D00027D30A292CD026D30B292AD02EE0374811
:1032E00001F07FFA010089B2090A29702870681C70
:1032F00025E0334801F075FA010089B2090A297006
:103300002870681C1BE02F4801F06BFA010089B29D
:10331000090A29702870681C11E010E00FE00EE027
:103320000DE00CE00BE0374800782870681C06E0E0
:1033300005E0334800682870681C00E0012439E08B
:1033400089B2002916D0012915D0022914D00329E9
:1033500013D0042912D0052911D0062910D007292D
:103360000FD008290ED0092915D00B2914D00F2908
:1033700017D01CE01CE01BE01AE019E018E017E091
:1033800016E015E02878697851EA00210A204143C7
:103390001B4801600CE00BE0287819490871681C93
:1033A00006E0194B164807C801F058FB00E001245D
:1033B00000E002242000C0B232BD0000A03800208E
:1033C000CC380020F83800203C3500203031002077
:1033D000E88F0008C0390020E08E0008B8390020CE
:1033E000FC8E0008BC3900203029002070380020F5
:1033F00014370020000C0140C88F0008483A002014
:10340000000000201C020020009C000801207047E2
:1034100001207047EFF30980BFF36F8F1D4B1A68CF
:1034200020E9F00F106008B54FF0500080F31188CC
:10343000BFF34F8FBFF36F8FFFF7B0F84FF000006F
:1034400080F31188BDE8084019680868B0E8F00FFB
:1034500080F30988BFF36F8F70470E4B19680868B7
:10346000B0E8F00F80F30988BFF36F8F4FF00000D2
:1034700080F311884EF00D0E704707480068006811
:1034800080F3088862B661B6BFF34F8FBFF36F8FCA
:1034900000DF0000043A002008ED00E010B5040051
:1034A000200001F069F90020E0834FF4805020846F
:1034B00040F6B8306062200010BDC18B028B914293
:1034C00003D2012180F8281002E0002180F82810A2
:1034D00090F82800704770B504000D000020A0830C
:1034E000002060830026606A864208D22988200076
:1034F00001F046F9012000F050F8761CF3E7A08BAC
:103500002084608BE08370BD010000200A0012B2AD
:10351000842A03D00A0012B2D21C10187047EFF3AD
:103520000580002801D0012000E00020C0B27047D3
:1035300080B5FEF7EBFE002002BD38B584B0040074
:103540000D006069002813D0A069002810D0B4F9DC
:103550000800FFF7D9FFA16902916169019100900C
:103560002B00226921686068FEF774FD039011E06A
:10357000B4F90800FFF7C8FF03A9019100902B00E0
:10358000226992B221686068FEF7B0FD012801D07F
:10359000002000E0039805B030BD38B505000120DB
:1035A000B5FBF0F4002C01D0200000E00120FEF774
:1035B00086FE002032BD7CB505000E00686800283C
:1035C0000CD0012E08D1032000906B68002200214E
:1035D000012001F00FFB14E0002012E0012E0FD1BA
:1035E00003220021012001F065FB0400002C05D01E
:1035F000002300220021200001F0A3FB200000E0B6
:10360000002076BD7CB504000D0000200090002C49
:1036100001D1802034E0002615F1010F03D15FF0C5
:10362000FF30060009E0002D07D00120B5FBF0F0C7
:103630000600002E01D101200600FFF770FF0028D0
:1036400015D06A460021200001F084FD012801D038
:10365000FF2015E00098002811D05FF08050DFF8BF
:1036600078100860BFF34F8FBFF36F8F07E0310012
:10367000200001F09BFC012801D0FF2000E0002089
:1036800076BD38B50400002500200090FFF747FF05
:10369000002814D06946200001F026FC012801D042
:1036A000FF2017E00098002813D05FF08050DFF86B
:1036B00028100860BFF34F8FBFF36F8F09E000231E
:1036C00000220021200001F03CFB012801D0FF2056
:1036D0000500280032BD000004ED00E02DE9F041B6
:1036E00004005FF00008002500260027002C01D10F
:1036F0000120A3E0A068002801D0207D0028A06A56
:10370000002807D10020E062002084F82400200077
:1037100001F085FE200000F03DFAA16AC90600F123
:1037200086800100C9B2002940F08180A16A31F48D
:10373000885151F00201A1622168DFF834249142DE
:1037400008D1E169B1F5402F02D15FF4002102E018
:10375000E16900E0E16962681143227B51EA4201BC
:103760000E43A168B1F5807F02D0A168012902D182
:103770004FF4807100E000210D43217D012911D11A
:10378000217B002906D1A169491E490351F400613A
:103790000D4307E0A16A51F02001A162E16A51F0F6
:1037A0000101E1622168496831F4694129432268D5
:1037B000516021688A68DFF8BC130A4032432168EF
:1037C0008A60A168B1F5807F02D0A168012902D189
:1037D0004FF4807100E00021B1F5807F03D12169B1
:1037E000491E09050F002168C96A31F47001394387
:1037F0002268D16221688A68DFF87C130A40B242ED
:1038000008D10021E162A16A31F0020151F0010109
:10381000A16212E0A16A31F0020151F01001A1622F
:10382000E16A51F00101E1620121080005E0A16AAD
:1038300051F01001A16201210800C0B2BDE8F08181
:103840002DE9F84304000D0016005FF00009DFF8D1
:1038500034732068B84204D02068DFF8201388420F
:1038600005D1DFF81C03006810F4702000E0002090
:10387000002840F0978094F82400012801D102200C
:1038800094E0012084F82400200000F03AF98046FA
:103890004046C0B2002840F08180A16ADFF8EC0207
:1038A000014051F48071A162DFF8D0122068884293
:1038B00009D1DFF8CC02006810F4702F01D101208B
:1038C00002E0002000E0012000280ED0A06A30F4C1
:1038D0008010A0622068406840051FD5A06A30F4BF
:1038E000005050F48050A06218E0A06A50F480109C
:1038F000A0622068B84202D02068884205D1DFF873
:103900008002006810F4806000E00020002805D0EC
:10391000A06A30F4005050F48050A062A06AC00445
:1039200004D5E06A30F00600E06201E00020E062C9
:10393000002084F824000FF2A920216A88620FF287
:10394000F520216AC8620FF2FD20216A08637FF02A
:103950000200216808602068806850F48070216847
:10396000886033002A00206810F14C01206A01F0C1
:1039700002FE2068806810F46020B0F5602F06D148
:103980002068806850F4A000216888600CE02068FE
:10399000806850F480102168886005E0002084F879
:1039A000240001E05FF001084046C0B2BDE8F283A8
:1039B00078B4020000230020009092F8240001282F
:1039C00001D102209BE0012082F8240048680728EA
:1039D00012D21068446B1F254868461E05204643D6
:1039E000B540AC430D684868461E05204643B540C7
:1039F0002C431068446329E048680D2812D21068EF
:103A0000046B1F254868C61F05204643B540AC43DC
:103A10000D684868C61F05204643B5402C43106812
:103A2000046313E01068C46A1F254868B0F10D06EE
:103A300005204643B540AC430D684868B0F10D061B
:103A400005204643B5402C431068C46208680A2824
:103A500014D31068C46807250868B0F10A0603206B
:103A60004643B540AC438D680868B0F10A060320B0
:103A70004643B5402C431068C4600FE010680469E9
:103A800007250E6803204643B540AC438D680E6899
:103A900003204643B5402C43106804610868102891
:103AA00002D00868112825D11068364CA0421BD1DD
:103AB0001068806800021DD41068806850F400000F
:103AC0001468A0600868102814D12F480068304C92
:103AD000B0FBF4F40A20444300940098002809D075
:103AE0000098401E0090F8E7906A50F02000906225
:103AF00001200300002082F824001800C0B272BC2C
:103B0000704738B5040000250020009020688068C8
:103B1000C0072BD42068806850F0010021688860BD
:103B2000194800681A49B0FBF1F00090009800288D
:103B300003D00098401E0090F8E702F047F8050017
:103B400020688068C00711D402F040F8401B0328A9
:103B5000F6D3A06A50F01000A062E06A50F00100B5
:103B6000E062002084F82400012000E0002032BD43
:103B7000003C0140FDF7E1FFFE0E1FFF0028014061
:103B8000042401400024014098000020FEF1FFFFC2
:103B900040420F0038B50400002520688068C00747
:103BA0001BD520688068400840002168886002F0CA
:103BB0000DF8050020688068C0070ED502F006F8F1
:103BC000401B0328F6D3A06A50F01000A062E06A00
:103BD00050F00100E062012000E0002032BD000052
:103BE00038B50400656AA86A10F0500F1CD1A86AA5
:103BF00050F40070A8622868806810F46020B0F566
:103C0000602F0DD1287B00280AD1A86A30F480707B
:103C1000A862A86AC00403D4A86A50F00100A86290
:103C20002800FFF730FB03E02000296A096B884772
:103C300031BD000038B50400656A280001F0CCFFF2
:103C400031BD000038B50400656AA86A50F0400034
:103C5000A862E86A50F00400E862280001F0BDFFA5
:103C600031BD000010B50400002C01D101202FE06F
:103C700094F83D00002805D1002084F83C00200085
:103C800002F032F9022084F83D00211D206800F086
:103C9000D5FA012084F84600012084F83E00012076
:103CA00084F83F00012084F84000012084F841009E
:103CB000012084F84200012084F84300012084F8A8
:103CC0004400012084F84500012084F83D000020D4
:103CD00010BD010091F83D00012801D001203AE01B
:103CE000022081F83D000868C06850F001000B68B0
:103CF000D8600868DFF80C31984217D00868DFF800
:103D00000831984212D00868B0F1804F0ED0086890
:103D1000DFF8F830984209D00868DFF8F4309842AC
:103D200004D00868DFF8EC3098420DD1086880684C
:103D300010F007000200062A0CD00868006850F056
:103D400001000B68186005E00868006850F0010089
:103D50000B6818600020704701000868C0684008C0
:103D600040000A68D0600868006A41F211121042EF
:103D70000BD10868006A40F24442104205D108683D
:103D80000068400840000A681060012081F83D008A
:103D90000020704710B50400002C01D101202FE055
:103DA00094F83D00002805D1002084F83C00200054
:103DB00002F0D1F8022084F83D00211D206800F0B7
:103DC0003DFA012084F84600012084F83E000120DD
:103DD00084F83F00012084F84000012084F841006D
:103DE000012084F84200012084F84300012084F877
:103DF0004400012084F84500012084F83D000020A3
:103E000010BD0000002C01400034014000040040BF
:103E100000080040000C004010B50400002C01D147
:103E200001202FE094F83D00002805D1002084F8FF
:103E30003C00200002F0F6F8022084F83D00211D2D
:103E4000206800F0FBF9012084F84600012084F886
:103E50003E00012084F83F00012084F8400001204A
:103E600084F84100012084F84200012084F84300D6
:103E7000012084F84400012084F84500012084F8E2
:103E80003D00002010BD10B50400206800698007C7
:103E90001AD52068C068800716D57FF00200216817
:103EA0000861012020772068806910F0030F03D09B
:103EB000200002F0B8F805E0200002F0B5F820007C
:103EC00002F0B3F8002020772068006940071AD577
:103ED0002068C068400716D57FF00400216808619B
:103EE000022020772068806910F4407F03D02000F2
:103EF00002F099F805E0200002F096F8200002F0A8
:103F000094F8002020772068006900071AD52068FF
:103F1000C068000716D57FF00800216808610420FA
:103F200020772068C06910F0030F03D0200002F052
:103F30007AF805E0200002F077F8200002F075F82A
:103F40000020207720680069C0061AD52068C06864
:103F5000C00616D57FF01000216808610820207780
:103F60002068C06910F4407F03D0200002F05BF8A5
:103F700005E0200002F058F8200002F056F800207A
:103F8000207720680069C0070AD52068C068C0078C
:103F900006D57FF0010021680861200002F0D3F807
:103FA0002068006900060AD52068C068000606D5AA
:103FB0007FF0800021680861200002F0D4F82068BA
:103FC000006940060AD52068C068400606D57FF023
:103FD000400021680861200002F0C6F820680069EE
:103FE00080060AD52068C068800606D57FF02000CC
:103FF00021680861200002F0B8F810BD70B5040017
:104000000D00160094F83C00012801D1022024E0A4
:10401000012084F83C003000002806D0042809D094
:1040200008280CD00C280FD013E02900206800F0DD
:104030004BF90EE02900206800F078F909E029002A
:10404000206800F0AAF904E02900206800F0DBF9FC
:10405000FFE7002084F83C00002070BD70B504002C
:104060000D00160094F83C00012801D102206EE0FA
:10407000012084F83C003000002806D004281BD022
:10408000082831D00C2846D05DE02900206800F0D7
:104090001BF92068806950F0080021688861206859
:1040A000806930F00400216888612068816928698E
:1040B00001432068816146E02900206800F036F95C
:1040C0002068806950F400602168886120688069F8
:1040D00030F480602168886120688069296950EA2D
:1040E0000120216888612EE02900206800F055F940
:1040F0002068C06950F008002168C8612068C06964
:1041000030F004002168C8612068C1692869014352
:104110002068C16117E02900206800F074F9206868
:10412000C06950F400602168C8612068C06930F43B
:1041300080602168C8612068C069296950EA01204F
:104140002168C861FFE7002084F83C00002070BDB2
:1041500070B504000D0094F83C00012801D1022044
:104160006BE0012084F83C00022084F83D002068C8
:10417000866836F0770636F47F46206886602868C1
:1041800000284ED010284CD020284AD0302848D0C3
:1041900040283CD0502826D060282ED0702807D048
:1041A000B0F5805F03D0B0F5005F0FD03EE03DE09A
:1041B000EB686A68A968206800F083F92068806865
:1041C00050F077000600206886602FE0EB686A6890
:1041D000A968206800F075F92068806850F4804074
:1041E0002168886022E0EA686968206800F03CF98C
:1041F0005021206800F05DF918E0EA6869682068DD
:1042000000F044F96021206800F053F90EE0EA68FC
:104210006968206800F028F94021206800F049F919
:1042200004E02968206800F044F9FFE7012084F8E1
:104230003D00002084F83C00002070BD10B40468EC
:10424000DFF81032984212D0DFF80C2290420ED0E4
:10425000B0F1804F0BD0DFF80422904207D0DFF896
:104260000022904203D0DFF8FC21904203D134F0C9
:1042700070044A68144398420ED0774A90420BD09B
:10428000B0F1804F08D0754A904205D0744A9042F0
:1042900002D0744A904203D134F44074CA68144383
:1042A00034F080044A69144304608A68C2620A6870
:1042B0008262984202D0684A904201D10A69026340
:1042C0000122426110BC704770B4026A5208520069
:1042D0000262046A4568836933F070039B089B009F
:1042E0000A68134334F002048A681443594EB042FA
:1042F00002D0594A904205D134F00804CA681443E8
:1043000034F00404B04202D0534A904207D135F44D
:10431000807535F400754A6915438A69154345600F
:1043200083614A684263046270BC704770B4026A79
:1043300032F010020262036A4468826932F4E04299
:1043400032F440720D6852EA052233F020038D6882
:1043500053EA05133F4DA84202D03F4EB04206D16A
:1043600033F08003CE6853EA061333F04003A842CB
:1043700002D0394DA84209D134F4806434F4006489
:104380004D6954EA85048D6954EA8504446082616C
:104390004D688563036270BC704770B4026A32F482
:1043A00080720262046A4568C36933F070039B0837
:1043B0009B000A68134334F400748A6854EA0224A8
:1043C000244A904202D0244EB04206D134F4006414
:1043D000CE6854EA062434F48064904202D01E4A27
:1043E000904209D135F4805535F400554A6955EAB3
:1043F00002158A6955EA02154560C3614A68C263BD
:10440000046270BC704730B4026A32F480520262B7
:10441000036A4468C26932F4E04232F440720D68C3
:1044200052EA052233F400538D6853EA0533094DEF
:10443000A84202D0084DA84204D134F480444D690A
:1044400054EA85144460C2614D680564036230BC5F
:1044500070470000002C014000340140000400407F
:1044600000080040000C004010B4046A036A5B08B6
:104470005B000362836933F0F00353EA021334F004
:104480000A040C438361046210BC704710B4036AD1
:1044900033F0100303628369046A33F4704353EA10
:1044A000023334F0A00454EA01148361046210BCA6
:1044B0007047836833F0700351F007021343836041
:1044C000704730B4846834F47F4452EA010555EAF9
:1044D00003252C43846030BC704700002DE9F84769
:1044E00003005FF0000E5FF00008086830FA0EF07D
:1044F000002800F00D81012010FA0EF00400086879
:1045000020400500A54240F000814868002831D0D5
:10451000012820D0022825D003283CD011281DD006
:10452000122823D0DFF808C2604523D0DFF804C288
:1045300060451FD0DFF800C260451BD0DFF8FCC12A
:10454000604517D0DFF8F8C1604513D0DFF8F4C13B
:1045500060450FD022E0C86880461FE0C868001D93
:1045600080461BE0C8680830804617E0C8680C30F9
:10457000804613E08868002802D10420804609E0C4
:104580008868012803D1082080461C6102E00820C9
:1045900080465C6102E000208046FFE7B5F5807F41
:1045A00001D21E0000E01E1DB5F5807F02D25FEA39
:1045B0008E0702E0BEF10807BF005FF00F09D6F8D2
:1045C00000C019FA07F03CEA000C18FA07F050EAAC
:1045D0000C0CC6F800C04868C00040F19680DFF8B7
:1045E0006801D0F800C05CF0010CC0F800C00068A1
:1045F00010F0010000900098DFF850C1704680086C
:104600005CF820A01EF00300C0B2800019FA00F987
:104610003AEA090A4E48834202D15FF000091FE0DE
:104620004C48834202D15FF0010919E04A488342B5
:1046300002D15FF0020913E04848834202D15FF0E3
:1046400003090DE04648834202D15FF0040907E008
:104650004448834202D15FF0050901E05FF006099A
:104660001EF00300C0B2800019FA00F9524659EA60
:104670000202704680084CF820204868C00307D525
:104680003948D0F800C055EA0C0CC0F800C006E06C
:104690003548D0F800C03CEA050CC0F800C04868B6
:1046A000800307D53148D0F800C055EA0C0CC0F89B
:1046B00000C006E02D48D0F800C03CEA050CC0F868
:1046C00000C04868C00207D52948D0F800C055EAA4
:1046D0000C0CC0F800C006E02548D0F800C03CEA49
:1046E000050CC0F800C04868800207D52148D0F802
:1046F00000C055EA0C0CC0F800C006E01D48D0F818
:1047000000C03CEA050CC0F800C01EF1010EECE64A
:10471000BDE8F1871300DBB2002B03D00B009BB286
:10472000036103E00B009BB21B04036170470000B0
:1047300000001110000012100000211000002210D3
:104740000000311000003210181002400800014033
:1047500000080140000C014000100140001401401D
:1047600000180140001C0140000401400404014005
:10477000080401400C04014080B500F034F802BD8B
:1047800010B4C1820022002305E01900C9B230F83C
:1047900011108A185B1C1900C9B20C29F5DB0C2119
:1047A000B2FBF1F1002209E01300DBB200EB43039E
:1047B0005B881400E4B220F81430521C1300DBB202
:1047C0000C2BF1DB0183818B028B914201D2018B97
:1047D0008183018B428B914201D2018B418310BCBA
:1047E0007047008B704710B504002000182101F0BD
:1047F000BDFC00202083002060830020A0832000D7
:1048000010BD00000EB4C0B5024603A800210190FF
:10481000009101AB0121044878440C30FBF788FC7F
:1048200006BC5DF810FB00BF414700002DE9F047D2
:104830000500894616001F00089C5FF000084846E6
:10484000C0B2002807D04846C0B2002803D048466E
:10485000C0B2F82802DB5FF0020A3CE0DFF89CC13E
:104860008CF800902800C0B2002822D16448654925
:10487000086065486549086065486649086066489B
:104880006649086000206649086066486649086015
:104890006648674908606748674908602300DBB2DB
:1048A0003A003100C9B29CF8000001F063FC824676
:1048B00001E05FF0020A5046C0B200280BD101F0BF
:1048C000DBFD002802D10320824604E05B4805702E
:1048D00001205B4908705046C0B2BDE8F08738B58A
:1048E0000024574D2878012805D1464800688047A4
:1048F0000020287001E0062004002000C0B232BD74
:104900002DE9FC4100254E480078002801D0062002
:1049100071E0684601F0BDFD01286BD19DF80000F3
:10492000002805D002281CD003D3032862D061E000
:1049300060E0454E454A46493000384B1B68984771
:1049400005002800C0B200280AD130782B49097828
:10495000884202D03078002802D1022001F091FD77
:1049600048E03C4E3A4F386800783070DFF8E88015
:10497000012088F8000000200400102C14DA314ACD
:1049800012F8340000280FD012F834003178884231
:1049900008D12E49386802EBC4025268904788F863
:1049A000000001E0641CE8E727480078002820D0D8
:1049B00098F80000002813D02448002101803178A5
:1049C00051F080013A680388D1540188491C018064
:1049D00098F800103A680388D1540188491C018076
:1049E0001A4802883968054800780A4B1B689847BE
:1049F0000500FFE70020BDE8F6810000563A0020E0
:104A0000D3610008D8390020ED610008DC390020AE
:104A100071620008D439002001620008E0390020EA
:104A2000E4390020F5620008E83900207F630008BF
:104A3000EC390020ED630008F0390020573A0020DF
:104A40001D0200200C000020583A00204A3A0020A5
:104A5000F4390020593A00205A3A0020F7B51C00DA
:104A600003266F4600F047F8200000F02FF80025DD
:104A70000AE02800C0B257F820102800C0B214EB9A
:104A8000800000F044F86D1C2800C0B2B042F0D3A2
:104A900000F037F8F7BD30B40322002308E01C0013
:104AA000A4B251F824401D00ADB240F825405B1C73
:104AB0001C00A4B29442F2D330BC70472248006874
:104AC00010F0010090F00100C0B2704710B51F4C0B
:104AD000216851F0020121601D490860206850F0F2
:104AE00040002060FFF7EAFF0028FBD0206830F08C
:104AF0000200206010BD1748174901601749016086
:104B000070471248016851F080010160704770B52C
:104B100004000D000D4E306850F001003060FFF7CA
:104B2000CDFF0028FBD02580FFF7C8FF0028FBD071
:104B3000A41C2D0C2580FFF7C1FF0028FBD0306896
:104B400040084000306070BD0C2002401020024040
:104B5000142002400420024023016745AB89EFCDB9
:104B600070B506000C003500002D07D1502080F3F1
:104B70001188BFF34F8FBFF36F8FFEE7FEF752FA36
:104B80002968EA6B286C424301EB02006860002050
:104B9000A8632868A8602968EA6B521E286C424303
:104BA00001EB0200E8605FF0FF3085F8440085F813
:104BB0004500002C12D12869002817D015F11000EB
:104BC000FDF73DFD002811D05FF08050DFF8801523
:104BD0000860BFF34F8FBFF36F8F07E015F1100030
:104BE000FEF766F915F12400FEF762F9FEF734FAD4
:104BF000012070BD2DE9F84306000C0015001F00D0
:104C0000DDF82090002E07D1502080F31188BFF3EB
:104C10004F8FBFF36F8FFEE7002F07D1502080F337
:104C20001188BFF34F8FBFF36F8FFEE7002D01D0C8
:104C3000002C01D0012000E00020C0B2002807D1E4
:104C4000502080F31188BFF34F8FBFF36F8FFEE7C3
:104C5000002D01D1002C01D1012000E00020C0B2C4
:104C6000002807D1502080F31188BFF34F8FBFF386
:104C70006F8FFEE7482000900098482807D050200A
:104C800080F31188BFF34F8FBFF36F8FFEE7B846F5
:104C9000B8F1000F0BD0012088F84600CDF8008055
:104CA0004B46DBB22A002100300000F031F84046CC
:104CB000BDE8F2832DE9F84304000D001700002C35
:104CC00007D1502080F31188BFF34F8FBFF36F8F50
:104CD000FEE7002D02D15FF0000901E005FB04F9B9
:104CE00019F14800FDF7AAFF0600002E0DD016F1BD
:104CF00048008046002086F8460000963B00DBB264
:104D000042462900200000F003F83000BDE8F2839D
:104D10002DE9F04105000C0016001F00DDF8188099
:104D2000002C02D1C8F8008001E0C8F80060C8F883
:104D30003C50C8F8404001214046FFF711FFBDE854
:104D4000F0812DE9F74380460D0099460024464640
:104D5000002E07D1502080F31188BFF34F8FBFF38F
:104D60006F8FFEE7002D02D1306C002801D10120A9
:104D700000E00020C0B2002807D1502080F3118845
:104D8000BFF34F8FBFF36F8FFEE7B9F1020F02D170
:104D9000F06B012801D1012000E00020C0B2002802
:104DA00007D1502080F31188BFF34F8FBFF36F8F6F
:104DB000FEE7FDF77EFD002802D10298002801D110
:104DC000012000E00020C0B2002807D1502080F36D
:104DD0001188BFF34F8FBFF36F8FFEE7FEF722F905
:104DE000B06BF16B884202D3B9F1020F27D14A466A
:104DF0002900300000F011FA0700706A00280FD077
:104E000016F12400FDF71BFC002814D05FF0805041
:104E1000DFF83C130860BFF34F8FBFF36F8F0AE0DA
:104E2000002F08D05FF08050DFF824130860BFF334
:104E30004F8FBFF36F8FFEF70FF9012052E00298FA
:104E4000002803D1FEF708F900204BE0002C04D124
:104E50006846FDF732FC01200400FEF7FDF8FDF77F
:104E60009DFAFEF7DFF896F9440010F1010F02D128
:104E7000002086F8440096F9450010F1010F02D198
:104E8000002086F84500FEF7E7F802A96846FDF71E
:104E900029FC002820D1300000F06DFA002815D040
:104EA000029916F11000FDF7B0FB300000F01EFA79
:104EB000FDF77AFA002891D15FF08050DFF8901268
:104EC0000860BFF34F8FBFF36F8F87E7300000F0AC
:104ED0000DFAFDF769FA81E7300000F007FAFDF7F7
:104EE00063FA0020BDE8FE832DE9F84306000C00BC
:104EF0003500002D07D1502080F31188BFF34F8F6C
:104F0000BFF36F8FFEE7286C002807D0502080F396
:104F10001188BFF34F8FBFF36F8FFEE7286800281B
:104F200002D16868002801D1012000E00020C0B251
:104F3000002807D1502080F31188BFF34F8FBFF3B3
:104F40006F8FFEE7FEF7B2F8EFF31187502080F382
:104F50001188BFF34F8FBFF36F8FD5F83880E86BA0
:104F600080451ED295F9459018F10100A863484686
:104F70005FF0FF3140B288420DD1686A00280ED040
:104F800015F12400FDF75BFB002808D0002C06D0AB
:104F90000120206003E019F1010085F8450001209F
:104FA00000E0002087F31188BDE8F2832DE9F3418A
:104FB00082B08046002447460025002F07D15020AC
:104FC00080F31188BFF34F8FBFF36F8FFEE7386C0C
:104FD000002807D0502080F31188BFF34F8FBFF314
:104FE0006F8FFEE7FDF765FC002802D103980028CB
:104FF00001D1012000E00020C0B2002807D15020DC
:1050000080F31188BFF34F8FBFF36F8FFEE7FEF77A
:1050100009F8BE6B002E1CD0701EB86338680028DB
:1050200002D1FDF78AFD7860386900280DD017F1AC
:105030001000FDF704FB002807D05FF080504449C2
:105040000860BFF34F8FBFF36F8FFEF705F80120A5
:105050007AE0039800280DD1002D07D0502080F36E
:105060001188BFF34F8FBFF36F8FFEE7FDF7F4FF9B
:10507000002069E0002C04D16846FDF71EFB0120EA
:105080000400FDF7E9FFFDF789F9FDF7CBFF97F97C
:10509000440010F1010F02D1002087F8440097F975
:1050A000450010F1010F02D1002087F84500FDF7FF
:1050B000D3FF03A96846FDF715FB00282AD1380065
:1050C00000F04BF900281FD03868002807D1FDF701
:1050D000A9FF7868FDF700FC0500FDF7BDFF039907
:1050E00017F12400FDF791FA380000F0FFF8FDF702
:1050F0005BF900288BD15FF0805015490860BFF341
:105100004F8FBFF36F8F82E7380000F0EFF8FDF7A5
:105110004BF97CE7380000F0E9F8FDF745F9380075
:1051200000F01BF900283FF472AF002D0BD0FDF703
:1051300079FF380000F066F8060031007868FDF766
:1051400085FCFDF789FF002004B0BDE8F081000078
:1051500004ED00E02DE9F04780460C0015004646BE
:10516000002E07D1502080F31188BFF34F8FBFF37B
:105170006F8FFEE7002C02D1306C002801D1012096
:1051800000E00020C0B2002807D1502080F3118831
:10519000BFF34F8FBFF36F8FFEE7FDF787FFEFF38E
:1051A0001189502080F31188BFF34F8FBFF36F8FA9
:1051B000B76B002F21D096F944A02100300000F0F9
:1051C0007AF8781EB06350465FF0FF3140B28842F3
:1051D0000DD1306900280ED016F11000FDF72FFA1E
:1051E000002808D0002D06D00120286003E01AF125
:1051F000010086F84400012000E0002089F31188B6
:10520000BDE8F0870100486A002804D0086B0068F8
:10521000D0F1070000E0002070472DE9F84F0600AC
:105220000F0014005FF00008B56B306C002809D146
:10523000306800283AD17068FDF7ABFB804600204B
:10524000706033E0002C14D1D6F84090BA46D6F8FE
:1052500008B04A4651465846FCF7AAF8B068316C87
:105260000844B060B068716888421FD33068B0608D
:105270001CE0D6F84090BA46D6F80CB04A465146E3
:105280005846FCF795F8F068316C49420844F060E4
:10529000F0683168884204D27068316C4942084431
:1052A000F060022C02D1002D00D06D1E681CB0638E
:1052B0004046BDE8F28F2DE9F04104000D00206C5E
:1052C000002811D0E068216C0844E060E068616863
:1052D000884201D32068E060266CE768A846320067
:1052E00039004046FCF764F8BDE8F081F8B50400E9
:1052F000FDF798FE94F94550280040B201280CDBD8
:10530000606A002809D014F12400FDF798F90028FC
:1053100001D0FDF731FA6D1EEEE75FF0FF3684F83D
:105320004560FDF799FEFDF77DFE94F94470380065
:1053300040B201280CDB2069002809D014F11000CC
:10534000FDF77DF9002801D0FDF716FA7F1EEEE784
:1053500084F84460FDF780FEF1BD38B50400FDF728
:1053600061FEA06B002801D1012500E00025FDF7BA
:1053700073FE280032BD38B50400FDF753FEA06B64
:10538000E16B884201D1012500E00025FDF764FEB4
:10539000280032BD1FB50C220021684601F08CF8B0
:1053A0004A4C4B4820604FF48070A060002020736E
:1053B000002020755FF40020E06100206060032081
:1053C00020612000FEF78AF9002801D000F0CAFE13
:1053D00007200090012001900620029069462000DD
:1053E000FEF7E6FA002801D000F0BCFE0E20009087
:1053F0000220019069462000FEF7DAFA002801D069
:1054000000F0B0FE0F2000900320019069462000BC
:10541000FEF7CEFA002801D000F0A4FE1FBD30B583
:1054200085B004001022002101A801F045F8206891
:105430002749884247D12748016851F4007101602B
:10544000016811F4007100910099016851F00401A4
:105450000160016811F0040100910099016851F0A8
:1054600010010160006810F010000090009880208A
:1054700001900320029001A91748FFF72FF8302070
:1054800001900320029001A91448FFF727F8144D5A
:1054900014482860002068600020A8608020E86030
:1054A0004FF4807028614FF4806068612020A8610B
:1054B0000020E861280000F017F8002801D000F073
:1054C00051FE25626C6205B030BD000070380020CE
:1054D0000024014018100240000801400010014063
:1054E000EC3700200800024010B40100002200291F
:1054F00001D101203DE00868DFF8D03298420CD29B
:105500000B68DFF8CC02C3181420B3FBF0F0800066
:105510000864DFF8C002C8630BE00B68DFF8B8026C
:10552000C3181420B3FBF0F080000864DFF8AC026D
:10553000C863022081F82100086803686FF30D1327
:105540004C6888680443C868044308690443486990
:10555000044388690443C86904432343086803601B
:1055600000208863012081F82100002081F82000BC
:10557000002010BC70472DE9F04104000D0016001A
:105580001F005FF0000894F82000012801D10220DC
:105590003BE0012084F8200094F8210001282DD15F
:1055A000022084F821000020A063206800684008E1
:1055B0004000216808603B0032002900200000F014
:1055C000EFFAE06A002806D02068006850F00E006C
:1055D000216808600BE02068006830F00400216852
:1055E00008602068006850F00A00216808602068A0
:1055F000006850F001002168086004E0002084F891
:105600002000022080464046C0B2BDE8F08138B597
:105610000400002594F82100022804D00420A0638F
:1056200001200500CFE02068006830F00E002168FE
:105630000860206800684008400021680860206811
:10564000DFF89C11884259D32068DFF8981188420E
:1056500001D101204EE02068DFF88C11884201D191
:10566000102047E02068DFF88411884202D14FF40F
:1056700080703FE02068DFF87811884202D14FF453
:10568000805037E02068DFF86C11884202D15FF467
:1056900080302FE02068DFF86011884202D15FF48B
:1056A000801027E02068DFF85411884202D15FF0B3
:1056B00080701FE02068DFF81411884201D10120BA
:1056C00018E02068DFF83811884201D1102011E07D
:1056D0002068DFF83011884202D14FF4807009E071
:1056E0002068DFF82411884202D14FF4805001E095
:1056F0005FF48030DFF81411086058E02068DFF8AC
:10570000E410884201D101204EE02068DFF8D81073
:10571000884201D1102047E02068DFF8D01088428D
:1057200002D14FF480703FE02068DFF8C410884257
:1057300002D14FF4805037E02068DFF8B81088427B
:1057400002D15FF480302FE02068DFF8AC1088428F
:1057500002D15FF4801027E02068DFF8A0108842B3
:1057600002D15FF080701FE02068DFF8601088428F
:1057700001D1012018E02068DFF88410884201D1AF
:10578000102011E02068DFF87C10884202D14FF42D
:10579000807009E02068DFF87010884202D14FF471
:1057A000805001E05FF48030DFF8BC130860012016
:1057B00084F82100002084F82000606B002802D0CB
:1057C0002000616B88472800C0B232BD0804024047
:1057D000F8FFFDBF00000240F8FBFDBF00040240DF
:1057E00081000240080002401C00024030000240DC
:1057F00044000240580002406C0002408000024019
:105800001C040240300402404404024004040240EC
:1058100070B50400E06B0568206806680421206C00
:1058200081400D4200F0C080700740F1BD802068CB
:105830000068800605D42068006830F00400216804
:1058400008602068DFF82413884258D32068DFF806
:105850002013884201D104204EE02068DFF81413A1
:10586000884201D1402047E02068DFF80C138842CD
:1058700002D14FF480603FE02068DFF800138842D7
:1058800002D14FF4804037E02068DFF8F4128842FC
:1058900002D15FF480202FE02068DFF8E812884210
:1058A00002D15FF4800027E02068DFF8DC12884234
:1058B00002D15FF080601FE02068DFF8D0128842DC
:1058C00001D1042018E02068DFF8C412884201D119
:1058D000402011E02068DFF8BC12884202D14FF46A
:1058E000806009E02068DFF8B012884202D14FF4EE
:1058F000804001E05FF48020A84908604CE0206807
:105900009B49884201D1042044E02068994988429B
:1059100001D140203EE020689749884202D14FF4EF
:10592000806037E020689549884202D14FF480407A
:1059300030E020689249884202D15FF4802029E05B
:1059400020689049884202D15FF4800022E02068FC
:105950008D49884202D15FF080601BE020688B494E
:10596000884201D1042015E020688949884201D18C
:1059700040200FE020688749884202D14FF48060C0
:1059800008E020688449884202D14FF4804001E059
:105990005FF4802074490860E06A002800F0E3802A
:1059A0002000E16A8847DEE00221206C81400D4240
:1059B00000F0B980B00740F1B6802068006880062A
:1059C00008D42068006830F00A00216808600120CF
:1059D00084F821002068654988424DD320686449D5
:1059E000884201D1022044E020686249884201D106
:1059F00020203EE020686049884202D14FF40070C8
:105A000037E020685D49884202D14FF4005030E011
:105A100020685B49884202D15FF4003029E02068A9
:105A20005849884202D15FF4001022E020685649AC
:105A3000884202D15FF000701BE020685349884221
:105A400001D1022015E020685149884201D120206F
:105A50000FE020684F49884202D14FF4007008E0FF
:105A600020684D49884202D14FF4005001E05FF4B4
:105A700000304A4908604CE020683D49884201D125
:105A8000022044E020683B49884201D120203EE0CA
:105A900020683949884202D14FF4007037E020680D
:105AA0003649884202D14FF4005030E02068344932
:105AB000884202D15FF4003029E0206831498842F1
:105AC00002D15FF4001022E020682F49884202D101
:105AD0005FF000701BE020682C49884201D1022051
