:020000040800F2
:1000000070890020318A0008558200085782000854
:10001000598200085B8200085D8200080000000031
:100020000000000000000000000000006333000832
:100030005F820008000000001D330008892F0008BF
:100040008D8A0008918A0008958A0008998A00081C
:100050009D8A0008A18A0008A58A0008A98A0008CC
:10006000AD8A0008B18A0008B58A000861820008DC
:10007000B98A0008BD8A0008C18A0008C58A00083C
:10008000C98A0008CD8A0008D18A0008D58A0008EC
:10009000D98A0008DD8A0008E18A0008E58A00089C
:1000A000E98A0008ED8A0008F18A0008F58A00084C
:1000B000F98A0008FD8A0008018B0008058B0008FA
:1000C000098B00080D8B0008118B0008158B0008A8
:1000D000198B00081D8B00086B820008218B00081B
:1000E000258B0008298B00082D8B0008318B000818
:1000F000358B0008398B00083D8B0008418B0008C8
:10010000458B0008498B00084D8B0008518B000877
:10011000558B0008598B0008C3820008FB82000839
:100120005D8B0008618B0008658B0008698B0008F7
:100130002DE9F14FB2B09946924600230691CDE9E0
:1001400000333C9A0F930DF14A0114914A7011E06B
:10015000329E57462C4617F8011B0698B0470028D8
:10016000069000F026810F98401C641E0F90F2D17B
:100170003296AA449AF80000252808D100210022CE
:1001800009910A920B910C920D910E920FE06A4622
:100190004FF0FF31504601F07FF8050002D10F9873
:1001A00000F066BED4D50125E3E741F001011AF85D
:1001B000010F2028F9D023280CD02B2804D02D287B
:1001C00005D0302809D00BE041F00201EFE741F003
:1001D0000401ECE741F00801E9E741F01001E6E72E
:1001E0002A280FD1D9F8002052F8040BC9F80020B2
:1001F0000028119003D54042119041F004010AF10A
:10020000010A14E01192DFF8EC3B0AE011989842E1
:1002100005DA00EB800402EB4402303A11920AF155
:10022000010A9AF80020A2F130000A28EED39AF8C9
:1002300000002E2803D04FF0FF32109229E01AF868
:10024000010F2A2809D1D9F8000050F8042BC9F869
:10025000000010920AF1010A1BE02D280CBF0AF1E0
:10026000010A002000221092DFF8882B0BE040B931
:10027000109B934205DA03EB830504EB4504303C05
:1002800010940AF1010A9AF80040A4F130030A2BF5
:10029000EDD3ADF848100FF660309AF8001001F079
:1002A00005F808B11AF8010B8DF84A009DF84A00CC
:1002B000682805D19AF8000068280CD1622106E070
:1002C0006C2804BF9AF800006C2804D171218DF8C5
:1002D0004A100AF1010A1FA808901AF801BBBBF1E5
:1002E00025012DD01C3900F06181091F022940F23F
:1002F0005D810E392AD0491F00F0B384093900F01E
:100300005581891E00F04985491E00F0F584491E7B
:10031000022940F24B81091F00F0EE84491F00F0D2
:10032000BA80491E00F09D84491E65D0C91E21D0A7
:10033000891E00F09684C91E00F0938400F04CBD25
:1003400025238DF87C30012109912AE06C208DF85D
:100350004A00D9F8000050F8042BC9F80000002A20
:1003600043D11499487800283DD04FF0FF340FF660
:10037000902012E09DF84A006C28EAD0D9F80000DD
:1003800050F8044BC9F800000794D4B91499487880
:1003900098B14FF0FF340FF6842000F0A1FF201A2F
:1003A00007D132981FAA04A900F065FD00287FF547
:1003B000E1AE4FF0FF3000F05BBD0FF67C20079000
:1003C000EFE7109D002D04D5204600F0A9FF04465C
:1003D00007E02A46204600F0BFFF002814BF041B98
:1003E0002C460A94DDE70FF65422329804A900F057
:1003F000C8FD0028D5D5DCE7D9F8001051F8040B6A
:10040000C9F8001020F00004002121F0FF351FABD7
:10041000CDE904450793DDE9042308993C2413B989
:100420000AB9109898B102F00F053035641EEEB28B
:100430003A2EA8BF2735120942EA03721B090D554F
:1004400008BF002A03D007980D19A842EBD308195A
:100450000790C4F13C0210980A92824209DABDF872
:100460004810821A4FF6EF7001400C92ADF8481018
:1004700097E7002895D59DF8480000F01400102853
:100480008FD1119B09990C985B1A1B1A9A1A002A92
:1004900087DD0C9285E71499487820B14FF0FF343E
:1004A0000FF69C1079E79DF84A00622862D0682810
:1004B00019D06A2840D06C2806D071284DD07428F5
:1004C0002DD07A281ED064E0D9F8001051F8040B22
:1004D000C9F8001020B94FF0FF340FF67C105CE72C
:1004E0000F9901605DE7D9F8001051F8040BC9F8C5
:1004F000001020B94FF0FF340FF65C104DE70F9954
:1005000001804EE7D9F8001051F8040BC9F800102B
:100510000028E5D14FF0FF340FF63C103DE7D9F845
:10052000001051F8040BC9F800100028D8D14FF082
:10053000FF340FF6241030E7D9F8001051F8040BFF
:10054000C9F8001020B94FF0FF340FF60C1024E763
:100550000F9AD317C0E9002323E7D9F8001051F808
:10056000040BC9F800100028F2D14FF0FF340FF649
:10057000E80012E7D9F8001051F8040BC9F8001090
:1005800020B94FF0FF340FF6D00006E70F99017045
:1005900007E7D9F8001051F8040BC9F8001000283B
:1005A0009ED14FF0FF340FF6B000F6E6D9F80020E8
:1005B000D21D22F00702C9F80020D2E9000108325A
:1005C000C9F80020CDE90401C80F02D009982D21F7
:1005D0000AE0BDF84800810702D509982B2103E005
:1005E000C00705D5099820211FAA1154401C099065
:1005F000DDE9042309991FA8CDE92E2308444BF017
:1006000020016129079015AC0BD01099002902D563
:100610000621109105E001BF4BF02001672901225E
:100620001092DDE9042359004915491C10D11A0321
:100630000ED0ABF1610503211A2D0A9102D20FF6FB
:10064000A43101E00FF6A031032200F0B1FEA8E6CC
:1006500059004915491C0AD11A0308D1ABF16105AB
:1006600003211A2D0A9116D30FF68431ECE7DDE948
:100670000401CDE93001DDE9302323F00047B7F56F
:10068000801F22F000060DD20022002F08BF002E8E
:10069000029203D116E00FF65431D5E702AA00F01A
:1006A000DBFE0FE0DFF8EC0ADFF8EC1A00EB175086
:1006B0000290DDE930234FF0FF301940DFF8DC7A9B
:1006C00010403943CDE904014BF0200061280DD1E1
:1006D000079830210170821CBBF1610F07920CBF9B
:1006E0007821582141700998801C0990DDE90401A6
:1006F00020F0000231F0004308BF002A02D100269A
:10070000002571E14BF02008B8F1610F40F0BE8088
:100710001098002847BF21210391401C0390039F9C
:10072000DDE92E017F1C00220023DDE9044500F0F5
:10073000CBFE02998DF8542038BF85F00045091F83
:10074000002F02910DF155065DDDDFF8541ACDE959
:10075000302140F2FF732E932046294600220023C9
:1007600000F0CAFE4FD24800400D00F11C0215D027
:10077000002A13DD2E9B9A420ADBDDE9300121F0CD
:10078000004205F000400243DDE93001114611E06E
:100790006FF31E5141EA025120460BE024F00000A5
:1007A00035F0004108BF00280FBF29461C2229460A
:1007B00000F0BAFE04460D4600F054FFFF1F002F64
:1007C000804609DD00F06CFF02460B4620462946B4
:1007D00000F078FF04460D46F01D0721B8F1000F28
:1007E0000CDD491E5EBF08F00F0200F8012D4FEA34
:1007F0002818F3D502E0002200F8012D491EFAD591
:10080000C61D002FA8DC0DF15500361A039886424C
:10081000D8BF304600280DF1550430D4B04206DA76
:100820000DF155010A5C082AA8BF0F2100DA00214A
:10083000024615AB134400E0401E13F80159521E46
:100840008D42F9D00F2904D10DF155018B5C5B1C51
:100850008B54002A04D50299091D15AC401C029145
:10086000411E0CD46218ABF13A0613783033DDB276
:100870003A2DA8BFF318491E02F80139F5D5109991
:10088000002940F1AF80421E1092ABE00299DFF8E0
:10089000142947F29750414391FBF2F2DDE92E45CE
:1008A000029225F00045D2F1070204DD20462946D8
:1008B00000F04CFC0BE052420020DFF8EC1800F096
:1008C00045FC02460B462046294600F06DFF0446D3
:1008D000B8F1660F109806BF029F0A3706273F1827
:1008E000142FC8BF142730208DF854000D46002067
:1008F000DFF8B818CDE92E010DF15506002F33DDD4
:100900002046294601F074F801460A4606F108031C
:1009100004200A26B2FBF6F606EB860EA2EB4E0288
:10092000303203F8012C0A22B6FBF2F202EB820EFF
:10093000A6EB4E063036401E03F8026DE9D1083FA3
:10094000002F03F10806D9DD084601F065F80246DC
:100950000B462046294600F0B5FEDDE92E2301F0C6
:1009600069F804460D46CBE70DF15500361A0DF136
:10097000550404E00298401E761E0290641C207804
:100980003028F7D0B8F1660F02D10299491C04E073
:10099000B8F1650F0CBF012100211098081886429C
:1009A000B8BF701E00281DD4B04204DA215C34297F
:1009B000C8BF392100DC30210246631E9D1800E0CB
:1009C000401E15F80169521E8E42F9D0392902D114
:1009D000A15C491CA154002A04D50299491C1C465B
:1009E000401C02910646029D00F05AFC406A0778BE
:1009F000DDF8408030B2002802DC01260FF2F474EA
:100A00004BF02000662808BF6D1C16D0672846D121
:100A100028B210F1040F48DB404546DA9DF8480043
:100A20006D1C010703D430B24045B8BF804628B2E0
:100A3000B8EB000848BF4FF000080FFA85FB079895
:100A40000A99BBF1000F00F3B2804A1C0A923023CE
:100A50004354B8F1000F03DC9DF84800010704D5AA
:100A60000A98411C0A9107990F5418EB0B0FB8BF55
:100A7000C8F100052DB268420D90A84432B29045ED
:100A8000B8BF4646079B0A9836B20B9632462146B7
:100A9000184400F08DFCA8EB06000E90CBE0BBF1F3
:100AA000610F17D14FF0700B19E030B2404504DAF6
:100AB0009DF848100A0758BF8046B8F1010848BFA2
:100AC0004FF00008BBF1670F14BF4FF0450B4FF01C
:100AD000650B04E0BBF1410F08BF4FF0500B0A98C3
:100AE000411C0A91B8F1000F079914F8012B0A5420
:100AF00003DC9DF8480001071AD50A98411C0A91A9
:100B0000B8F1000F07990F5412DD761E30B2804500
:100B100007980A9BB8BF464632B22146184400F0F7
:100B200047FC0A9936B271180A91A8EB06000D909D
:100B300007980A9908442AB2002A80F800B003D422
:100B40002B224270811C04E02D2141701546811C2E
:100B50006D4200202EAA0A2409E02B4693FBF4F5EF
:100B600005EB8506A3EB460302F8013B401C2DB2C2
:100B7000002DF2DC012806DC4BF02002652A04BFC0
:100B8000302201F8012B00282EAA08D1302001F8CC
:100B9000010B06E0401E135C303301F8013B0028D6
:100BA000F8DC079A0A981044091A0B9143E00844AC
:100BB00031B22AB2914219DA32B2214600F0F8FB82
:100BC0000A9936B27118ABEB0606B8F1000F0A911C
:100BD0000D9603DC9DF84800020704D5079847549A
:100BE0000B99491C0B91CDF8388024E0214600F088
:100BF000DFFB0A98761B5844B8F1000F0A9003DC1B
:100C00009DF848100A0703D5411C0A9107990F5413
:100C100030B2804507980A9BB8BF464632B204EB13
:100C20000B01184400F0C4FB0A9836B230180A9041
:100C3000A8EB06000D909DF8480000F01400102865
:100C40007FF4AFAB099A0A990D988A180B9982180C
:100C50000E988A18821811988242BFF6A2AB821AA7
:100C600017E49DF84A00622808D068280ED06A2848
:100C700014D06C281FD0712810D01CE0D9F80010B7
:100C800051F8040BC9F80010C0B21AE0D9F80010EE
:100C900051F8040BC9F8001080B212E0D9F8002016
:100CA000D21D22F00702C9F80020D2E90001083263
:100CB000C9F8002006E0D9F8001051F8040BC9F873
:100CC00000100021CDE904019DF8480001075AD524
:100CD000DDE90423002B08BF002A54D04BF020008C
:100CE000782850D109981FA930220A54401C431C6F
:100CF000099301F800B046E09DF84A00622808D048
:100D000068280ED06A2814D06C281FD0712810D003
:100D10001CE0D9F8001051F8040BC9F8001040B2DB
:100D20001AE0D9F8001051F8040BC9F8001000B20D
:100D300012E0D9F80020D21D22F00702C9F80020E5
:100D4000D2E900010832C9F8002006E0D9F8001005
:100D500051F8040BC9F80010C117CDE904010029AE
:100D600002D509982D210AE0BDF84800810702D577
:100D700009982B2103E0C00705D5099820211FAA57
:100D80001154401C09901FA809990144079104A817
:100D9000594600F056F9FFF704BB9DF84A006C284D
:100DA0000BD001210991D9F8000050F8041BC9F8B3
:100DB00000008DF87C10FFF7F4BAD9F8000050F865
:100DC000041BC9F8000015914FF0FF32109200216A
:100DD000169115AAFFF709BB25210122BBF1000FCF
:100DE0008DF87C1009923FF4DCAA8DF87DB00221C9
:100DF000FFF7AABACBCCCC0C686A6C747A4C0000B2
:100E00007072696E74665F733A2062616420256C4B
:100E10007320617267756D656E7400007072696E23
:100E200074665F733A206261642025732061726783
:100E3000756D656E74000000000000000000000089
:100E40007072696E74665F733A20256E20646973F0
:100E5000616C6C6F776564007072696E74663A20BD
:100E600062616420256E20617267756D656E740025
:100E700033B0BDE8F08F2DE9FC410F4606469046A1
:100E80007A6B7869396ABC6A121AB869521A796A37
:100E9000121AF869521A121A97F83800141B4107EF
:100EA0000FD42020002C8DF800000ADD25460123F8
:100EB0006A463946304600F07DF900285DD16D1E46
:100EC000F5D17B6942463946304600F073F9002877
:100ED00053D130208DF800003D6A002D09DD01233B
:100EE0006A463946304600F065F9002845D16D1E46
:100EF000F5D1BB69FA683946304600F05BF9002845
:100F00003BD130208DF800007D6A002D08DD0123E3
:100F10006A463946304600F04DF970BB6D1EF6D179
:100F2000F868B969FB6942183946304600F042F961
:100F300018BB30208DF80000BD6A002D08DD0123AC
:100F40006A463946304600F035F9B0B96D1EF6D123
:100F500097F8380041070DD52020002C8DF80000AF
:100F600008DD01236A463946304600F023F920B9EE
:100F7000641EF6D10020BDE8F6814FF0FF30BDE8D9
:100F8000F6812DE9F8470D46A3B02F6B002F82465E
:100F9000904648BF6FF0004700F01DFE696B401897
:100FA00001AA0021C2E90011812828BF4FF0FF30BB
:100FB00044D289461EE0A74230DB686920188128A8
:100FC0000BD30021696303AA29465046FFF753FF5C
:100FD0005FEA000922D40020686103AB6E692246F3
:100FE0006946981900F0E4F9A6196E6158F8040BE7
:100FF000A0B13F1B002F11DDD8F8001001AA6846F0
:1010000000F04CF90446002C05D4D8F80000002864
:10101000D1D1641ECFD54FF0FF390EE0B9F1000FEA
:10102000504604D103AA2946FFF725FF8146B9F1AE
:10103000000F02D1002068616863484624B0BDE813
:10104000F0872DE9FC4307466F293E6908BF082455
:1010500005D041F02000782814BF0A2410243C2534
:10106000D7E90023642918BF69299046994605D11C
:10107000002B03D5D8F1000869EB4909B9F1000F3D
:1010800008BFB8F1000F0CD1386B50B9082C39D11A
:1010900097F83800010735D530203B2586F83B000E
:1010A00030E08DF80010404649462246E31700F034
:1010B00097FD3032D0B26D1E3A28019504DB9DF8C1
:1010C0000000A0F151018A18725540464946224657
:1010D000E31700F085FD80465FEA010908BFB8F11B
:1010E000000F03D0F86871198842DCD3082C09D1AD
:1010F00097F83800010705D5705D302802D06D1EC5
:1011000030207055C5F13C02BA617119F960386B35
:10111000824208DA821A3A624FF6EF70398F014044
:101120003987BDE8F38300280ED597F8380000F022
:101130001400102808D17B6B7969386A5B1A1B1A76
:101140009A1A002AC8BF3A62BDE8F3832DE9D0435A
:1011500006460F4614464FF00008DFF8549012E0A0
:10116000E00707D542464B463046394600F062FC60
:1011700006460F464046494642464B4600F05AFC5A
:10118000641080468946002CEAD130463946BDE8D5
:10119000D083000002FCFFFFFFFF0F800000E03F54
:1011A0000000F07FA08601000000F03F84D7974147
:1011B00000002440F8B505460E4617461C460020A0
:1011C0005CB117F8011BB068A847B06030B1F06A95
:1011D000401CF0620020641EF3D1F2BD4FF0FF30DE
:1011E000F2BD00006E616E004E414E00696E6600F9
:1011F000494E4600300030B4002513E050F8042B6F
:10120000D30744BFA9F101039A18091F042942F822
:10121000045BFAD213468C0744BF15809B1CC90798
:1012200048BF1D7050F8041B0029E7D130BC70473F
:101230001C48704770B45368D41801E05B1C491E09
:10124000042B08DA00291FBF057804F8015B10F8A9
:10125000016B002EF2D1536070BC704738B5144654
:101260001D4661B1FFF7E6FF61686A6B2046904753
:101270006FF00102811A02D0491E01D001E003E0A3
:1012800005E00021616032BD6FF0010032BD4FF01A
:10129000FF3032BDDA6B1047024BDFE7014BF9E755
:1012A00001487047D40000209C000020C9B2027899
:1012B0008A421AB11CBF10F8012FF9E718BF0020AD
:1012C0007047B1F5807F02D34FF0FF307047017057
:1012D000012070470078401E8041C043C00F704716
:1012E00080B500B906A005490B681BB12222002178
:1012F000984701E000F08CFD222002BD48610020EB
:10130000636F6E73747261696E742068616E646C71
:1013100065723A20626164206D6573736167650070
:1013200000F10103810704D010F8011B820781B18D
:10133000FAD10268A2F10131914311F0803104BF6A
:1013400050F8042FF6E709BAB1FA81F100EBD100A9
:10135000401CC01A70470102C9B2830706D0521E52
:1013600022D310F8013B9942F7D11FE0083A13D37A
:1013700002F1040241EA012141EA014150F8043B33
:10138000121F21BF4B40A3F1013C2CEA030C1CF0BF
:10139000803FF3D0C9B2001F083210F8013B521E43
:1013A00028BF91EA030FF8D818BF0120401E7047EC
:1013B00062B38B0708D0521E11F8013B00F8013BC5
:1013C00000F024808B07F6D1830740F0208000BF17
:1013D000103A07D330B4B1E83810103AA0E838100A
:1013E000F9D230BC530724BFB1E80810A0E80810B8
:1013F00044BF51F8043B40F8043BD20724BF31F806
:10140000022B20F8022B44BF0B7803707047121F89
:1014100017D35B0009D151F8043B20F8023B1B0CA9
:10142000121F20F8023BF6D20BE051F8043B00F803
:10143000013B1B0A20F8023B1B0C121F00F8013B6A
:10144000F3D238BF121D521E24BF11F8013B00F821
:10145000013BF8D870472E0010B5144600F002F892
:10146000226010BDC1F30A5343B14A0012F5001FB8
:1014700028D2A3F2FE32A1EB0251704750EA410C90
:1014800020D001F0004C31EA0C01B1FA81F204BF26
:10149000B0FA80F3D2180B3AB2F120032CBF00FA55
:1014A00003F1914041EA0C013EBFC2F1200C20FA49
:1014B0000CF319439040524240F2FD33D21A01EB33
:1014C00003517047002270474FF4001C1CEB410F82
:1014D00094BF1CEB430F09E041EA030C50EA4C0CAB
:1014E00052EA0C0C03D2994208BF9042704714BFD5
:1014F0008B428242704743004FF4001C1CEB410FAB
:1015000094BF1CEB430F09E041EA030C50EA4C0C7A
:1015100052EA0C0C03D28B4208BF8242704714BFC0
:101520009942904270470000124254D440F2FF7C2E
:101530001CEA11530FD0634531D09B1863453CBF63
:1015400001EB0251704701F0004141EA0C510020CB
:10155000AFF30080704750EA410320D001F0004C07
:1015600091EA0C011CD0B1FA81F30B3B9A420DD9E0
:10157000D21A994051EA0C01C3F1200C20FA0CFC5C
:1015800061449840531C40F2FF7CD7E7914041EA08
:101590000C01C2F1200C20FA0CF319439040704763
:1015A000B0FA80F31533202BE0D3202AEED3203A73
:1015B000203B9A4209D9D21A00FA03F141EA0C0100
:1015C0000020531C40F2FF7CB8E700FA02F141EA28
:1015D0000C0100207047524240F2FF7C1CEA11537C
:1015E0000DD06345DBD0B2EB030C3CBFA1EB025145
:1015F00070470CF1010221EA035141F4801150EAD5
:10160000410CCCD001F0004C352A27DC30B481EA03
:101610000C01B2F1200309DAC2F12003044601FAF9
:1016200003F5D0402843D1409C400CE0C3F1200298
:10163000450020FA03F418BF44F0010421FA03F036
:1016400091400C43002174F1004550F1000051EB32
:101650000C01244230BC7FF47BAF70476146002010
:1016600076E70000C1F30A5340F2FE329B1A14DD04
:10167000D3F120034FEAE17208DDC90241EA50517B
:1016800041F00040D84080185040704703F2E130EC
:1016900010B1D24382F00040704700207047000034
:1016A000C11768B14840401AB0FA80F29040D21C8D
:1016B000C907C2F5846241EA025202EBD02140051B
:1016C0007047000070B44FF0004591EA030F40F1FD
:1016D000A3836B40841A71EB030603D2001BB14154
:1016E000121973414FF4001C1CEB410F34BF7CEB0B
:1016F000430442E00C0DA4EB1356352E4FDC45EAB3
:10170000C323DB0A45EAC121C912B6F120050DDD6C
:1017100063FA05F6EB4086EA0305124218BF45F06E
:101720000105C01851F100010CD213E062FA06F570
:10173000F2405540F3415A40B340F3405A408018BC
:10174000594107D349085FEA30005FEA350528BFF1
:1017500045F0010501F58011420875F1004250F194
:10176000000041EB04514E0016F5001F70BC38BF5D
:1017700070470020090D090570471CEB410F10D27E
:1017800052EA43060BD0BCEB410F05D80C0DAB431E
:10179000661E342EB6DD02E0AB438018594170BCA2
:1017A000704770BC70470000F0B540F2FF7581EAE9
:1017B000030C0CF0004C15EA11541DBF15EA135729
:1017C000AC42AF42E5E0BC41C1F31301C3F31303E4
:1017D000801A994143F4801304D2641E40004941A9
:1017E00080185941C90241EA5051B1FBF3F603FB9D
:1017F0001611A2FB0675D7EBC020A94102D2761EB6
:1018000080185941C90241EA5051B1FBF3FE03FB74
:101810001E11A2FB0E75D7EBC020A94103D2AEF179
:10182000010E80185941890241EA9051760546EA35
:101830008E2EB1FBF3F603FB1611A2FB0675D7EB58
:101840008020A94102D2761E80185941C90241EA7E
:1018500050514EEA060EB1FBF3F603FB1611A2FB44
:101860000675D7EBC020A94102D2761E80185941D7
:10187000C90241EA5051B1FBF3F703FB1711A2FB78
:101880000735D3EBC020A94167F100070CBF004228
:1018900047F0010766F3D5274FEA1E31B80814F563
:1018A000806412DDBD0775F1004250EB0E5051EB24
:1018B000045111F5801F5CBF41EA0C01F0BD4CF0F2
:1018C0007F6141F0E0410020F0BDBD076D0840EAB6
:1018D0000E5041F48011D4F10104B4F120060ADA6B
:1018E000C4F120060200E04001FA06F3E14018438B
:1018F000B24015430EE0342C13DCC6F1200445EA57
:1019000040056D0820FA06F2154321FA06F0A140C1
:101910000D43002175F1004250F1000051EB0C0124
:10192000F0BD00205FEA0C01F0BDCFB992185B4119
:10193000B3FA83F704BFB2FA82F6BF190B3FB7F1CF
:1019400020062FBF02FA06F3BB40C7F1200622FA99
:1019500006F638BF3343BA401CB1E419641E33E7BE
:101960007F4231F00041B1FA81F404BFB0FA80F651
:10197000A4190B3CB4F120062FBF00FA06F1A140D8
:10198000C4F1200620FA06F638BF3143A0403C1BC4
:101990001AE7AC421ABF05EA1357AF4212E050EA09
:1019A00041061CBF52EA4306BFE750EA41073046F2
:1019B00061461CBF41EA0551F0BD52EA430C08BF25
:1019C000C143F0BD00204FF4001616EB410F98BF45
:1019D00016EB430F08BF16EB410F24BFC14305E0D0
:1019E00016EB430F0CBF61464CEA0551F0BD0000F9
:1019F000400D491840EA81200CD2490DA1F58061C3
:101A0000491C40F0004005DBD1F11F0154BFC84024
:101A1000C017704700207047014648B1B0FA80F106
:101A20008840C91CC1F58461090501EBD02140053E
:101A300070470000B0B581EA030C0CF0004C40F296
:101A4000FF7515EA11541DBF15EA1357AC42AF429A
:101A500039E0E41923EA455343F48013C90241F005
:101A6000004141EA505EC7021100A7FB02020028B4
:101A70004FF00000EEFB01204FF00001E3FB0721D7
:101A800018BF42F00102401800214941E3FB0E015A
:101A9000A4F580640F0302D252004041494154F141
:101AA00001046CDD470872F1004250F1000051EB77
:101AB0000451A1F580115CBF41EA0C01B0BD4CEAB4
:101AC00005510020B0BD05EA1357AC4214BFAF4228
:101AD00041E050EA410E1CBF52EA430E02E061466B
:101AE0000020B0BD24423C441BD15FEA070EF6D073
:101AF000090302BF01460020AEF1140EB1FA81F7CE
:101B0000AEEB070401FA07FE0C37C7F1200100FA1B
:101B100007F7C8404EEA000E23EA455343F480130A
:101B2000A2E733F00043B3FA83F704BFB2FA82FEB0
:101B300077440B3FE41BB7F1200E2FBF02FA0EF3E0
:101B4000BB40C7F1200E22FA0EFE38BF43EA0E0357
:101B5000BA40641C82E750EA410E14BF52EA430EB9
:101B60006FF000014FF4001717EB430F8ABF1946BF
:101B700017EB410FB5E74CEA05510020B0BDD4F199
:101B80000104B4F120070FDAC4F12007520828BF7E
:101B900042F0010210FA07F501FA07F7E1BF2A4304
:101BA000E0403843E1400FE0352C98DCC7F12004D9
:101BB00052EA400220FA07F218BF42F0010231FA5D
:101BC00007F0A1400A43002172F1004250F10000E9
:101BD00051EB0C01B0BD80B5FFF72AFB006C02BDD4
:101BE000BBBBE1B1B2F5803F80F07E80022A1ED9F6
:101BF0008C46B1FBF2F102FB11C31B0443EA104314
:101C0000B3FBF2FC02FB1C3380B240EA0343B3FB9C
:101C1000F2F002FB103240EA0C4000237047022A27
:101C200005D98446B0FBF2F002FB10C270474AB1FE
:101C300005D100F0010249085FEA30007047002238
:101C40000023704700F09EB90B0002000021002025
:101C50007047904271EB030CF6D3B3F5803F2FD25F
:101C6000F0B5B3FA83F7B1FA81F4A7F10F0E3D1B7B
:101C70005340CEF1200602FA0EF2F3415340B5F183
:101C80000F0746D80F3C2C444140C4F12006A04029
:101C9000F1414140B1FBF3F603FB1611A2FB0645EF
:101CA000001BA94102D2761E8018594180EA010228
:101CB00021FA0EF362FA0EF200215A403046F0BDCE
:101CC00030B4B1FBF3FC03FB1C11A2FB0C45001B61
:101CD000A94103D2ACF1010C8018594130BC024635
:101CE0000B46604600217047B2F1807F65D3F0B5A6
:101CF000B2FA82F7B1FA81F4C7F10F063D1B22FA5E
:101D000006F307F1110EF24120355A40B5F10F07E5
:101D1000B8D94140C4F12006A040F1414140B1FB97
:101D2000F3FC03FB1C11A2FB0C45001BA94103D2D1
:101D3000BCF1010C801859410F2F12D30F3FC9037A
:101D400041EA5041B1FBF3F603FB1611A2FB064535
:101D5000D4EBC030A94102D2761E8018594146EA20
:101D6000CC3C07B34140C7F12006B840F1414140A7
:101D7000B1FBF3F603FB1611A2FB0645001BA941BC
:101D800002D2761E8018594180EA010221FA0EF330
:101D9000C7F1200462FA0EF20CFA07F05A402CFA4E
:101DA00004F13043F0BD80EA010221FA0EF3002174
:101DB00062FA0EF260465A40F0BD8C46B1FBF2F179
:101DC00002FB11C31B0243EA1063B3FBF2FC02FBEC
:101DD0001C331B024CEA002043EA1063B3FBF2FC05
:101DE00002FB1C331B024CEA002043EA1063B3FBE6
:101DF000F2FC02FB1C331B024CEA002043EA106396
:101E0000B3FBF2FC02FB1C324CEA002000237047BB
:101E1000012000F0B9B80000841A71EB030604D267
:101E20006E40001BB141121973414FF4001C1CEBB2
:101E3000410F34BF7CEB430683E00C0DA4EB13563B
:101E4000362E00F37C80012E45EAC32341DC43EAB1
:101E5000525312BFD20292025B08240545EAC12107
:101E600041EA5051D2EBC020994125D407D1B0FAB4
:101E700080F610FA06F162D00020203608E0B1FAB0
:101E800081F6B140C6F1200220FA02F21143B040BF
:101E90004FEAF474B4EB465434F001064FEA74048C
:101EA0000AD8D6F50016760D04F00044F04061FA29
:101EB00006F25040F1404840C00A40EA415021F04B
:101EC000004128BF5FEA500550F1000044EBD121EA
:101ED00035E0DB0A45EAC121C90AB6F120050EDD6D
:101EE00042EA0242120CC5F1200603FA06F6EB4064
:101EF00042EA06056D42984161F100010DE062FA87
:101F000006F5F240554063FA06FC82EA0C02F34003
:101F10005A406D42904161EB030111F4801F05D1DD
:101F2000641E620502D06D004041494121F48011D8
:101F3000430875F1004350F1000041EB045170BCBF
:101F400070471CEB410F15D223F0004352EA4306C1
:101F50000BD04FEA4C0CBCEB410F04D80C0D661EA5
:101F6000342EB7DDEBE7801A994150EA410608BFED
:101F70000021E4E708BF1CEB430F28BF6FF000010E
:101F8000DDE700007047000080B500F007F8024A66
:101F900011001820ABBEFBE72600020010B500F0D0
:101FA00052F802000023DB4300241068984203D05B
:101FB00011000220ABBE14605068984203D0111D7E
:101FC0000220ABBE546010BDF0B583B0040000F039
:101FD0003AF8A10047183D680026F643B54216D1ED
:101FE00000F01AF83D68B5420FD100BF09A000907B
:101FF000002C01D1002000E0042001900320029079
:1020000069460120ABBE05003D6000F014F82800D1
:1020100003B0F0BD3A7474000C480121BFF35F8F28
:10202000D0E84F3FC0E8421F002AF9D1BFF35F8FCD
:10203000002BF3D170470548BFF35F8F002101707B
:10204000BFF35F8F7047024870470000686100204F
:102050001402002078B585B005000B98002807D140
:10206000502080F31188BFF34F8FBFF36F8FFEE7CF
:102070000C9C002C07D1502080F31188BFF34F8FA8
:10208000BFF36F8FFEE754260096009E542E07D0B4
:10209000502080F31188BFF34F8FBFF36F8FFEE79F
:1020A000002C13D0002811D02063022084F85100A6
:1020B00000200390029404A801900A980090280040
:1020C00000F042F8200000F094F801E000200490B5
:1020D000049806B070BD2DE9F84384B00700884627
:1020E00016009946300080B2800000F035FD0500F2
:1020F000002D0BD0542000F02FFD0400002C01D047
:10210000256304E0280000F0B1FD00E00024002C6D
:1021100015D0002084F851000020039002940D98FF
:1021200001900C9800904B46B6B232004146380000
:1021300000F00AF8200000F05CF8012001E05FF0F8
:10214000FF3005B0BDE8F0832DE9F84305001E001F
:102150000A9F386B00EB8200B0F104085FEAD808F0
:102160005FEAC80818F00700002807D0502080F365
:102170001188BFF34F8FBFF36F8FFEE7002200E09F
:10218000521C102A07D2885C07EB020383F8340044
:10219000885C0028F4D1DDF82090002087F8430007
:1021A000B9F1070F01D35FF00609099CC7F82C901D
:1021B000C7F844900020B864381D00F00CFE17F1F9
:1021C000180000F008FE3F61D9F10709C7F8189020
:1021D0007F620020F864002087F850003200290058
:1021E000404600F035FE3860002C00D02760BDE886
:1021F000F18338B5040000F097FEDFF80815086891
:10220000401C0860DFF800552868002806D12C60C3
:10221000086801280DD100F091FA0AE0DFF81005F6
:102220000068002805D1E06A2968C96A884200D39D
:102230002C60DFF800050168491C0160DFF8F81424
:102240000A680123E06A83401A430A60211DDFF80F
:102250003C25E36A1420434302EB030000F0BEFD7B
:1022600000F07CFEDFF8C804006800280DD0286864
:10227000C06AE16A884208D25FF08050DFF88016B9
:102280000860BFF34F8FBFF36F8F31BD10B50400EF
:102290000020002C14D0DFF8A4050068002807D027
:1022A000502080F31188BFF34F8FBFF36F8FFEE78D
:1022B00000F059F80021200000F0FAFB00F059F876
:1022C000002808D15FF08050DFF834160860BFF3B3
:1022D0004F8FBFF36F8F10BD10B586B000200490F4
:1022E0000020039005AA03A904A800F0BCFEDFF8B3
:1022F00098470498029003980190002000900023D2
:10230000059ADFF888170FF20540FFF7A3FE20605B
:102310002068002801D0012000E00020012817D10A
:10232000502080F31188BFF34F8FBFF36F8F5FF0A2
:10233000FF30DFF8601708600120DFF8F413086051
:102340000020DFF85417086000F0A7FD06B010BDAC
:1023500010F1010FFAD1502080F31188BFF34F8F95
:10236000BFF36F8FFEE7DFF8D4040168491C0160FA
:10237000704770B500240025DFF8C064306800287D
:1023800007D1502080F31188BFF34F8FBFF36F8FB9
:10239000FEE700F0C9FD3068401E3060306800285C
:1023A00055D1DFF860030068002826D14FE0C868E7
:1023B000C46814F1180000F038FD201D00F035FD50
:1023C000DFF874130A680123E06A83401A430A6045
:1023D000211DDFF8B823E36A1420434302EB030016
:1023E00000F0FCFCE06ADFF820130968C96A884243
:1023F00003D30120DFF8B4160860DFF894160868EC
:102400000028D4D1002C01D000F003FADFF88C664C
:102410003468002C0CD000F01EF8002803D00120F6
:10242000DFF888160860641E002CF4D100203060AC
:10243000DFF878060068002809D001255FF0805099
:10244000DFF8BC140860BFF34F8FBFF36F8F00F04D
:1024500085FD280070BDF8B50025DFF8E0030068B1
:10246000002867D1DFF830060468641C0460002C83
:102470001AD1DFF82C1608680068002807D0502011
:1024800080F31188BFF34F8FBFF36F8FFEE70868AB
:10249000DFF8102613680B601060DFF80C06016887
:1024A000491C016000F0B5F9DFF8E8653068844246
:1024B00030D322E0381D00F0B8FCB86A002803D001
:1024C00017F1180000F0B1FCDFF86C120A68012364
:1024D000F86A83401A430A60391DDFF8B022FB6AAC
:1024E0001420434302EB030000F078FCF86A8649AD
:1024F0000968C96A884200D30125DFF8A415086875
:102500000068002812D00868C068C76878688442EC
:10251000D0D230607C480068DFF87012C26A1420A4
:102520004243885802280AD3012508E05FF0FF30B3
:102530003060EFE7DFF864050168491C0160DFF8EF
:102540006C050068002800D001252800F2BDDFF8E6
:10255000EC020068002804D00120DFF85015086064
:102560002AE00020DFF84415086073480068B0FADC
:1025700080F1D1F11F011422844B02FB01F01858A5
:10258000002807D1502080F31188BFF34F8FBFF38D
:102590006F8FFEE7514303EB0100416849684160DA
:1025A000416810F10802914202D1416849684160D6
:1025B0004068C06854490860704710B50C00002896
:1025C00007D1502080F31188BFF34F8FBFF36F8F77
:1025D000FEE7DFF854150968183100F00BFC012103
:1025E000200000F065FA10BD10B5C068C468002C6A
:1025F00007D1502080F31188BFF34F8FBFF36F8F47
:10260000FEE714F1180000F010FC8C480068002868
:1026100013D1201D00F009FC47490A680123E06A34
:1026200083401A430A60211D584AE36A1420434339
:1026300002EB030000F0D2FB05E014F11801DFF813
:10264000500400F0CBFB30480068C06AE16A884261
:1026500005D201200121DFF8D424116000E0002020
:1026600010BDDFF8441409680160DFF8B41409688C
:102670004160704738B504000D00002C07D1502090
:1026800080F31188BFF34F8FBFF36F8FFEE7002DEC
:1026900007D1502080F31188BFF34F8FBFF36F8FA6
:1026A000FEE700F041FCDFF8F00300686168411AC2
:1026B0002A6812F1010F01D1002418E0DFF8E823A5
:1026C000126823689A4204D06268904201D30124C0
:1026D0000DE02868814207D22868411A296020004D
:1026E000FFF7BFFF002402E000202860012400F073
:1026F00035FC200032BD0120DFF83014086070473F
:10270000000000001C6100200C61002080B500F07A
:102710003FF81E4800680228F9D35FF08050DFF8C8
:1027200064130860BFF34F8FBFF36F8FEFE70000B4
:1027300028610020386100202461002038B5002481
:1027400007E01248142101FB04F1084400F034FBB7
:10275000641C072CF5D3DFF8D843200000F02CFBD5
:10276000DFF8D053280000F027FBDFF8240300F047
:1027700023FB154800F020FB8E4800F01DFBDFF81E
:1027800020030460DFF8B003056031BD405B00202A
:1027900038B514E000F0C8FB0B48C068C468201DC1
:1027A00000F043FBDFF87C030168491E01602868E4
:1027B000401E286000F0D2FB200000F009F8034D15
:1027C00028680028E6D131BD78600020186100201B
:1027D00010B5040094F85100002806D1206B00F0D9
:1027E00045FA200000F042FA10BD94F8510001288B
:1027F00003D1200000F03AFAF6E794F851000228DD
:10280000F2D0502080F31188BFF34F8FBFF36F8F4A
:10281000FEE7DFF88C1208680068002805D15FF039
:10282000FF30DFF87012086006E00868C068C06812
:102830004068DFF8601208607047000044610020C3
:10284000DFF8F8020068002801D1012007E0DFF876
:10285000F0020068002801D1022000E0002070474B
:10286000F8B504000021002848D0DFF8BC72E06A07
:102870003A68D26A90423BD2A069002804D43868F2
:10288000C06AD0F10700A061DFF8B8521426606971
:10289000E16A71432944884225D1201D00F0C5FA20
:1028A00000280CD1E06A70432858002807D1DFF8CF
:1028B00098120A680123E06A83409A430A603868E4
:1028C000C06AE062DFF880120A680123E06A834090
:1028D0001A430A60211DE06A06FB00F605EB0600BC
:1028E00000F07CFA02E03868C06AE062012105E08D
:1028F000606C3A68D26A904200D201210800F2BDB1
:1029000004ED00E010B50400002100284FD0DFF8EE
:1029100018020068844207D0502080F31188BFF36A
:102920004F8FBFF36F8FFEE7A06C002807D15020B8
:1029300080F31188BFF34F8FBFF36F8FFEE7A06C5A
:10294000401EA064E06A626C904230D0A06C002807
:102950002DD1201D00F069FA00280FD1DFF8E41115
:10296000E26A142042438858002807D1DFF8D811C2
:102970000A680123E06A83409A430A60606CE0625F
:10298000E06AD0F10700A061DFF8BC110A680123FA
:10299000E06A83401A430A60211DDFF8A821E36A38
:1029A0001420434302EB030000F018FA0121080051
:1029B00010BD00008C60002070B5040001220028CA
:1029C00053D0A06C002807D1502080F31188BFF3AA
:1029D0004F8FBFF36F8FFEE7606C884200D3616C4E
:1029E000E06A884241D0A06C90423ED1DFF83801C5
:1029F0000068844207D1502080F31188BFF34F8FC5
:102A0000BFF36F8FFEE7E06AE162A269002A02D499
:102A1000D1F10701A161DFF82C51142661697043DF
:102A20002844814221D1201D00F0FFF900280CD15B
:102A3000E06A70432858002807D1DFF80C110A68B3
:102A40000123E06A83409A430A60DFF8FC100A68B9
:102A50000123E06A83401A430A60211DE06A06FBF5
:102A600000F605EB060000F0B9F970BDDFF8B8100C
:102A70000868002803D00868826C521C82640868C9
:102A80007047000004ED00E0406100207C8A0008EF
:102A9000646000203C610020206100202C61002047
:102AA000106100201461002034610020306100209A
:102AB000F8B505000C001A4806681B4F3868001D61
:102AC00000F0B3F9002807D138681F490A680123CC
:102AD000C06A83409A430A6015F1010F07D1002CA8
:102AE00005D03868011D194800F078F916E0AD19D5
:102AF00038684560B54206D23868011D0E48006846
:102B000000F078F90AE03868011D1148006800F00B
:102B100071F9104801688D4200D20560F1BD0000D6
:102B2000206100201C6100200C6100203061002029
:102B30003C600020506000201461002028610020CB
:102B400044610020405B0020246100208C60002054
:102B5000106100203C6100202DE9F84304000025AD
:102B6000FFF701FCDFF83492D9F80000002801D10A
:102B700000F0B5F88A4F3868044266D1002C15D0B1
:102B800088480068041914F0070F0FD014F10800EA
:102B900014F00704041B14F0070F07D0502080F333
:102BA0001188BFF34F8FBFF36F8FFEE7002C4CD01F
:102BB000DFF8F481D8F80000A04246D37B4801003A
:102BC000066801E0310036687068A04202D23068C1
:102BD0000028F7D1D9F80000864236D071480A683B
:102BE000036802EB030532680A6000684000716800
:102BF000091B884214D206EB040111F007000028DB
:102C000007D0502080F31188BFF34F8FBFF36F8F31
:102C1000FEE77068001B48607460080000F08EF8E2
:102C2000D8F800107068091AC8F800106048D8F881
:102C300000100268914202D2D8F800100160716859
:102C400038680143716000203060FFF792FB15F097
:102C50000700002807D0502080F31188BFF34F8F62
:102C6000BFF36F8FFEE72800BDE8F28310B50100C7
:102C7000002833D04B480068404201EB000448492B
:102C800060680A68104207D1502080F31188BFF3B2
:102C90004F8FBFF36F8FFEE72068002807D05020CA
:102CA00080F31188BFF34F8FBFF36F8FFEE760682B
:102CB0000A68104212D0206800280FD162680868A4
:102CC00082436260FFF74FFB37490A6860688218E9
:102CD0000A60200000F032F8FFF74BFB10BD10B483
:102CE00044F620623348010011F0070F04D0C91DDB
:102CF000C908C900521A82182C4801600023436099
:102D0000521828480068121AD208D20023480260DC
:102D1000002304686360002304682360521A4A6039
:102D2000006808604868224A106048681E490860C8
:102D30005FF000401A49086010BC704710B41B4A8D
:102D400000E0126811688142FBD3110053681944F6
:102D5000814204D15168406841185160100001005F
:102D6000436819441368994210D10C4913680C68E0
:102D7000A34208D0436811684968CB1843601168C2
:102D80000968016004E00968016001E01168016000
:102D9000824200D0106010BC70470000CC60002060
:102DA000D8600020848A0008D0600020B060002035
:102DB000D46000202002002010F1080141605FF083
:102DC000FF31816010F10801C16010F1080101615B
:102DD00000210160704700210161704742684A602C
:102DE00093688B6093685960916008610168491C21
:102DF0000160704710B40B6813F1010F01D1026933
:102E000007E010F1080200E0526854682468A34209
:102E1000FAD253684B604B6899608A6051600861D0
:102E20000168491C016010BC7047016982684368F1
:102E30009A60426883685A604A68824201D1826817
:102E40004A60002202610868401E086008687047F6
:102E5000001F5FF080730360001F49084900016094
:102E6000001F0FF20D010160143802602038704716
:102E70006248006810F1010F07D0502080F31188DC
:102E8000BFF34F8FBFF36F8FFEE7502080F31188A1
:102E9000BFF34F8FBFF36F8FFEE7E0B5584801785F
:102EA0000191FF21017001788DF800109DF800104C
:102EB00011F05001534A1170534907220A6007E08C
:102EC0000A68521E0A609DF8002052008DF800200A
:102ED0009DF800201206F3D40A68D2F10702042AF2
:102EE00007D0502080F31188BFF34F8FBFF36F8F4F
:102EF000FEE70A6812020A600A6812F4E0620A60D9
:102F0000019901704148016851F470010160016844
:102F100051F07041016000F081F8002037490860ED
:102F200000F02FFA00200EBD502080F31188BFF36F
:102F30004F8FBFF36F8F31490A68521C0A600968CE
:102F400001290AD132490968090606D080F311889F
:102F5000BFF34F8FBFF36F8FFEE7704727490868B5
:102F6000002807D1502080F31188BFF34F8FBFF3A3
:102F70006F8FFEE70868401E08600868002802D1CD
:102F8000002080F31188704780B5502080F31188AD
:102F9000BFF34F8FBFF36F8FFFF75DFA002803D0A9
:102FA0005FF080501A490860002080F3118801BD4D
:102FB000EFF3058010280FD316490968085C114902
:102FC0000978C0B2884207D2502080F31188BFF33D
:102FD0004F8FBFF36F8FFEE70B4800680E490968FB
:102FE00011F4E061884207D2502080F31188BFF3CA
:102FF0004F8FBFF36F8FFEE7704700008C000020FB
:1030000000E400E0656100200461002020ED00E0A4
:1030100004ED00E0888A00080CED00E0084800217B
:1030200001600021074A1160074909684FF47A726C
:10303000B1FBF2F1491E054A11600721016070479A
:1030400010E000E018E000E09800002014E000E04C
:1030500080B59B4800F0A6F99A4800F0A3F99A4879
:1030600000F0A0F901BD994B0360994808608020E9
:103070001060704780B590B09648D0E90023CDE944
:1030800000230121684600F016FA9349086009A858
:1030900092491C22FEF79CF9002109A800F0D1F901
:1030A0008F49086002A88F491C22FEF791F9002180
:1030B00002A800F0C6F98C49086011B000BD70B5D7
:1030C0008A4C032221008A4800F02CFB894800F03A
:1030D0006CFD894D01224FF48041280001F03EFA39
:1030E00001224FF40051280001F038FA01224FF478
:1030F0008051280001F032FA05E000224FF48041AF
:10310000280001F02BFA5FF0FF317348006800F0EF
:10311000F7F96B4E2188300001F052FA6188694856
:1031200001F04EFAA188684801F04AFA300001F037
:1031300076FA010089B2714801F082FA7049088874
:10314000002805D0002008802100300000F047F959
:10315000300000F036F90028CFD101224FF4804131
:10316000280001F0FBF9CEE780B566480021009108
:10317000036803220179002001F076FA01F0C1FA18
:1031800001F0CFFAFCE780B55348006800F0F2F98F
:1031900001BD0020C0B2704710B50A0092B2002AEB
:1031A00000D0491E0024DBB2002B02D0012B4AD0F4
:1031B00081E089B2002911D0022919D013D3042942
:1031C00020D01AD3062927D021D308292ED028D3DE
:1031D0000A2931D02BD30B292FD032E04A49098854
:1031E0000170401C2EE0484949880170401C29E0CC
:1031F000454989880170401C24E04349C988017011
:10320000401C1FE0404909890170401C1AE03E49FA
:1032100049890170401C15E03B4989890170401CB7
:1032200010E03949C9890170401C0BE00AE03749B8
:1032300009780170401C05E004E0324909684170DA
:1032400000E0012438E089B2002916D0012915D008
:10325000022914D0032913D0042912D0052911D032
:10326000062910D007290FD008290ED0092915D01A
:103270000B2914D00F2916D01BE01BE01AE019E02F
:1032800018E017E016E015E014E00178427852EA01
:1032900001220A2042431B4802600BE00AE040780A
:1032A0001849087106E01A4B164807C801F0DCFA05
:1032B00000E0012400E002242000C0B210BD0000A4
:1032C000B05F0020D45F0020F85F00204C5C00203D
:1032D000405800206C8A0008C860002064890008FB
:1032E000C060002080890008C46000204050002099
:1032F000805F0020245E0020000C01404C8A000802
:103300005061002000000020A06000201C0200206E
:10331000007C00080120704701207047EFF309800E
:10332000BFF36F8F1D4B1A6820E9F00F106008B5CE
:103330004FF0500080F31188BFF34F8FBFF36F8FB2
:10334000FFF705F94FF0000080F31188BDE8084051
:1033500019680868B0E8F00F80F30988BFF36F8F31
:1033600070470E4B19680868B0E8F00F80F30988C1
:10337000BFF36F8F4FF0000080F311884EF00D0EF9
:10338000704707480068006880F3088862B661B635
:10339000BFF34F8FBFF36F8F00DF00000C61002081
:1033A00008ED00E010B50400200001F005F9002050
:1033B000E0824FF48050208340F6B830E061200076
:1033C00010BDC18A028A914203D2012180F82010E7
:1033D00002E0002180F8201090F82000704770B5BE
:1033E00004000D000020A08200206082002607E07B
:1033F0002988200001F0E4F8012000F051F8761C43
:10340000E0698642F4D3A08A2083608AE08270BD9E
:10341000010000200A0012B2842A03D009B2C91C9C
:10342000091808007047EFF30580002801D001203B
:1034300000E00020C0B2704780B5FEF74DFF0020CD
:1034400002BD38B584B004000D006069002815D0B5
:10345000A069002812D0B4F90800FFF7D9FFA169CC
:1034600002916169019100902B00226921686068D6
:10347000FEF7F0FD0390039805B030BDB4F90800E5
:10348000FFF7C6FF03A9019100902B00226992B2B9
:1034900021686068FEF71FFE0128ECD00020EBE7F2
:1034A00080B50121B0FBF1F0002800D10120FEF72A
:1034B000EDFE002002BD1CB54268002A0CD0012997
:1034C00008D103210091436800220021012001F06E
:1034D00096FA14E0002012E001290FD10322002106
:1034E000012001F0DFFA0400002C05D000230022A7
:1034F0000021200001F00CFB200000E0002016BDA0
:1035000038B5050000200090002D01D1802028E072
:10351000002411F1010F02D15FF0FF3407E0002910
:1035200005D00120B1FBF0F4002C00D10124FFF7FD
:103530007AFF002816D06A460021280001F0DCFC42
:10354000012801D0FF200CE00098002808D05FF08F
:103550008050DFF874100860BFF34F8FBFF36F8F98
:10356000002032BD2100280001F0F9FB0128F7D02E
:10357000FF20F6E738B50400002500200090FFF793
:1035800052FF002814D06946200001F08CFB01286E
:1035900001D0FF2016E00098002812D05FF0805084
:1035A000DFF824100860BFF34F8FBFF36F8F08E080
:1035B000002300220021200001F0AAFA012800D0F7
:1035C000FF25280032BD000004ED00E0F8B504003E
:1035D0000020002500260027002C01D10120A0E0BA
:1035E000A068002801D0207D0028A06A002807D10B
:1035F0000020E062002084F82400200001F0CFFDCC
:10360000200000F039FAA16AC90600F184800100A7
:10361000C9B2002940F07F80A16A31F4885151F08D
:103620000201A1622168DFF82C24914208D1E169EE
:10363000B1F5402F02D15FF4002102E0E16900E022
:10364000E16962681143227B51EA42010E43A1689D
:10365000B1F5807F02D0A168012902D14FF48071B9
:1036600000E000210D43217D012911D1217B00299A
:1036700006D1A169491E490351F400610D4307E0D9
:10368000A16A51F02001A162E16A51F00101E162F9
:103690002168496831F469410D4321684D60216812
:1036A0008A68DFF8B4130A40324321688A60A1684F
:1036B000B1F5807F02D0A168012902D14FF4807159
:1036C00000E00021B1F5807F02D127697F1E3F0510
:1036D0002168C96A31F470010F432168CF62216803
:1036E0008A68DFF878130A40B24208D10021E1620B
:1036F000A16A31F0020151F00101A16210E0A06A5B
:1037000030F0020050F01000A062E06A50F00100BA
:10371000E062012004E0A06A50F01000A0620120E5
:10372000C0B2F2BD2DE9F04104000D0016000020EA
:10373000DFF834732068B84204D02068DFF8201323
:10374000884205D1DFF81C03006810F4702000E007
:103750000020002840F0978094F82400012801D12F
:10376000022094E0012084F82400200000F03AF9BF
:1037700080464046C0B2002840F08180A16ADFF850
:10378000F002014051F48071A162DFF8D412206888
:10379000884209D1DFF8CC02006810F4702F01D103
:1037A000012002E0002000E0012000280ED0A06AE5
:1037B00030F48010A0622068406840051FD5A06AE0
:1037C00030F4005050F48050A06218E0A06A50F429
:1037D0008010A0622068B84202D02068884205D1DB
:1037E000DFF88002006810F4806000E0002000280C
:1037F00005D0A06A30F4005050F48050A062A06A56
:10380000C00404D5E06A30F00600E06201E0002068
:10381000E062002084F824000FF2A920216A886267
:103820000FF2F120216AC8620FF2F520216A0863C5
:103830007FF00200216808602068806850F4807082
:103840002168886033002A00206810F14C01206A4A
:1038500001F04EFD2068806810F46020B0F5602F04
:1038600006D12068806850F4A000216888600CE0D0
:103870002068806850F480102168886005E000208E
:1038800084F8240001E05FF001084046C0B2BDE8C2
:10389000F08178B40200080000210023009392F820
:1038A0002430012B01D102209AE0012382F8243038
:1038B0004368072B12D213685C6B1F2543685E1E9A
:1038C00005235E43B540AC43056843685E1E05238F
:1038D0005E43B5402C4313685C6329E043680D2BBD
:1038E00012D213681C6B1F254368DE1F05235E433D
:1038F000B540AC4305684368DE1F05235E43B54011
:103900002C4313681C6313E01368DC6A1F254368AB
:10391000B3F10D0605235E43B540AC43056843682B
:10392000B3F10D0605235E43B5402C431368DC62FA
:1039300003680A2B14D31368DC6807250368B3F106
:103940000A0603235E43B540AC4385680368B3F1C0
:103950000A0603235E43B5402C431368DC600FE086
:1039600013681C690725066803235E43B540AC4312
:103970008568066803235E43B5402C4313681C61C9
:103980000368102B02D00368112B24D11368364C26
:10399000A3421BD113689B681B021CD413689B684D
:1039A00053F400031468A3600068102813D12F4853
:1039B0000068304BB0FBF3F30A20434300930098B8
:1039C000002808D00098401E0090F8E7906A50F058
:1039D000200090620121002082F824000800C0B27B
:1039E00072BC704738B504000020002000902068A9
:1039F0008068C0072BD42068806850F001002168DF
:103A000088601A4800681B49B0FBF1F0009002E0A2
:103A10000098401E009000980028F9D101F082FF24
:103A2000050020688068C00711D401F07BFF401BAF
:103A30000328F6D3A06A50F01000A062E06A50F0AC
:103A40000100E062002084F82400012000E0002052
:103A500032BD0000003C0140FDF7E1FFFE0E1FFFFC
:103A60000028014004240140002401409800002067
:103A7000FEF1FFFF40420F0038B50400002020682F
:103A80008068C0071BD52068806840084000216816
:103A9000886001F047FF050020688068C0070ED5E8
:103AA00001F040FF401B0328F6D3A06A50F010003D
:103AB000A062E06A50F00100E062012000E0002016
:103AC00032BD000080B5416A8A6A12F0500F1CD1E5
:103AD000886A50F4007088620868806810F460207A
:103AE000B0F5602F0DD1087B00280AD1886A30F428
:103AF00080708862886AC00403D4886A50F001002C
:103B000088620800FFF73FFB02E0096A096B8847FB
:103B100001BD000080B5406A01F00AFF01BD000050
:103B200080B5406A816A51F040018162C16A51F0FA
:103B30000401C16201F0FDFE01BD000010B50400EA
:103B4000002C01D101202FE094F83D00002805D180
:103B5000002084F83C00200002F07BF8022084F86A
:103B60003D00211D206800F0C6FA012084F84600BF
:103B7000012084F83E00012084F83F00012084F8F1
:103B80004000012084F84100012084F84200012017
:103B900084F84300012084F84400012084F84500A3
:103BA000012084F83D00002010BD90F83D1001294F
:103BB00001D0012039E0022180F83D100168C96878
:103BC00051F001010268D1600168DFF808219142DB
:103BD00017D00168DFF80021914212D00168B1F1DD
:103BE000804F0ED00168DFF8F420914209D00168BF
:103BF000DFF8EC20914204D00168DFF8E820914220
:103C00000CD10168896811F0070106290CD0016800
:103C1000096851F001010068016005E00168096868
:103C200051F0010100680160002070470168C96817
:103C3000490849000268D1600168096A41F211121D
:103C400011420BD10168096A40F24442114205D188
:103C5000016809684908490002681160012180F87B
:103C60003D100020704710B50400002C01D1012048
:103C70002FE094F83D00002805D1002084F83C0096
:103C8000200002F01CF8022084F83D00211D20686D
:103C900000F031FA012084F84600012084F83E004B
:103CA000012084F83F00012084F84000012084F8BE
:103CB0004100012084F84200012084F843000120E3
:103CC00084F84400012084F84500012084F83D0078
:103CD000002010BD002C01400034014000040040D1
:103CE00000080040000C004010B50400002C01D179
:103CF00001202FE094F83D00002805D1002084F831
:103D00003C00200002F042F8022084F83D00211D12
:103D1000206800F0F0F9012084F84600012084F8C2
:103D20003E00012084F83F00012084F8400001207B
:103D300084F84100012084F84200012084F8430007
:103D4000012084F84400012084F84500012084F813
:103D50003D00002010BD10B50400206800698007F8
:103D60001AD52068C068800716D57FF00200216848
:103D70000861012020772068806910F0030F03D0CC
:103D8000200002F004F805E0200002F001F8200015
:103D900001F0FFFF002020772068006940071AD556
:103DA0002068C068400716D57FF0040021680861CC
:103DB000022020772068806910F4407F03D0200023
:103DC00001F0E5FF05E0200001F0E2FF200001F036
:103DD000E0FF002020772068006900071AD52068DE
:103DE000C068000716D57FF008002168086104202C
:103DF00020772068C06910F0030F03D0200001F085
:103E0000C6FF05E0200001F0C3FF200001F0C1FF64
:103E10000020207720680069C0061AD52068C06895
:103E2000C00616D57FF010002168086108202077B1
:103E30002068C06910F4407F03D0200001F0A7FF84
:103E400005E0200001F0A4FF200001F0A2FF002007
:103E5000207720680069C0070AD52068C068C007BD
:103E600006D57FF0010021680861200002F01CF8EF
:103E70002068006900060AD52068C068000606D5DB
:103E80007FF0800021680861200002F01CF82068A3
:103E9000006940060AD52068C068400606D57FF054
:103EA000400021680861200002F00EF820680069D7
:103EB00080060AD52068C068800606D57FF02000FD
:103EC00021680861200002F000F810BD10B5040060
:103ED00094F83C00012801D102201FE0012084F861
:103EE0003C00002A06D0042A08D0082A0AD00C2A4E
:103EF0000CD00FE0206800F043F90BE0206800F0E0
:103F000071F907E0206800F0A4F903E0206800F0F0
:103F1000D6F9FFE7002084F83C00002010BD38B53A
:103F200004000D0094F83C00012801D102206DE04E
:103F3000012084F83C00002A06D0042A1BD0082A5D
:103F400031D00C2A46D05DE02900206800F018F935
:103F50002068806950F008002168886120688069C5
:103F600030F0040021688861206881692869014374
:103F70002068816146E02900206800F033F920685C
:103F8000806950F40060216888612068806930F49D
:103F900080602168886120688069296950EA012071
:103FA000216888612EE02900206800F052F920681D
:103FB000C06950F008002168C8612068C06930F00D
:103FC00004002168C8612068C1692869014320682C
:103FD000C16117E02900206800F071F92068C0690C
:103FE00050F400602168C8612068C06930F48060C6
:103FF0002168C8612068C069296950EA01202168E8
:10400000C861FFE7002084F83C00002032BD10B5F5
:10401000040094F83C00012801D102206AE001204C
:1040200084F83C00022084F83D002068806830F06D
:10403000770030F47F4022689060086800284DD0F7
:1040400010284BD0202849D0302847D040283BD0DA
:10405000502825D060282DD0702807D0B0F5805F7B
:1040600003D0B0F5005F0ED03DE03CE0CB684A687D
:104070008968206800F081F92068806850F0770036
:10408000216888602FE0CB684A688968206800F062
:1040900074F92068806850F480402168886022E0CC
:1040A000CA684968206800F03BF95021206800F098
:1040B0005CF918E0CA684968206800F043F960219B
:1040C000206800F052F90EE0CA684968206800F0E4
:1040D00027F94021206800F048F904E009682068C9
:1040E00000F043F9FFE7012084F83D00002084F848
:1040F0003C00002010BD10B40468DFF81032984274
:1041000011D0DFF80C2290420DD0B0F1804F0AD0D0
:10411000DFF80022904206D0DFF8FC21904202D066
:104120007E4A904203D134F070044A6814439842A6
:104130000ED0774A90420BD0B0F1804F08D0754A2C
:10414000904205D0744A904202D0744A904203D102
:1041500034F44074CA68144334F080044A69144348
:1041600004608A68C2620A688262984202D0684A21
:10417000904201D1096901630121416110BC70477E
:1041800070B4026A520852000262046A4568836988
:1041900033F070039B089B000A68134334F0020459
:1041A0008A681443594EB04202D0594A904205D110
:1041B00034F00804CA68144334F00404B04202D056
:1041C000534A904207D135F4807535F400754A6939
:1041D00015438A69154345608361496841630462F8
:1041E00070BC704770B4026A32F010020262036A57
:1041F0004468826932F4E04232F440720D6852EA57
:10420000052233F020038D6853EA05133F4DA84281
:1042100002D03F4EB04206D133F08003CE6853EA5D
:10422000061333F04003A84202D0394DA84209D109
:1042300034F4806434F400644D6954EA85048D6973
:1042400054EA85044460826149688163036270BCFA
:10425000704770B4026A32F480720262046A456880
:10426000C36933F070039B089B000A68134334F45E
:1042700000748A6854EA0224244A904202D0244EF0
:10428000B04206D134F40064CE6854EA062434F413
:104290008064904202D01E4A904209D135F4805584
:1042A00035F400554A6955EA02158A6955EA02153E
:1042B0004560C3614968C163046270BC704730B433
:1042C000026A32F480520262036A4468C26932F4BC
:1042D000E04232F440720D6852EA052233F4005392
:1042E0008D6853EA0533094DA84202D0084DA84213
:1042F00004D134F480444D6954EA85144460C261A9
:1043000049680164036230BC70470000002C014022
:10431000003401400004004000080040000C004050
:1043200010B4046A036A5B085B000362836933F0BC
:10433000F00353EA021334F00A042143836101625B
:1043400010BC704710B4036A33F010030362836932
:10435000046A33F4704353EA023334F0A00454EA9D
:1043600001148361046210BC7047826832F07002ED
:1043700051F0070111438160704710B4846834F430
:104380007F44114351EA03212143816010BC7047EF
:10439000F8B502000023002514E0DFF8D401066818
:1043A00036EA040404600CE0DFF8C8010668A6439E
:1043B000066048688002F0D5DFF8B401066834432F
:1043C00004605B1C0868D840002800F0C680012605
:1043D0009E400C683440B442F3D1486800282BD08A
:1043E00001281ED0022821D0032833D011281AD04A
:1043F00012281ED0DFF88071B8421DD0DFF87C7122
:10440000B84219D0DFF87871B84215D0DFF874716E
:10441000B84211D05C4FB8420ED05C4FB8420BD0BE
:104420001AE0CD6818E0CD682D1D15E0CD6808357F
:1044300012E0CD680C350FE08868002801D1042512
:1044400007E08868012802D10825166101E00825E7
:10445000566101E00025FFE7B4F5807F01D2170027
:1044600000E0171DB4F5807F02D25FEA830C03E001
:10447000B3F1080C5FEA8C0C0F26D7F800E016FAAF
:104480000CF03EEA000E15FA0CFC5CEA0E0CC7F8C4
:1044900000C04868C00094D53D48076857F0010740
:1044A0000760006810F0010000900098394F180074
:1044B000800857F820C013F00300C0B28000864087
:1044C0003CEA060C3448824201D1002619E0334808
:1044D000824201D1012614E03148824201D10226F4
:1044E0000FE03048824201D103260AE02E48824282
:1044F00001D1042605E02D48824201D1052600E0C5
:10450000062613F00300C0B28000864056EA0C0C69
:104510001800800847F820C04868C00304D5244824
:1045200006682643066003E021480668A643066045
:104530004868800304D51F4806682643066003E0E8
:104540001C480668A64306604868C0027FF52CAF89
:1045500008480668264306602BE7F1BDD2B2002A60
:1045600002D089B2016102E089B209040161704799
:104570000C0401400804014000001110000012105A
:104580000000211000002210000031100000321045
:10459000181002400800014000080140000C0140D2
:1045A000001001400014014000180140001C0140AF
:1045B000000401400404014080B500F032F802BD5F
:1045C00010B4C1810022002305E01900C9B230F8FF
:1045D00011108A185B1C1900C9B20829F5DBD20832
:1045E000002109E00B00DBB200EB43035B880C0009
:1045F000E4B220F81430491C0B00DBB2082BF1DBCD
:104600000282818A028A914201D2018A8182018AD0
:10461000428A914201D2018A418210BC7047008ACD
:10462000704710B504002000102101F04FFC00205D
:104630002082002060820020A082200010BD0000A7
:104640000EB4C0B5024603A800210190009101AB51
:104650000121044878440C30FBF76AFD06BC5DF884
:1046600010FB00BF8943000070B5050014001A005C
:1046700000200800C0B2002807D00800C0B20028FF
:1046800003D00800C0B2F82801DB022436E05E4EF9
:1046900031702800C0B2002820D1049B5B485C49DF
:1046A00008605C485C4908605C485D4908605D489A
:1046B0005D49086000205D4908605D485D4908600B
:1046C0005D485E4908605E485E490860DBB22100D3
:1046D000C9B2307801F0FEFB040000E002242000A3
:1046E000C0B200280AD101F057FD002801D10324EF
:1046F00004E0554805700120544908702000C0B2FC
:1047000070BD38B50024514D2878012805D14048A6
:10471000006880470020287000E006242000C0B216
:1047200032BD7CB5002049480078002801D0062021
:1047300068E0684601F03CFD012862D19DF8000068
:10474000002805D002281AD003D3032859D058E0F6
:1047500057E0404C404A41492000334B1B68984782
:10476000C0B200280AD1207827490978884202D0AF
:104770002078002802D1022001F013FD41E0384CDE
:10478000364D286800782070364E012030700022A7
:1047900005E013F832002178884208D0521C102A14
:1047A0000CDA2B4B13F832000028F2D106E02A492C
:1047B000286803EBC20252689047307025480078A1
:1047C00000281DD03078002812D023480021018015
:1047D000217851F080012A680388D1540188491C4E
:1047E000018031782A680388D1540188491C0180EE
:1047F00019480288296804480078094B1B689847C3
:10480000FFE7002076BD00005E6100201B5F00080E
:10481000E0600020355F0008E4600020B35F00081E
:10482000DC600020495F0008E8600020EC600020A8
:1048300013600008F06000209D600008F460002014
:104840000B610008F86000205F6100201D0200205D
:104850000C0000206061002052610020FC600020FC
:104860006161002062610020F7B51C0003266F46DD
:1048700000F047F8200000F02FF800250AE028009B
:10488000C0B257F820102800C0B214EB800000F02E
:1048900044F86D1C2800C0B2B042F0D300F037F8E5
:1048A000F7BD30B40322002308E01C00A4B251F885
:1048B00024401D00ADB240F825405B1C1C00A4B292
:1048C0009442F2D330BC70472248006810F00100D7
:1048D00090F00100C0B2704710B51F4C216851F034
:1048E000020121601D490860206850F040002060EE
:1048F000FFF7EAFF0028FBD0206830F002002060BC
:1049000010BD1748174901601749016070471248E8
:10491000016851F080010160704770B504000D001E
:104920000D4E306850F001003060FFF7CDFF0028D9
:10493000FBD02580FFF7C8FF0028FBD0A41C2D0C5E
:104940002580FFF7C1FF0028FBD0306840084000F9
:10495000306070BD0C200240102002401420024044
:104960000420024023016745AB89EFCD38B5040030
:104970000D00002C07D1502080F31188BFF34F8F1A
:10498000BFF36F8FFEE7FEF7CFFA2168E26B206C72
:10499000424301EB020060600020A0632068A06039
:1049A0002168E26B521E206C424301EB0200E06082
:1049B0005FF0FF3084F8440084F84500002D12D1E8
:1049C0002069002817D014F11000FDF70DFE002813
:1049D00011D05FF08050DFF81C150860BFF34F8FD7
:1049E000BFF36F8F07E014F11000FEF7E5F914F143
:1049F0002400FEF7E1F9FEF7B1FA012032BD38B527
:104A00001C00002807D1502080F31188BFF34F8F7E
:104A1000BFF36F8FFEE7002C07D1502080F3118881
:104A2000BFF34F8FBFF36F8FFEE7002A01D000293D
:104A300001D0012300E00023DBB2002B07D150207E
:104A400080F31188BFF34F8FBFF36F8FFEE7002A0B
:104A500001D1002901D1012300E00023DBB2002BAA
:104A600007D1502080F31188BFF34F8FBFF36F8FB2
:104A7000FEE748230093009B482B07D0502080F38B
:104A80001188BFF34F8FBFF36F8FFEE7002C07D065
:104A9000049B012584F846500094DBB200F02AF80C
:104AA000200032BDF8B506000D001700002E07D11A
:104AB000502080F31188BFF34F8FBFF36F8FFEE755
:104AC000002D01D1002001E005FB06F04830FEF783
:104AD00043F80400002C0BD014F14802002084F8A5
:104AE000460000943B00DBB22900300000F002F8E1
:104AF0002000F2BD80B5029B002901D11B6000E0BF
:104B00001A60D863196401211800FFF72FFF01BD57
:104B1000F7B505000E001F000024002D07D150201E
:104B200080F31188BFF34F8FBFF36F8FFEE7002E26
:104B300002D1286C002801D1012000E00020C0B281
:104B4000002807D1502080F31188BFF34F8FBFF3A7
:104B50006F8FFEE7022F02D1E86B012801D10120FF
:104B600000E00020C0B2002807D1502080F3118857
:104B7000BFF34F8FBFF36F8FFEE7FDF761FE002895
:104B800002D10298002801D1012000E00020C0B22B
:104B9000002838D1502080F31188BFF34F8FBFF326
:104BA0006F8FFEE7029800285CD0002C03D1684686
:104BB000FDF757FD0124FEF7D1F9FDF7D4FBFEF711
:104BC000B3F995F9440010F1010F02D1002085F8E6
:104BD000440095F9450010F1010F02D1002085F83D
:104BE0004500FEF7BBF902A96846FDF743FD002822
:104BF00052D1280000F07EFA002837D1280000F0BA
:104C000034FAFDF7B6FBFEF78FF9A86BE96B884223
:104C100001D3022FC6D13A003100280000F0CDF9AF
:104C2000696A00290FD015F12400FDF7DDFC00288A
:104C300014D05FF08050DFF8BC120860BFF34F8FD4
:104C4000BFF36F8F0AE0002808D05FF08050DFF8D4
:104C5000A4120860BFF34F8FBFF36F8FFEF77EF98A
:104C600001201FE0FEF77AF900201BE0029915F100
:104C70001000FDF7A2FC280000F0F7F9FDF779FB22
:104C80000028C0D15FF08050DFF868120860BFF3E1
:104C90004F8FBFF36F8FB6E7280000F0E6F9FDF7FE
:104CA00068FB0020FEBD70B505000C00002D07D18B
:104CB000502080F31188BFF34F8FBFF36F8FFEE753
:104CC000286C002807D0502080F31188BFF34F8F45
:104CD000BFF36F8FFEE72868002802D168680028BC
:104CE00001D1012000E00020C0B2002807D15020EF
:104CF00080F31188BFF34F8FBFF36F8FFEE7FEF78E
:104D000057F9EFF31186502080F31188BFF34F8FCE
:104D1000BFF36F8FA86BE96B88421CD295F94510E1
:104D2000401CA86308005FF0FF3240B290420DD1F2
:104D3000686A00280DD015F12400FDF755FC002805
:104D400007D0002C05D00120206002E0491C85F826
:104D50004510012000E0002086F3118870BD73B576
:104D600082B0060000240025002E07D1502080F3D9
:104D70001188BFF34F8FBFF36F8FFEE7306C0028B1
:104D800007D0502080F31188BFF34F8FBFF36F8F90
:104D9000FEE7FDF755FD002802D10398002801D158
:104DA000012000E00020C0B200280CD1502080F388
:104DB0001188BFF34F8FBFF36F8FFEE7300000F015
:104DC00054F9FDF7D6FAFEF7AFF8B06B00280CD116
:104DD000039800282AD1002D24D0502080F3118878
:104DE000BFF34F8FBFF36F8FFEE7401EB063306895
:104DF000002802D1FDF73AFE7060306900280DD01E
:104E000016F11000FDF7F0FB002807D05FF080508E
:104E100038490860BFF34F8FBFF36F8FFEF79EF8DE
:104E2000012065E0FEF79AF8002061E0002C03D134
:104E30006846FDF716FC0124FEF790F8FDF793FA9B
:104E4000FEF772F896F9440010F1010F02D100202C
:104E500086F8440096F9450010F1010F02D10020B8
:104E600086F84500FEF77AF803A96846FDF702FCCC
:104E7000002824D1300000F02FF900289ED030689F
:104E8000002807D1FEF750F87068FDF7E9FC05002F
:104E9000FEF764F8039916F12400FDF78EFB30004D
:104EA00000F0E3F8FDF765FA00288CD15FF0805040
:104EB00010490860BFF34F8FBFF36F8F83E7300057
:104EC00000F0D3F8FDF755FA300000F005F900289E
:104ED0003FF479AF002D0AD0FEF726F8300000F03D
:104EE00062F801007068FDF767FDFEF737F80020F3
:104EF00004B070BD04ED00E02DE9F84305000E009C
:104F00001400002D07D1502080F31188BFF34F8F7C
:104F1000BFF36F8FFEE7002E02D1286C002801D16D
:104F2000012000E00020C0B2002807D1502080F30B
:104F30001188BFF34F8FBFF36F8FFEE7FEF738F88E
:104F4000EFF31188502080F31188BFF34F8FBFF328
:104F50006F8FAF6B002F21D095F94490310028005E
:104F600000F06EF87F1EAF6348465FF0FF3140B23D
:104F700088420DD1286900280ED015F11000FDF7E8
:104F800033FB002808D0002C06D00120206003E06D
:104F900019F1010985F84490012000E0002088F310
:104FA0001188BDE8F283416A002904D0006B0068D3
:104FB000D0F1070000E0002070472DE9F041060025
:104FC00015000027B46B306C002809D13068002828
:104FD00031D17068FDF796FC0700002070602AE070
:104FE000002D0FD1326CB5682800FCF7E1F9B068EC
:104FF000316C0844B060B068716888421BD3306877
:10500000B06018E0326CD6F80C804046FCF7D0F95E
:10501000F068316C49420844F060F06831688842B9
:1050200004D27068316C49420844F060022D02D10C
:10503000002C00D0641E641CB4633800BDE8F0810D
:1050400010B50C00016C00290ED0C168026C11442F
:10505000C160C1684268914201D30168C160026CBD
:10506000C1682000FCF7A4F910BD70B50400FDF77D
:105070005BFF94F9455008E014F12400FDF7B4FA01
:10508000002801D0FDF737FB6D1E280040B2012833
:1050900002DB606A0028EFD15FF0FF3584F84550ED
:1050A000FDF75CFFFDF740FF94F9446008E014F160
:1050B0001000FDF799FA002801D0FDF71CFB761EC1
:1050C000300040B2012802DB20690028EFD184F8CB
:1050D0004450FDF743FF70BD10B50400FDF724FFF9
:1050E000A06B002801D1012400E00024FDF736FF69
:1050F000200010BD10B50400FDF716FFA06BE16B9A
:10510000884201D1012400E00024FDF727FF2000A0
:1051100010BD00001FB50C220021684601F05AF8AE
:105120004A4C4B4820604FF48070A06000202073F0
:10513000002020755FF40020E06100206060032003
:1051400020612000FEF742FA002801D000F0BAFEEC
:10515000072000900120019006200290694620005F
:10516000FEF797FB002801D000F0ACFE0E20009067
:105170000220019069462000FEF78BFB002801D039
:1051800000F0A0FE0F20009003200190694620004F
:10519000FEF77FFB002801D000F094FE1FBD30B564
:1051A00085B004001022002101A801F013F8206846
:1051B0002749884247D12748016851F400710160AE
:1051C000016811F4007100910099016851F0040127
:1051D0000160016811F0040100910099016851F02B
:1051E00010010160006810F010000090009880200D
:1051F00001900320029001A91748FFF7C9F8302059
:1052000001900320029001A91448FFF7C1F8144D42
:1052100014482860002068600020A8608020E860B2
:105220004FF4807028614FF4806068612020A8618D
:105230000020E861280000F017F8002801D000F0F5
:1052400041FE25626C6205B030BD0000805F002029
:1052500000240140181002400008014000100140E5
:10526000FC5E0020080002400021002801D101203E
:105270003DE00168DFF8B42291420CD20268DFF809
:10528000B0128A181421B2FBF1F189000164DFF831
:10529000A412C1630BE00268DFF89C128A18142183
:1052A000B2FBF1F189000164DFF89012C1630221C1
:1052B00080F8211001680A686FF30D124368816855
:1052C0000B43C1680B4301690B4341690B4381697F
:1052D0000B43C1690B431A4301680A6000218163D3
:1052E000012180F82110002180F820100020704753
:1052F00070B50400002594F82000012801D1022097
:1053000037E0012084F8200094F8210001282AD1F8
:10531000022084F821000020A06320680068400873
:10532000400026683060200000F0E6FAE06A0028BD
:1053300006D02068006850F00E00216808600BE07D
:105340002068006830F00400216808602068006868
:1053500050F00A00216808602068006850F00100E1
:105360002168086003E0002084F82000022528005E
:10537000C0B270BD10B5002490F82110022903D0EE
:10538000042181630124CEE00168096831F00E0137
:1053900002681160016809684908490002681160E3
:1053A0000168DFF89C21914259D30168DFF894210C
:1053B000914201D101214EE00168DFF88C21914238
:1053C00001D1102147E00168DFF88021914202D12C
:1053D0004FF480713FE00168DFF87421914202D1FF
:1053E0004FF4805137E00168DFF86821914202D123
:1053F0005FF480312FE00168DFF85C21914202D137
:105400005FF4801127E00168DFF85021914202D15A
:105410005FF080711FE00168DFF81021914201D137
:10542000012118E00168DFF83821914201D11021F3
:1054300011E00168DFF82C21914202D14FF4807114
:1054400009E00168DFF82021914202D14FF4805138
:1054500001E05FF48031DFF81421116058E0016849
:10546000DFF8E020914201D101214EE00168DFF830
:10547000D820914201D1102147E00168DFF8CC200B
:10548000914202D14FF480713FE00168DFF8C02003
:10549000914202D14FF4805137E00168DFF8B42027
:1054A000914202D15FF480312FE00168DFF8A8203B
:1054B000914202D15FF4801127E00168DFF89C205F
:1054C000914202D15FF080711FE00168DFF85C203B
:1054D000914201D1012118E00168DFF88420914256
:1054E00001D1102111E00168DFF87820914202D14A
:1054F0004FF4807109E00168DFF86C20914202D11D
:105500004FF4805101E05FF48031DFF8B423116083
:10551000012180F82110002180F82010416B002922
:1055200001D0416B88472000C0B210BD0804024082
:10553000F8FFFDBF00000240F8FBFDBF0004024081
:1055400081000240080002401C000240300002407E
:1055500044000240580002406C00024080000240BB
:105560001C0402403004024044040240040402408F
:1055700010B5C16B0A6801680B680424016C8C408B
:10558000224200F0BE80590740F1BB8001680968E3
:10559000890605D40168096831F0040102681160C8
:1055A0000168DFF82023914257D30168DFF8182300
:1055B000914201D104214DE00168DFF810239142AE
:1055C00001D1402146E00168DFF80423914202D175
:1055D0004FF480613EE00168DFF8F822914202D189
:1055E0004FF4804136E00168DFF8EC22914202D1AD
:1055F0005FF480212EE00168DFF8E022914202D1C1
:105600005FF4800126E00168DFF8D422914202D1E4
:105610005FF080611EE00168DFF8C822914201D18D
:10562000042117E00168DFF8C022914201D1402136
:1056300010E00168DFF8B422914202D14FF480619A
:1056400008E00168AA4A914202D14FF4804101E08A
:105650005FF48021A74A11604CE001689A4A9142A8
:1056600001D1042144E00168984A914201D14021CE
:105670003EE00168964A914202D14FF4806137E0E2
:105680000168944A914202D14FF4804130E00168B0
:10569000914A914202D15FF4802129E001688F4A4A
:1056A000914202D15FF4800122E001688C4A91426C
:1056B00002D15FF080611BE001688A4A914201D10A
:1056C000042115E00168884A914201D140210FE090
:1056D0000168864A914202D14FF4806108E0016876
:1056E000834A914202D14FF4804101E05FF480216E
:1056F000734A1160C16A002900F0E080C16A8847DE
:10570000DCE00224016C8C40224200F0B880990752
:1057100040F1B58001680968890608D40168096804
:1057200031F00A0102681160012180F8211001683E
:10573000644A91424DD30168634A914201D10221EA
:1057400044E00168614A914201D120213EE00168B4
:105750005F4A914202D14FF4007137E001685D4A1F
:10576000914202D14FF4005130E001685A4A91420F
:1057700002D15FF4003129E00168584A914202D118
:105780005FF4001122E00168554A914202D15FF0B6
:1057900000711BE00168534A914201D1022115E0DA
:1057A0000168514A914201D120210FE001684F4A1E
:1057B000914202D14FF4007108E001684C4A9142D5
:1057C00002D14FF4005101E05FF40031494A116009
:1057D0004CE001683C4A914201D1022144E0016859
:1057E0003A4A914201D120213EE00168384A914273
:1057F00002D14FF4007137E00168364A914202D17C
:105800004FF4005130E00168334A914202D15FF415
:10581000003129E00168314A914202D15FF4001160
:1058200022E001682E4A914202D15FF000711BE034
:1058300001682C4A914201D1022115E001682A4AEF
:10584000914201D120210FE00168284A914202D102
:105850004FF4007108E00168254A914202D14FF4EB
:10586000005101E05FF40031154A1160002180F819
:105870002010816A002921D0816A88471EE008240F
:10588000016C8C40224219D0190717D501680968AC
:1058900031F00E01026811600122016C8A40C16B77
:1058A0004A6001218163012180F82110002180F8E4
:1058B0002010016B002901D0016B884710BD00004A
:1058C0000400024081000240080002401C00024027
:1058D0003000024044000240580002406C00024088
:1058E00080000240080402401C04024030040240D0
:1058F000440402400404024030B40125046CA54075
:10590000C46B6560046863604368102B04D103684E
:105910009A600068C16003E0036899600068C26033
:1059200030BC704701480068704700BF0861002024
:105930007047704718B595B01022002111A800F0EB
:1059400049FC08220021684600F044FC1C2200218A
:1059500002A800F03FFC2022002109A800F03AFC38
:10596000DFF8F843DFF8F8032060002060600020D3
:10597000A0600020E0600020206100206061002025
:10598000A0612000FEF7DAF8002801D000F09AFAB2
:105990004FF48050119011A92000FEF738FB002829
:1059A00001D000F08FFA2000FEF79EF9002801D008
:1059B00000F088FA00200090002001906946200045
:1059C00000F012FC002801D000F07CFA6020029068
:1059D00000200390002004900020059000200690F5
:1059E0000020079000200890002202A92000FEF766
:1059F00096FA002801D000F065FA042202A92000DE
:105A0000FEF78DFA002801D000F05CFA082202A906
:105A10002000FEF784FA002801D000F053FA0C228F
:105A200002A92000FEF77BFA002801D000F04AFA14
:105A30000020099000200A9000200B9000200C907C
:105A400000200D904FF400500E900020109009A9F6
:105A5000200000F011FC002801D000F033FA2000F3
:105A600000F03EF916B010BD18B589B0082200212B
:105A7000684600F0AFFB1C22002102A800F0AAFB40
:105A8000B84CB9482060472060600020A06040F218
:105A9000CF70E060002020610020A0612000FEF7B0
:105AA000E2F8002801D000F00DFA2020009000203C
:105AB00001906946200000F097FB002801D000F01B
:105AC00001FA0020029000200390002004900020A2
:105AD0000690002202A92000FEF7F8F9002801D064
