:020000040800F2
:1000000010150020DD010008471500081112000836
:10001000451500086D020008E51800080000000002
:100020000000000000000000000000004501000882
:100030006F02000800000000890100085115000847
:10004000F7010008F7010008F7010008F7010008B0
:10005000F7010008F7010008F7010008F7010008A0
:10006000F7010008F7010008F7010008F701000890
:10007000F7010008F7010008F7010008F701000880
:10008000F7010008F7010008F7010008F701000870
:10009000F7010008F7010008F7010008F701000860
:1000A000F7010008F7010008F7010008F701000850
:1000B000F7010008F7010008F7010008F701000840
:1000C000F7010008F7010008F7010008F701000830
:1000D000F7010008F7010008F7010008F701000820
:1000E000F7010008F7010008F7010008F701000810
:1000F000F7010008F7010008F7010008F701000800
:10010000F7010008F7010008F7010008F7010008EF
:10011000F7010008F7010008F701000811160008B0
:10012000F7010008F7010008F7010008F7010008CF
:10013000DFF80CD000F088F80048004725190008C7
:1001400010150020224B19680868B0E8F00F80F302
:100150000988BFF36F8F4FF0000080F311884EF0D5
:100160000D0E70470000000006480068006880F32C
:10017000088862B661B6BFF34F8FBFF36F8F00DFA1
:1001800000BF00BF08ED00E0EFF30980BFF36F8F01
:100190000F4B1A6820E9F00F106008B54FF05000BF
:1001A00080F31188BFF34F8FBFF36F8F01F052FFC1
:1001B0004FF0000080F31188BDE808401968086816
:1001C000B0E8F00F80F30988BFF36F8F704700BF6E
:1001D00014000020EFF305807047000006488047B8
:1001E00006480047FEE7FEE7FEE7FEE7FEE7FEE71C
:1001F000FEE7FEE7FEE7FEE7C9150008310100084B
:1002000040EA01039B0703D009E008C9121F08C098
:10021000042AFAD203E011F8013B00F8013B521E18
:10022000F9D27047D2B201E000F8012B491EFBD28F
:1002300070470022F6E710B513460A4604461946F1
:10024000FFF7F0FF204610BD064C074D06E0E068C2
:1002500040F0010394E8070098471034AC42F6D30D
:10026000FFF76AFFD4230008F4230008FEE7704775
:10027000704700002DE9F84FDFF8C891002409F11C
:10028000040A0AF1040B23460F270BF1040ED1E0F8
:100290000125A54006EA0502AA4276D1DFF8A8C1E9
:1002A0004E68A6EB0C0866452BD00DDC032E34D02F
:1002B00005DC36B3012E19D0022E2FD11BE0112EF2
:1002C00016D0122E2AD119E0B8F5881F19D006DCF5
:1002D000B8F5803F15D0B8F5801F1FD111E0B8F5F3
:1002E000001F0ED0B8F5041F18D10AE0CB6815E046
:1002F000CB681B1D12E0CB6808330FE0CB680C33D2
:100300000CE08B682BB1012B4FF0080303D0456143
:1003100004E0042302E0056100E00023FF2A01D885
:10032000064601E000F104064FEA840501D9A5F173
:100330002005D6F8008007FA05FC28EA0C0803FA25
:1003400005F548EA0508C6F800804D68ED0070D54F
:100350003E4DAE6946F00106AE61AD6924F003067C
:1003600005F0010500953A4D06EB050CDCF8085048
:10037000A607360F07FA06F825EA0805DFF8D48045
:10038000404503D14FF0000825E052E0DFF8C88077
:10039000404502D14FF001081DE0DFF8C080404524
:1003A00002D14FF0020816E0DFF8B480404502D1D8
:1003B0004FF003080FE0DFF8AC80404502D14FF06A
:1003C000040808E0DFF8A080404502D14FF005089E
:1003D00001E04FF0060808FA06F848EA0508CCF8EC
:1003E00008804D68D9F80060ED034D4601D51643ED
:1003F00000E096432E604D68DAF80060AD03554684
:1004000001D5164300E096432E604D68DBF800608E
:10041000ED025D4601D5164300E096432E604D681F
:10042000DEF80060AD02754601D5164300E0964344
:100430002E60641C0A681646E2407FF429AFBDE8CE
:10044000F88F00000004014000001110001002406D
:100450000000014000080140000C01400010014074
:100460000014014000180140001C01400AB1016164
:1004700070470904FBE700000148806870470000EE
:100480000400002070B504001BD094F83D00002546
:1004900020B984F83C50204600F0AEF8242084F8BF
:1004A0003D002068016821F00101016000F040FA80
:1004B0004D4A6168914201D84C4900E04C4988425C
:1004C00001D2012070BD4B492368B0FBF1F15E6899
:1004D00026F03F060E435E606368934206D94FF4F0
:1004E000967359434FF47A73B1FBF3F12368491CB7
:1004F0001E6A26F03F06314319626168914210D8A6
:100500004900401EB0FBF1F2521CC2F30B02042A58
:1005100001D2042022E0B0FBF1F0401CC0F30B003C
:100520001CE0A368F3B301EBC10202EB0116421E0B
:10053000B2FBF6F2521C42F48042120549D093B34A
:1005400001EBC10202EB0111401EB0FBF1F0401CB7
:10055000C0F30B0040F4804040F400402168CA69B9
:100560004CF6FF739A431043C861D4E9070108436E
:1005700021680A6822F0C00210430860D4E9030130
:1005800001432068826848F2FF339A431143816037
:10059000D4E9050108432168CA6822F0FF0210432C
:1005A000C86001E00EE016E02068016841F001013A
:1005B00001602564202084F83D00256384F83E50C6
:1005C000002070BD01EB4106421EB2FBF6F2521C48
:1005D000B3E70120C2E701EB4101401EB0FBF1F09F
:1005E000401CC0F30B00B7E7A086010080841E000A
:1005F00000093D0040420F0010B586B00021009177
:1006000001910291039100680F4988421AD10F4C61
:10061000A06940F00800A061A069694600F00800E8
:100620000490C020009012200190032003900848FD
:10063000FFF720FEE06940F40010E061E06900F49B
:100640000010049006B010BD00540040001002409D
:10065000000C0140024881680278114481607047B3
:1006600004000020074810B5016841F01001016046
:10067000032000F095F8002000F006F800F03EF8A6
:10068000002010BD0020024000B5014687B00022C6
:10069000372000F065F8372000F054F81348C1699E
:1006A00041F02001C161C06905A900F02000069059
:1006B000684600F01DF900F03BF90D494000B0FB21
:1006C000F1F10D480B4A491E0260416040F2E732E9
:1006D0000021C0E90321816000F061FB10B101201D
:1006E00007B000BD044800F076FBF9E700100240B7
:1006F00040420F0000140040DC0300200F4808B502
:10070000816941F001018161816901F0010100917C
:10071000C16941F08051C161C069002200F0805080
:1007200000900F21901E00F01BF80548416821F051
:10073000E06141F00071416008BD0000001002401E
:1007400000000140002809DB00F01F020121914058
:100750004009800000F1E020C0F80011704700005F
:10076000F0B40E4B1B680C46C3F30223C3F107051C
:10077000042D00D90425191D072901D2002300E00A
:10078000DB1E012606FA05F1491E214099409E40D4
:10079000761E16403143F0BC01F0A5B80CED00E028
:1007A000064900F0070208684FF6FF03184040EAC8
:1007B0000220034A10430860704700000CED00E07F
:1007C0000000FA052DE9F0470F46050061D0434EC1
:1007D000306800F00700B84209D2306820F0070006
:1007E00038433060306800F00700B84251D12868C3
:1007F0003B4C810712D5400703D5606840F4E060A8
:1008000060602878000703D5606840F4605060603D
:100810006068A96820F0F000084360602878C0078D
:1008200028D06868012810D02168022810D08907D4
:1008300000292EDA616821F0030101436160FFF7AE
:100840001BFE804641F288390DE021688903EFE7FD
:100850008901EDE7FFF710FEA0EB0801494502D939
:100860000320BDE8F0876068696800F00C00B0EB19
:10087000810FEFD1306800F00700B8420BD9306823
:1008800020F0070038433060306800F00700B842BD
:1008900001D00120E5E72878400705D56068E968C0
:1008A00020F4E060084360602878000706D560689F
:1008B000296920F4605040EAC100606000F058F8F7
:1008C0006168084AC1F30311515CC84006490860D9
:1008D00006480068FFF7D8FE0020C2E7002002406B
:1008E00000100240B0230008100000200800002083
:1008F0000F2202600C4A536803F0030343605368FD
:1009000003F0F0038360536803F4E063C36052684C
:100910004FF4E06303EAD20202610448006800F089
:1009200007000860704700000010024000200240ED
:100930000448054900684968044AC1F30221515C32
:10094000C84070471000002000100240C02300087B
:100950000448054900684968044AC1F3C221515C52
:10096000C84070471000002000100240C02300085B
:1009700013A185B00FC98DE80F0015A0154A0068B6
:100980000490516801F00C00042804D0082804D019
:10099000114805B070471148FBE7C1F38343C90311
:1009A0001DF8030009D5516804AAC1F34041515C08
:1009B0000A4A5043B0FBF1F0EBE709494843E8E746
:1009C00002030405060708090A0B0C0D0E0F101090
:1009D000010200000010024000127A00001BB70064
:1009E00000093D002DE9F84F040070D02078C04D7B
:1009F000C00749D06868C0F38100012807D0686843
:100A0000C0F38100022809D16868C00306D52868B0
:100A1000800339D560680028E7D035E06068B0F51C
:100A2000803F0BD010B1B0F5A02F11D0286820F472
:100A300080302860286820F4802002E0286840F494
:100A400080302860606890B1FFF716FD06460AE026
:100A5000286840F480202860F0E700BFFFF70CFD15
:100A6000801B642873D828688003F7D50CE0FFF753
:100A700003FD064605E000BFFFF7FEFC801B64286F
:100A8000F0D828688003F7D420789A4E80074FF07A
:100A900001094FF0000839D5686810F00C0F07D035
:100AA0006868C0F38100022809D16868C00306D4D1
:100AB0002868800714D52069012808D110E0206932
:100AC000B0B1C6F80090FFF7D7FC074605E00AE191
:100AD000FFF7D2FCC01B0228C4D828688007F7D5CE
:100AE0002868616920F0F80040EAC10028600DE044
:100AF000C6F80080FFF7C0FC074604E0FFF7BCFC27
:100B0000C01B022823D828688007F7D42078000764
:100B10002CD57948A169D9B1C0F80090FFF7ACFC99
:100B2000074604E0FFF7A8FCC01B02280FD8686A3C
:100B30008007F7D571484FF4FA510068B0FBF1F027
:100B4000009000BF0098411E0091FAD20EE080E0B4
:100B5000C0F80080FFF790FC074604E0FFF78CFC2C
:100B6000C01B022875D8686A8007F7D42078400730
:100B700060D5E8690027C00008D4E86940F08050DB
:100B8000E861E869012700F0805000905C48016846
:100B9000C90513D40168834641F480710160FFF7F1
:100BA0006BFC824606E000BFFFF766FCA0EB0A0084
:100BB00064284ED8DBF80000C005F5D5E0680128B0
:100BC0000AD008B1052813D0286A20F00100286255
:100BD000286A20F0040002E0286A40F00100286240
:100BE000E06841F2883B98B1FFF746FC82460BE093
:100BF000286A40F004002862EEE700BFFFF73CFCE3
:100C0000A0EB0A0159455AD8286A8007F6D50CE0AE
:100C1000FFF732FC824605E0FFF72EFCA0EB0A014D
:100C200059454CD8286A8007F6D41FB1E86920F0EE
:100C30008050E861E06988B36968C1F381010229E5
:100C400044D00228C6F8608004D0FFF715FC0446A3
:100C500038E034E0FFF710FC074604E0FFF70CFC37
:100C6000C01B02282BD828688001F7D4206AB0F571
:100C7000803F05D16868A16820F4003008436860AF
:100C8000D4E908010843696821F4741108436860D5
:100C9000C6F86090FFF7F0FB044606E025E000BFD1
:100CA000FFF7EAFB001B022809D828688001F7D566
:100CB0001BE000BFFFF7E0FB001B022802D9032066
:100CC000BDE8F88F28688001F4D40EE00128F7D041
:100CD0006868226A00F48031914204D1616A00F4AC
:100CE0007010884201D00120EAE70020E8E7000008
:100CF00000100240000042428004424210000020E6
:100D0000007000407047704710B590F83C20012AF1
:100D100022D0012280F83C20CA688C6822F44072FC
:100D200022434C6822F4806222430C6822F4006261
:100D300022430C6922F4805222434C6922F400526F
:100D40002243C969002322F480420A4301684A64AD
:100D500080F83C30002010BD022010BD70B590F826
:100D60003C20012A19D0012400F83C4F0222427095
:100D700050F83C3C5A689D6822F070060A68496841
:100D8000324325F0800529435A6050F83C2C91608D
:100D9000447000210170084670BD022070BD10B57E
:100DA000040003D094F83D0010B107E0012010BD0D
:100DB000002084F83C00204600F00CF8022084F863
:100DC0003D00211D206800F029FC012084F83D0031
:100DD000002010BD70470168CA6842F00102CA6075
:100DE0000068816801F00701062903D0016841F01D
:100DF0000101016000207047704770B5044600682B
:100E000001694FF00005C943890715D4C168C9437A
:100E1000890711D4E91E01610120207720688069CB
:100E20008007204602D0FFF7E7FF04E000F0D6F885
:100E3000204600F077F9257720680169C943490702
:100E400017D4C168C943490713D46FF00401016185
:100E5000022020772068806910F4407F204602D06D
:100E6000FFF7CAFF04E000F0B9F8204600F05AF995
:100E7000257720680169C943090716D4C168C943A9
:100E8000090712D46FF0080101610420207720685F
:100E9000C0698007204602D0FFF7AEFF04E000F0F3
:100EA0009DF8204600F03EF9257720680169C94386
:100EB000C90617D4C168C943C90613D46FF010011D
:100EC0000161082020772068C06910F4407F204627
:100ED00002D0FFF791FF04E000F080F8204600F018
:100EE00021F9257720680169C943C90708D1C1687C
:100EF000C943C90704D1891E0161204600F014F9D5
:100F000020680169C943090609D4C168C9430906B3
:100F100005D46FF0800101612046FFF7F3FE2068E1
:100F20000169C943490609D4C168C943490605D4C2
:100F30006FF040010161204600F000F9206801696E
:100F4000C94389060BD4C168C943890607D46FF029
:100F5000200101612046BDE87040FFF7D4BE70BD9E
:100F600000B585B000210091019102910391164BCB
:100F70000268164802219A420FD1826942F00402A7
:100F800082618069039100F0040004904FF4706066
:100F9000CDE9000169460E4811E00E4B9A4210D18E
:100FA000826942F0100282618069039100F01000B2
:100FB00004904FF47070CDE9000169460648FFF7D0
:100FC00059F905B000BD0000002C0140001002409E
:100FD000000801400034014000100140704770B526
:100FE000044690F83C000D4601280DD0012684F8F7
:100FF0003C60022084F83D0042B1042A18D0082A3F
:101000002AD00C2A4DD139E0022070BD206800F0B2
:101010004BFB2068816941F008018161206881698A
:1010200021F004018161206881692A69114311E07E
:10103000206800F069FB2068816941F400618161EA
:101040002068816921F480618161206881692A6951
:1010500041EA0221816124E0206800F08BFB2068D6
:10106000C16941F00801C1612068C16921F0040132
:10107000C1612068C1692A69114311E0206800F04C
:10108000ADFB2068C16941F40061C1612068C1699C
:1010900021F48061C1612068C1692A6941EA0221A5
:1010A000C16184F83D60002084F83C0070BD10B53B
:1010B000040003D094F83D0010B107E0012010BDFA
:1010C000002084F83C00204600F00CF8022084F850
:1010D0003D00211D206800F0A1FA012084F83D00A8
:1010E000002010BD08B50C4A01680C48914207D198
:1010F000816941F400618161806900F4006009E068
:10110000074A914207D1816941F4005181618069A8
:1011100000F40050009008BD002C01400010024077
:10112000003401407047000000680349884201D143
:10113000FFF790BA7047000000140040704770B588
:10114000040004D094F83900002510B106E0012015
:1011500070BD84F83850204600F022F8242084F82E
:1011600039002068C16821F40051C160204600F0B8
:101170005DFB2068016921F49041016120684169AB
:1011800021F02A0141612068C16841F40051C16029
:10119000E563202084F8390084F83A00002070BD0F
:1011A00030B585B000240094019402940394006843
:1011B0001449884223D11448C16941F40031C16106
:1011C000C16901F400310491816941F00401816138
:1011D00080690E4D00F0040004900420009002206D
:1011E00001900320039069462846FFF743F8082042
:1011F000CDE90004694628460294FFF73BF805B0A4
:1012000030BD0000004400400010024000080140D2
:10121000FEE7000000B587B01C2206496846FEF7CD
:10122000EFFF0021684600F0A2FB0349086007B009
:1012300000BD000094230008000000202DE9F04FBD
:1012400085B0002436480094019402940394816987
:1012500041F020018161816901F0200104918169DF
:1012600041F010018161816901F0100104918169EF
:1012700041F004018161816901F0040104918169F7
:1012800041F0080181618069DFF8989000F0080062
:101290000490002202214846FFF7E8F8DFF888B002
:1012A0004FF4E048002241465846FFF7DFF80E2091
:1012B000CDE90004DFF874A0694650460294FEF7B9
:1012C000D9FF02250127CDE9005769464846CDE9F7
:1012D0000245FEF7CFFF164E8020CDE90006694695
:1012E00002944846FEF7C6FF3020CDE90006694665
:1012F00002945046FEF7BEFF40F60740CDE90006D7
:10130000694602945846FEF7B5FFCDE90087694665
:101310005846CDE90245FEF7ADFF05B0BDE8F08FB8
:101320000010024000080140000C01400010014084
:10133000000011100D4810B50B4901600C494160C7
:1013400000214FF480428160C0E903124161816154
:10135000C1610162FFF796F8002803D0BDE8104094
:10136000FEF786BF10BD000000540040C8020020F8
:10137000A086010010B592B000240F941C2168468D
:101380001094FEF756FF202107A8FEF752FF2B48C6
:101390002949C0E900148460C46004614461846127
:1013A000FFF785FE08B1FEF763FF0F940FA92348EE
:1013B0001094FFF7D3FC08B1FEF75AFF6020CDE987
:1013C00000040294039404940594002269461B4887
:1013D0000694FFF704FE08B1FEF74AFF04226946AF
:1013E0001648FFF7FCFD08B1FEF742FF08226946E8
:1013F0001248FFF7F4FD08B1FEF73AFF0C226946E8
:101400000E48FFF7ECFD08B1FEF732FF0794089491
:1014100009944FF400500A94CDE90B4007A90748FE
:101420000E94FFF771FC08B1FEF722FF0348FFF7A7
:1014300097FD12B010BD0000002C01401C030020DD
:1014400010B592B000240F941C2168461094FEF74A
:10145000F0FE202107A8FEF7ECFE2B482949C0E941
:1014600000148460C460046144618461FFF71FFE5E
:1014700008B1FEF7FDFE0F940FA923481094FFF763
:101480006DFC08B1FEF7F4FE6020CDE90004029483
:10149000039404940594002269461B480694FFF7C0
:1014A0009EFD08B1FEF7E4FE042269461648FFF7E8
:1014B00096FD08B1FEF7DCFE082269461248FFF7E8
:1014C0008EFD08B1FEF7D4FE0C2269460E48FFF7E8
:1014D00086FD08B1FEF7CCFE0794089409944FF4FA
:1014E00000500A94CDE90B4007A907480E94FFF776
:1014F0000BFC08B1FEF7BCFE0348FFF731FD12B04C
:1015000010BD0000003401405C0300200C4810B501
:101510000A4901604FF4E1314160002181600C22F1
:10152000C160C0E904128161C161FFF708FE0028B3
:1015300003D0BDE81040FEF79BBE10BD0044004044
:101540009C030020FEE77047012000F004FAFBE74F
:1015500010B5502080F31188BFF34F8FBFF36F8F0A
:1015600000F052FE18B104494FF08050086000208E
:1015700080F3118810BD000004ED00E030B58FB09D
:1015800028216846FEF755FE14210AA8FEF751FEF1
:1015900001210804CDE900100024029402250491E1
:1015A000CDE90750000109906846FFF71BFA0F20AC
:1015B000CDE90A056802CDE90C4002210AA80E9483
:1015C000FFF700F90FB030BD0D48016841F001018F
:1015D000016041680B4A1140416001680A4A1140AC
:1015E0000160016821F480210160416821F4FE015D
:1015F00041604FF41F0181600449C00308607047D7
:10160000001002400000FFF8FFFFF6FE08ED00E0CA
:101610000148FFF7F2BB0000DC030020F0B50268D0
:101620001C4B1D4D1D4E1E4F1E4C4FF0804C9842C2
:1016300009D0A04207D0604505D0A84203D0B042EF
:1016400001D0B84204D122F0700E4A6842EA0E027C
:10165000984209D0A04207D0604505D0A84203D0E7
:10166000B04201D0B84203D122F44075CA682A437F
:101670004D6922F080022A4302608A68C2620A68C9
:101680008262984201D0A04201D10969016301211F
:101690004161F0BD002C0140000400400008004002
:1016A000000C004000340140F0B5026A22F0010253
:1016B0000262036A42688469124E24F073050C6862
:1016C0002C4323F002058B682B430D4DA84201D01B
:1016D000B04205D123F00807CB683B4323F0040355
:1016E000A84201D0B04205D14D6922F440721543A1
:1016F0008A692A4342608461496841630362F0BD9C
:10170000002C014000340140F0B5026A22F01002C2
:101710000262026A436884690D6824F4E64444EA7C
:1017200005248D6822F0200242EA05120F4D104E6A
:10173000A84201D0B04206D1CF6822F0800242EA2E
:10174000071222F04002A84201D0B04207D14D69F1
:1017500023F4406343EA85038D6943EA85034360CC
:101760008461496881630262F0BD0000002C014081
:1017700000340140F0B5026A22F480720262026A0B
:101780004368C46922F4007224F073050C68124E99
:101790002C438D6842EA05220E4DA84201D0B0428A
:1017A00006D1CF6822F4006242EA072222F4806266
:1017B000A84201D0B04207D14D6923F4405343EA17
:1017C00005138D6943EA05134360C4614968C16329
:1017D0000262F0BD002C01400034014030B5026AC5
:1017E00022F480520262046A4268C3690D6823F4DD
:1017F000E64343EA05238D6824F4005444EA0534A3
:10180000084DA84202D0084DA84204D14D6922F4E7
:10181000804242EA85124260C36149680164046201
:1018200030BD0000002C0140003401402DE9F041A2
:10183000044600680169E26821F4405111430161E6
:101840002169A0680843616908432168CA6841F2B8
:101850000C639A430243CA6020684169A26921F47B
:101860004071114341611E49206864253226884237
:1018700002D1FFF76DF801E0FFF75AF800EBC00165
:1018800001EB001160686FF018078000B1FBF0F207
:10189000B2FBF5F2B1FBF0F37A4303EB8202B1FB4A
:1018A000F0F306EB0212B2FBF5F2B3FBF5F302F034
:1018B000F00202EB0312B1FBF0F3B1FBF0F0B0FB6E
:1018C000F5F0784303EB800006EB0010B0FBF5F079
:1018D000216800F00F0010448860BDE8F08100002E
:1018E00000380140FEE70907090E002804DB00F17B
:1018F000E02080F80014704700F00F0000F1E020B5
:1019000080F8141D704702E008C8121F08C1002AA1
:10191000FAD170477047002001E001C1121F002A70
:10192000FBD17047FEF79EFEFFF728FEFFF786FC0F
:10193000FFF700FDFFF71EFDFFF782FDFFF7E6FD55
:10194000FFF768FC00F00EF8FEE70146002084294E
:1019500000D0C81C704710B500B9012000F016FB7C
:10196000002010BD10B500F037FB002010BD7FB582
:101970000D4604464169B0F9080081B1A16971B111
:10198000FFF7E3FFD4E905128DE80700D4E9001062
:101990002B46226900F00DFC039004B070BDFFF7E8
:1019A000D4FF03A9CDE90001208A2B4682B2D4E9F5
:1019B000001000F0D1FB012801D00020EDE70398D2
:1019C000EBE700002DE9F041184C0F46054666692B
:1019D0002068001D00F016FA38B9206890F82C1025
:1019E00001208840A1698143A161681C07D137B1FA
:1019F0002168BDE8F0410E48091D00F047BA206893
:101A00003544B5424560216805D2A068BDE8F04183
:101A1000091D00F023BA6068091D00F01FFA206B51
:101A2000854200D22563BDE8F0810000140000204B
:101A3000F80400202DE9F041054600F033FA2E4C61
:101A40002069401C206120682C4F10B1E06940B330
:101A50002DE025602069012829D1002606EB8600AB
:101A600007EB800000F0ECF9761C072EF6D3234834
:101A70008C3000F0E5F92148A03000F0E1F91F4872
:101A8000B43000F0DDF91D48C83000F0D9F91B482A
:101A9000DC3000F0D5F919488C3060601430A0605B
:101AA00005E02068E96AC06A884200D82560E06ADB
:101AB000401CE062E96A0120A26988401043A061ED
:101AC00001EB810007EB8000291D00F0DFF900F039
:101AD00009FAE06900280CD02068E96AC06A8842E7
:101AE00007D207494FF080500860BFF34F8FBFF314
:101AF0006F8FBDE8F0810000140000201C0400205E
:101B000004ED00E010B5044690F8510058B10128EA
:101B10000CD002280FD0502080F31188BFF34F8FD4
:101B2000BFF36F8FFEE7206B00F0F0F92046BDE8B1
:101B3000104000F0EBB910BD10484FF4406142076F
:101B400006D0C01D0D4920F00700411AC1F54061C3
:101B50000B4A00230144C2E900030839103A21F07E
:101B6000070111604B600B600B1AC0E90013936012
:101B70004FF000405360D060704700000C0500201B
:101B800060000020144E154CA6F1C8074FF0805895
:101B9000DFF84C9012E000BF00F084F9F068C568EF
:101BA000281D00F02FF92069401E2061E068401ECA
:101BB000E06000F097F92846FFF7A4FFE0680028EE
:101BC000EAD138680128F9D9C9F80080BFF34F8FEE
:101BD000BFF36F8FF2E70000E40400201400002040
:101BE00004ED00E02DE9F0479A46DDE909848146DD
:101BF0006FF00303206B03EB82021044089D20F07A
:101C00000706700707D0502080F31188BFF34F8F6D
:101C1000BFF36F8FFEE723180A5C83F834200A5C59
:101C200012B1401C1028F6D3002784F84370072D0A
:101C300000D30625E562C4E91157201D00F00BF919
:101C400004F1180000F007F92461C5F1070064628F
:101C5000A061E76484F8507052464946304600F06F
:101C6000BFF82060B8F1000F01D0C8F80040BDE80F
:101C7000F087000030B5114900E011460A68824241
:101C8000FBD34B685C18844203D140681844486019
:101C9000084643681C18944209D1084C103C24683B
:101CA000A24209D052681A4442600A68126802606F
:101CB000814200D0086030BD0460F9E76000002078
:101CC00006484168096829B14168C968C968496816
:101CD000016370474FF0FF31FAE700001400002065
:101CE00008484068401C4FF0500080F3118804D031
:101CF000BFF34F8FBFF36F8FFEE7BFF34F8FBFF37D
:101D00006F8FFEE7680000202DE9F04105460027AF
:101D100000F098F9314E306808B9FFF70DFFF06810
:101D200005424BD1C5B3083568070ED005F0070052
:101D3000C0F108000544680707D0502080F31188DF
:101D4000BFF34F8FBFF36F8FFEE72DB370688542EF
:101D500034D82248103001460C6801E020460C4679
:101D60006168A94202D221680029F7D131688C420A
:101D700024D007682168016060680837411B10297A
:101D80000FD96019420708D0502080F31188BFF3A3
:101D90004F8FBFF36F8FFEE710E041606560FFF784
:101DA00069FF61687068401A7060B268904200D242
:101DB000B060F06801430020C4E9000100F088FA37
:101DC000780707D0502080F31188BFF34F8FBFF3FF
:101DD0006F8FFEE73846BDE8F0810000500000201C
:101DE00010B5031F4FF080741C601B1F21F0010110
:101DF0001960191F024B0B60143940380A6010BD7E
:101E0000E11C0008D0E9013201699A60D0E90123A0
:101E10005A604A68824201D182684A6000220261A7
:101E20000868401E0860086870470000034B0360A4
:101E300003F1540008608020106070477400002097
:101E400000F108014FF0FF32C0E90112C1600161E9
:101E500000210160704700210161704730B50B68B7
:101E60005A1C02D000F1080202E0026904E0224696
:101E7000546825689D42FAD953684B6099608A601E
:101E8000516008610168491C016030BD42684A60C8
:101E900093688B6093685960916008610168491C80
:101EA00001607047502080F31188BFF34F8FBFF35C
:101EB0006F8F0A494868401C486001280CD10848C7
:101EC000006810F0FF0F07D0502080F31188BFF397
:101ED0004F8FBFF36F8FFEE7704700006800002050
:101EE00004ED00E00849486828B1401E486001D16F
:101EF00080F311887047502080F31188BFF34F8F13
:101F0000BFF36F8FFEE700006800002070B5002867
:101F100027D0144DA0F108046168E868014207D198
:101F2000502080F31188BFF34F8FBFF36F8FFEE710
:101F300022683AB1502080F31188BFF34F8FBFF36E
:101F40006F8FFEE78143616000F07CF8606869682C
:101F5000084468602046FFF78DFEBDE8704000F041
:101F6000B7B970BD500000204FF0E02000210161A2
:101F7000816105494FF47A720968B1FBF2F1491E9B
:101F800041610721016170471000002010B5020077
:101F900014D00F48806B38B1502080F31188BFF304
:101FA0004F8FBFF36F8FFEE700F04CF80021104613
:101FB000FFF708FD00F08CF9002807D105494FF024
:101FC00080500860BFF34F8FBFF36F8F10BD0000CC
:101FD0001400002004ED00E010B586B00024039446
:101FE00005AA04A903A80494FFF720FFDDE9030173
:101FF0000094CDE9011000230EA11048059A00F0CD
:10200000D8F80F490028486311D0502080F3118878
:10201000BFF34F8FBFF36F8F4FF0FF300863012086
:10202000C8614C6106B0BDE8104000F041B806B090
:1020300010BD000049444C4500000000851B00080D
:10204000140000200248816B491C81637047000026
:10205000140000201448816B11B1012141627047C6
:10206000002141628169B1FA81F1C1F11F0101EBE7
:1020700081020E4951F822306BB101EB820101F16E
:1020800008034A6852684A609A4201D152684A601D
:10209000D16801607047502080F31188BFF34F8FE3
:1020A000BFF36F8FFEE70000140000201C04002027
:1020B0001CB5264908780190FF20087008788DF833
:1020C00000009DF800009DF8002000F0F000904214
:1020D00007D0502080F31188BFF34F8FBFF36F8F6D
:1020E000FEE79DF800001A4B00F050001870072022
:1020F000986005E09DF8002052008DF80020401EF9
:102100009DF800201206F5D49860032807D05020CF
:1021100080F31188BFF34F8FBFF36F8FFEE74FF44B
:1021200040709860019808700A48016841F4700195
:102130000160016841F070410160FFF715FF002068
:102140005860FEF711F800201CBD000000E400E01C
:102150006800002020ED00E02DE9FF5F8346DDE907
:102160000E87994616468A469000FFF7CDFD05007A
:102170001CD05420FFF7C8FD040014D000202563B4
:1021800084F85100CDE90240CDE900874B46324644
:1021900051465846FFF726FD2046FFF74BFC01202D
:1021A00004B0BDE8F09F2846FFF7B0FE4FF0FF30C7
:1021B000F6E7F0B585B0DDE90B640A9DA6B1DCB1A8
:1021C000542700972663022684F85160002604AF46
:1021D000CDE90246CDE90057FFF704FD2046FFF7A1
:1021E00029FC049805B0F0BD502080F31188BFF39E
:1021F0004F8FBFF36F8FFEE7502080F31188BFF33E
:102200004F8FBFF36F8FFEE72DE9F0412E4C002773
:10221000A06B40B1206A401C2062606A00B10127B7
:102220003846BDE8F0816669761C666113D1606846
:10223000006838B1502080F31188BFF34F8FBFF38F
:102240006F8FFEE76068A1686160A060A06A401CB3
:10225000A062FFF735FD206BDFF87080864209D35E
:102260006068006880B16068C068C5686868864258
:102270000DD220632068C06A00EB800158F821006D
:102280000128CAD90127C8E74FF0FF30F1E7281D20
:10229000FFF7B8FDA86A18B105F11800FFF7B2FD05
:1022A000E86A0121A26981401143A16100EB80012C
:1022B00008EB8100291DFFF7E9FDE86A2168C96A7A
:1022C0008842CDD30127CBE7140000201C04002056
:1022D0002DE9F0472C4D00242746A86B38B1FFF7B5
:1022E000E1FDA86B401EA863A86B40B146E05020FA
:1022F00080F31188BFF34F8FBFF36F8FFEE729691B
:10230000224E0120D1B3A6F1B40980463068E8B16D
:10231000F068C46804F11800FFF774FD201DFFF792
:1023200071FDE06AAA6908FA00F11143A96100EBA6
:10233000800109EB8100211DFFF7A8FDE06A2968F3
:10234000C96A8842E2D3C5F82480DFE70CB1FFF701
:10235000B7FC2C6A44B14646FFF756FF00B16E62E7
:10236000641EF9D100202862686A38B10849012743
:1023700038070860BFF34F8FBFF36F8FFFF7B2FDD1
:102380003846BDE8F087000014000020D00400208B
:1023900004ED00E0C8230008491500080000000013
:1023A000000000000002000000000000000000002B
:1023B00000000000000000000102030406070809F5
:1023C000000000000102030464656661756C7454CA
:1023D00061736B00F423000800000020740000000B
:1023E0000619000868240008740000209C140000EE
:1023F0001619000800000000010000001000000095
:10240000000000000024F4000000000000000000B4
:1024100000000000000000000000000000000000BC
:1024200000000000000000000000000000000000AC
:10243000000000000000000000000000000000009C
:10244000000000000000000000000000000000008C
:10245000000000000000000000000000000000007C
:08246000AAAAAAAA00000000CC
:0400000508000131BD
:00000001FF
