:020000040800F2
:1000000090590020114B0008A1460008A3460008A3
:10001000A5460008A7460008A94600080000000001
:100020000000000000000000000000006F40000819
:10003000AB4600080000000029400008C13D000850
:10004000554B0008594B00085D4B0008614B0008F8
:10005000654B0008694B00086D4B0008714B0008A8
:10006000754B0008794B00087D4B0008814B000858
:10007000854B0008894B00088D4B0008914B000808
:10008000954B0008994B00089D4B0008A14B0008B8
:10009000A54B0008A94B0008AD4B0008B14B000868
:1000A000B54B0008B94B0008BD4B0008C14B000818
:1000B000C54B0008C94B0008CD4B0008D14B0008C8
:1000C000D54B0008D94B0008DD4B0008E14B000878
:1000D000E54B0008E94B0008AD460008ED4B000871
:1000E000F14B0008F54B0008F94B0008FD4B0008E8
:1000F000014C0008054C0008094C00080D4C000894
:10010000114C0008154C0008194C00081D4C000843
:10011000214C0008254C0008054700083D47000811
:10012000294C00082D4C0008314C0008354C0008C3
:1001300010B50400002C01D101202FE094F83D00FF
:10014000002805D1002084F83C00200000F0C7FD05
:10015000022084F83D00211D206800F0ECFA012007
:1001600084F84600012084F83E00012084F83F0016
:10017000012084F84000012084F84100012084F827
:100180004200012084F84300012084F8440001204B
:1001900084F84500012084F83D00002010BD90F84F
:1001A0003D10012901D0012039E0022180F83D10E5
:1001B0000168C96851F001010268D1600168DFF887
:1001C0009C20914217D00168DFF89420914212D010
:1001D0000168B1F1804F0ED00168DFF888209142AC
:1001E00009D00168DFF88020914204D00168DFF86F
:1001F0007C2091420CD10168896811F00701062921
:100200000CD00168096851F001010068016005E047
:100210000168096851F00101006801600020704721
:100220000168C968490849000268D1600168096A23
:1002300041F2111211420BD10168096A40F24442A5
:10024000114205D101680968490849000268116036
:10025000012180F83D10002070470000002C014073
:10026000003401400004004000080040000C004041
:1002700010B50400002C01D101202FE094F83D00BE
:10028000002805D1002084F83C00200000F0AEFDDD
:10029000022084F83D00211D206800F04CFA012066
:1002A00084F84600012084F83E00012084F83F00D5
:1002B000012084F84000012084F84100012084F8E6
:1002C0004200012084F84300012084F8440001200A
:1002D00084F84500012084F83D00002010BD10B5D1
:1002E0000400002902D194F83E000BE0042902D159
:1002F00094F83F0006E0082902D194F8400001E09C
:1003000094F84100012801D0012061E0002904D1C6
:10031000022084F83E00C0B211E0042904D102207A
:1003200084F83F00C0B20AE0082904D1022084F812
:100330004000C0B203E0022084F84100C0B20122B4
:10034000206800F045FBDFF88C102068884204D05C
:100350002068DFF88420904201D1012000E00020D5
:10036000C0B2002805D02068406C50F400402268DC
:1003700050642068884217D02068DFF85C108842FB
:1003800012D02068B0F1804F0ED02068DFF84C10FA
:10039000884209D02068DFF84810884204D02068DD
:1003A000DFF8401088420CD12068806810F0070008
:1003B00006280CD02068006850F001002168086011
:1003C00005E02068006850F0010021680860002006
:1003D00010BD0000002C014000340140000400402A
:1003E00000080040000C004010B5040020680069BF
:1003F00080071AD52068C068800716D57FF00200F4
:1004000021680861012020772068806910F0030FBF
:1004100003D0200000F0EBFC05E0200000F0E8FC39
:10042000200000F0E6FC00202077206800694007EB
:100430001AD52068C068400716D57FF004002168EF
:100440000861022020772068806910F4407F03D083
:10045000200000F0CCFC05E0200000F0C9FC2000EA
:1004600000F0C7FC002020772068006900071AD53B
:100470002068C068000716D57FF008002168086171
:10048000042020772068C06910F0030F03D02000FB
:1004900000F0ADFC05E0200000F0AAFC200000F018
:1004A000A8FC0020207720680069C0061AD52068C3
:1004B000C068C00616D57FF01000216808610820CA
:1004C00020772068C06910F4407F03D0200000F03E
:1004D0008EFC05E0200000F08BFC200000F089FC81
:1004E0000020207720680069C0070AD52068C0680E
:1004F000C00706D57FF0010021680861200000F0E8
:10050000E8FC2068006900060AD52068C06800067B
:1005100006D57FF0800021680861200000F0E9FC2A
:100520002068006940060AD52068C068400606D5E4
:100530007FF0400021680861200000F0DBFC2068AB
:10054000006980060AD52068C068800606D57FF05D
:10055000200021680861200000F0CDFC10BD38B5F6
:1005600004000D0094F83C00012801D102206DE048
:10057000012084F83C00002A06D0042A1BD0082A57
:1005800031D00C2A46D05DE02900206800F018F92F
:100590002068806950F008002168886120688069BF
:1005A00030F004002168886120688169286901436E
:1005B0002068816146E02900206800F033F9206856
:1005C000806950F40060216888612068806930F497
:1005D00080602168886120688069296950EA01206B
:1005E000216888612EE02900206800F052F9206817
:1005F000C06950F008002168C8612068C06930F007
:1006000004002168C8612068C16928690143206825
:10061000C16117E02900206800F071F92068C06905
:1006200050F400602168C8612068C06930F48060BF
:100630002168C8612068C069296950EA01202168E1
:10064000C861FFE7002084F83C00002032BD10B5EF
:10065000040094F83C00012801D102206AE0012046
:1006600084F83C00022084F83D002068806830F067
:10067000770030F47F4022689060086800284DD0F1
:1006800010284BD0202849D0302847D040283BD0D4
:10069000502825D060282DD0702807D0B0F5805F75
:1006A00003D0B0F5005F0ED03DE03CE0CB684A6877
:1006B0008968206800F081F92068806850F0770030
:1006C000216888602FE0CB684A688968206800F05C
:1006D00074F92068806850F480402168886022E0C6
:1006E000CA684968206800F03BF95021206800F092
:1006F0005CF918E0CA684968206800F043F9602195
:10070000206800F052F90EE0CA684968206800F0DD
:1007100027F94021206800F048F904E009682068C2
:1007200000F043F9FFE7012084F83D00002084F841
:100730003C00002010BD10B40468DFF8103298426D
:1007400011D0DFF80C2290420DD0B0F1804F0AD0CA
:10075000DFF80022904206D0DFF8FC21904202D060
:100760007E4A904203D134F070044A6814439842A0
:100770000ED0774A90420BD0B0F1804F08D0754A26
:10078000904205D0744A904202D0744A904203D1FC
:1007900034F44074CA68144334F080044A69144342
:1007A00004608A68C2620A688262984202D0684A1B
:1007B000904201D1096901630121416110BC704778
:1007C00070B4026A520852000262046A4568836982
:1007D00033F070039B089B000A68134334F0020453
:1007E0008A681443594EB04202D0594A904205D10A
:1007F00034F00804CA68144334F00404B04202D050
:10080000534A904207D135F4807535F400754A6932
:1008100015438A69154345608361496841630462F1
:1008200070BC704770B4026A32F010020262036A50
:100830004468826932F4E04232F440720D6852EA50
:10084000052233F020038D6853EA05133F4DA8427B
:1008500002D03F4EB04206D133F08003CE6853EA57
:10086000061333F04003A84202D0394DA84209D103
:1008700034F4806434F400644D6954EA85048D696D
:1008800054EA85044460826149688163036270BCF4
:10089000704770B4026A32F480720262046A45687A
:1008A000C36933F070039B089B000A68134334F458
:1008B00000748A6854EA0224244A904202D0244EEA
:1008C000B04206D134F40064CE6854EA062434F40D
:1008D0008064904202D01E4A904209D135F480557E
:1008E00035F400554A6955EA02158A6955EA021538
:1008F0004560C3614968C163046270BC704730B42D
:10090000026A32F480520262036A4468C26932F4B5
:10091000E04232F440720D6852EA052233F400538B
:100920008D6853EA0533094DA84202D0084DA8420C
:1009300004D134F480444D6954EA85144460C261A2
:1009400049680164036230BC70470000002C01401C
:10095000003401400004004000080040000C00404A
:1009600010B4046A036A5B085B000362836933F0B6
:10097000F00353EA021334F00A0421438361016255
:1009800010BC704710B4036A33F01003036283692C
:10099000046A33F4704353EA023334F0A00454EA97
:1009A00001148361046210BC7047826832F07002E7
:1009B00051F0070111438160704710B4846834F42A
:1009C0007F44114351EA03212143816010BC7047E9
:1009D00010B4012411F01F0314FA03F3046A34EA7B
:1009E00003030362036A11F01F0112FA01F11943B4
:1009F000016210BC704730B4002513E050F8042B9E
:100A0000D30744BFA9F101039A18091F042942F82A
:100A1000045BFAD213468C0744BF15809B1CC907A0
:100A200048BF1D7050F8041B0029E7D130BC704747
:100A300018B595B01022002111A800F05DFA082227
:100A40000021684600F058FA1C22002102A800F09C
:100A500053FA2022002109A800F04EFADFF864437F
:100A6000DFF864032060002060600020A0600020A8
:100A7000E06000202061002060610020A061200073
:100A8000FFF756FB002801D000F032FA4FF48050F7
:100A9000119011A92000FFF7DAFD002801D000F025
:100AA00027FA2000FFF7E4FB002801D000F020FA2D
:100AB00000200090002001906946200000F026FAF6
:100AC000002801D000F014FA60200290002003906A
:100AD0000020049000200590002006900020079040
:100AE00000200890002202A92000FFF738FD00280E
:100AF00001D000F0FDF9042202A92000FFF72FFD2C
:100B0000002801D000F0F4F9082202A92000FFF724
:100B100026FD002801D000F0EBF90C2202A92000EC
:100B2000FFF71DFD002801D000F0E2F90020099038
:100B300000200A9000200B9000200C9000200D90C7
:100B40004FF400500E900020109009A9200000F0F2
:100B500025FA002801D000F0CBF9200000F0F5F8CC
:100B600016B010BD1CB508220021684600F0C4F97B
:100B7000964C97482060472060600020A0600020CD
:100B8000E0600020A0612000FFF7D2FA002801D029
:100B900000F0AEF90020009000200190694620008E
:100BA00000F0B4F9002801D000F0A2F913BD18B587
:100BB00095B01022002111A800F09EF90822002112
:100BC000684600F099F91C22002102A800F094F96F
:100BD0002022002109A800F08FF97E4C7E48206079
:100BE000002060600020A0600020E0600020206104
:100BF000002060610020A0612000FFF799FA002822
:100C000001D000F075F94FF48050119011A9200027
:100C1000FFF71DFD002801D000F06AF92000FFF762
:100C200027FB002801D000F063F90020009000208D
:100C300001906946200000F069F9002801D000F019
:100C400057F96020029000200390002004900020BB
:100C500005900020069000200790002008900022B8
:100C600002A92000FFF77BFC002801D000F040F92A
:100C7000042202A92000FFF772FC002801D000F036
:100C800037F9082202A92000FFF769FC002801D0EB
:100C900000F02EF90C2202A92000FFF760FC0028CA
:100CA00001D000F025F90020099000200A900020D2
:100CB0000B9000200C9000200D904FF400500E90EF
:100CC0000020109009A9200000F068F9002801D048
:100CD00000F00EF9200000F038F816B010BD80B515
:100CE0000168394A91420AD13C48016851F40061D7
:100CF0000160006810F400600090009824E0016832
:100D0000334A914212D13648016851F01001016016
:100D1000006810F010000090009800220521362095
:100D200000F0BEF9362000F0CCF90DE000682A4949
:100D3000884209D12948016851F4005101600068D6
:100D400010F400500090009801BD18B585B0040063
:100D500010220021684600F0CFF820681A49884226
:100D600015D11E48016851F004010160006810F0BF
:100D70000400049004984FF47060009002200190E9
:100D8000022003906946174800F0AAF918E020688D
:100D90001149884214D11148016851F010010160D5
:100DA000006810F01000049004984FF470700090E8
:100DB000022001900220039069460B4800F090F950
:100DC00006B010BD3C530020002C0140845300208D
:100DD00000100040CC5300200034014018100240A5
:100DE0001C1002400008014000100140704770478D
:100DF0007047704738B500F091FA00F033F800F012
:100E00009FFA00F019FBFFF713FEFFF7D0FE00F08A
:100E100067FBFFF7A7FE334C334D2900200000F09D
:100E2000E1FB2068002801D1012000E000202168BA
:100E300011F1010F01D1012100E00021C0B2C9B2BE
:100E40000843002809D05FF4E13020600D202071B4
:100E50002A00D4E9000100F0A7FB00F032FC00F00A
:100E600078FEFEE700B58FB02822002105A800F02B
:100E700043F814220021684600F03EF80120059056
:100E80005FF4803006900021079101210991022131
:100E90000C910D905FF480100E9005A800F098FE64
:100EA000002801D000F024F80F20009002200190CB
:100EB000002002904FF480600390002004900221F3
:100EC000684601F06EF8002801D000F011F80FB06C
:100ED00000BD80B500680549884201D101F0A2F942
:100EE00001BD000004000020007C00080014004048
:100EF000704770477047704710B5044610460A4661
:100F00000146204601F09AF9204610BD10B490F831
:100F10003C20012A01D1022034E0012280F83C204B
:100F2000022280F83D20026854680268936834F019
:100F300070040A681443026854600268124CA242AA
:100F400013D00268114CA2420FD00268B2F1804F58
:100F50000BD002680E4CA24207D002680D4CA24290
:100F600003D002680C4CA24205D133F080034968DB
:100F70000B4301688B60012180F83D10002180F84F
:100F80003C10002010BC7047002C01400034014090
:100F90000004004000080040000C0040002390F8CE
:100FA0003C20012A01D1022024E0012280F83C20CB
:100FB0001B0A1B02CA68134333F440738A68134345
:100FC00033F480634A68134333F400630A681343BD
:100FD00033F480530A69134333F400534A691343CB
:100FE00033F48043C9690B4301684B64002180F8E6
:100FF0003C1000207047010210F00700334B1A68C4
:101000004FF6FF010A40324951EA00210A431A60B3
:1010100070472E480068C0F302207047010049B2B3
:10102000002908D4012210F01F018A40294940B24A
:10103000400941F820207047020052B2002A04D42F
:101040000901254A40B2115407E00901234A40B280
:1010500010F00F00104400F8041C704710B410F09A
:101060000700D0F10703052B01D3042301E0D0F1E1
:101070000703041D072C01D2002000E0C01E01243C
:1010800014FA03F35B1E1940814014FA00F0401E6D
:101090001040084310BC704780B5FFF7ADFF01BD9D
:1010A00070B504000D0016000020FFF7B2FF3200FB
:1010B0002900FFF7D3FF0100200040B2FFF7BCFF7B
:1010C00070BD80B540B2FFF7A9FF01BD0CED00E097
:1010D0000000FA0500E100E000E400E018ED00E0A7
:1010E000F8B502000023002514E0DFF8E8010668E7
:1010F00036EA040404600CE0DFF8DC010668A6436D
:10110000066048688002F0D5DFF8C80106683443FD
:1011100004605B1C0868D840002800F0C6800126E7
:101120009E400C683440B442F3D1486800282BD06C
:1011300001281ED0022821D0032833D011281AD02C
:1011400012281ED0DFF89471B8421DD0DFF89071DC
:10115000B84219D0DFF88C71B84215D0DFF8887129
:10116000B84211D0614FB8420ED0614FB8420BD097
:101170001AE0CD6818E0CD682D1D15E0CD68083562
:1011800012E0CD680C350FE08868002801D10425F5
:1011900007E08868012802D10825166101E00825CA
:1011A000566101E00025FFE7B4F5807F01D217000A
:1011B00000E0171DB4F5807F02D25FEA830C03E0E4
:1011C000B3F1080C5FEA8C0C0F26D7F800E016FA92
:1011D0000CF03EEA000E15FA0CFC5CEA0E0CC7F8A7
:1011E00000C04868C00094D54248076857F001071E
:1011F0000760006810F00100009000983E4F180052
:10120000800857F820C013F00300C0B28000864069
:101210003CEA060C3948824201D1002619E03848E0
:10122000824201D1012614E03648824201D10226D1
:101230000FE03548824201D103260AE0334882425A
:1012400001D1042605E03248824201D1052600E0A2
:10125000062613F00300C0B28000864056EA0C0C4C
:101260001800800847F820C04868C00304D5294802
:1012700006682643066003E026480668A643066023
:101280004868800304D5244806682643066003E0C6
:1012900021480668A64306604868C0027FF52CAF67
:1012A0000D480668264306602BE7F1BD806889B2C9
:1012B000084201D0012000E00020C0B27047D2B245
:1012C000002A02D089B2016102E089B209040161F9
:1012D000704700000C040140080401400000111098
:1012E0000000121000002110000022100000311038
:1012F00000003210181002400800014000080140B0
:10130000000C014000100140001401400018014091
:10131000001C0140000401400404014080B507485E
:10132000016851F0100101600320FFF7B5FE0020B5
:1013300000F0B8FF00F0F6FF002002BD00200240E0
:1013400030B585B0102200216846FFF7D5FD36483C
:10135000016851F020010160016811F02001049141
:101360000499016851F010010160016811F0100149
:1013700004910499016851F004010160016811F0C1
:10138000040104910499016851F0080101600068AA
:1013900010F0080004900498244C00220221200040
:1013A000FFF78DFF224D00224FF4E0412800FFF7A8
:1013B00086FF3E20009000200190012002906946A7
:1013C0001C48FFF78DFE02200090012001900020B4
:1013D00002900220039069462000FFF781FE8020E2
:1013E0000090002001900120029069462000FFF744
:1013F00077FE40F607400090002001900120029007
:1014000069462800FFF76CFE4FF4E0400090012091
:101410000190002002900220039069462800FFF707
:101420005FFE05B030BD00BF18100240000801404B
:10143000000C01400010014080B5234823490160A1
:1014400023494160002181600021C1604FF4804147
:10145000016100214161002181610021C161002100
:10146000016200F089FF002801D0FFF741FD01BDB6
:1014700018B585B004001022002101A8FFF73CFD3B
:101480002068124988421DD11248016851F00801B4
:101490000160006810F0080000900098C0200190E2
:1014A000122002900320049001A90B48FFF718FEB8
:1014B0000A48016851F400110160006810F400103E
:1014C0000090009806B010BDA052002000540040CB
:1014D000A086010018100240000C01401C100240C0
:1014E00080B52C482C4901605FF4E1314160002156
:1014F00081600021C160002101610C214161002156
:1015000081610021C16101F02BF8002801D0FFF7B3
:10151000EFFC01BD18B585B004001022002168461B
:10152000FFF7EAFC20681C49884230D11B4801685B
:1015300051F400310160006810F400300490049808
:101540001748016851F004010160006810F00400C0
:10155000049004980420009002200190032003903E
:10156000104C69462000FFF7BBFD082000900020CA
:1015700001900020029069462000FFF7B1FD002293
:1015800005212620FFF78CFD2620FFF79AFD06B0E7
:1015900010BD000014540020004400401C10024004
:1015A0001810024000080140F3B581B01400022673
:1015B00001AF00F047F8200000F02FF800250AE006
:1015C0002800C0B257F820102800C0B214EB8000E9
:1015D00000F044F86D1C2800C0B2B042F0D300F017
:1015E00037F8F7BD30B40222002308E01C00A4B293
:1015F00051F824401D00ADB240F825405B1C1C0092
:10160000A4B29442F2D330BC70472348006810F073
:10161000010090F00100C0B2704710B51F4C216866
:1016200051F0020121601E490860206850F040001E
:101630002060FFF7EAFF0028FBD0206830F00200AE
:10164000206010BD174818490160184901607047B3
:101650001248016851F080010160704770B50400C4
:101660000D000E4E306850F001003060FFF7CDFFE6
:101670000028FBD02580FFF7C8FF0028FBD0A41C62
:101680002D0C2580FFF7C1FF0028FBD030684008F3
:101690004000306070BD00000C200240102002406D
:1016A000142002400420024023016745AB89EFCD9E
:1016B000DFF838340360DFF83804086080201060F9
:1016C000704780B58EB007A8DFF828141C2201F0FF
:1016D000E1F9002107A800F041FADFF81C140860C6
:1016E0006846DFF818141C2201F0D4F9002168467E
:1016F00000F034FADFF8081408600FB000BDF8B548
:10170000DFF80044DFF80004016849082160DFF8D1
:10171000FC5301682A68D162DFF8F463006831681D
:10172000C86200212800FEF7DAFD04212800FEF738
:10173000D6FD08212800FEF7D2FD0C212800FEF777
:10174000CEFD00213000FEF7CAFD04213000FEF777
:10175000C6FD08213000FEF7C2FD0C213000FEF767
:10176000BEFD34E00020DFF8AC13C881DFF8A80329
:10177000017811F07F01017023E00020DFF894135D
:101780008881DFF89403017811F0BF010170002017
:101790002968C863206829680864012000F00DFAF0
:1017A0008021DFF87803FFF781FD0028DAD00120DF
:1017B000DFF86013C881DFF86003017851F0800121
:1017C0000170002029680864012000F0F6F9206803
:1017D00031684863012000F0F0F9DFF844734FF4FA
:1017E00000613800FFF762FD00280AD00120DFF811
:1017F00024130880DFF82003017851F00101017003
:1018000009E00020DFF80C130880DFF80C030178F2
:1018100011F0FE01017000203168486320683168D2
:101820008863012000F0C9F94FF480613800FFF7A8
:101830003DFD00280AD00120DFF8D8124880DFF8EB
:10184000D802017851F00201017007E00020B1498F
:101850004880B148017811F0FD0101700020316825
:10186000886320683168C863012000F0A6F904216C
:101870003800FFF71BFD002808D00120A54988800B
:10188000A548017851F00401017007E00020A1494A
:101890008880A148017811F0FB01017000203168B7
:1018A000C863206831680864012000F086F90221CD
:1018B0003800FFF7FBFC002808D001209549C880BC
:1018C0009548017851F00801017007E00020914926
:1018D000C8809148017811F0F7010170002031684B
:1018E0000864206829684863012000F066F9012136
:1018F0003800FFF7DBFC002808D00120854908816B
:101900008548017851F01001017007E000208149FD
:1019100008818148017811F0EF01017000202968E9
:101920004863206829688863012000F046F97D4FEC
:1019300020213800FFF7BAFC002808D001207549A3
:1019400048817548017851F02001017007E00020BE
:10195000704948817048017811F0DF010170002062
:101960002968886320682968C863012000F025F988
:1019700010213800FFF79AFC00283FF4FEAE01204A
:10198000644988816448017851F040010170FEE6A5
:1019900080B5654800210091036803220179002089
:1019A00001F0BCF801F007F901F015F95FF0805083
:1019B0005E490860BFF34F8FBFF36F8FF4E70020DD
:1019C000C0B2704710B50A0092B2002A00D0491E7A
:1019D0000024DBB2002B02D0012B4AD082E089B276
:1019E000002911D0022919D013D3042920D01AD3E9
:1019F000062927D021D308292ED028D30A2931D06F
:101A00002BD30B292FD032E0424909880170401CAA
:101A10002EE0404949880170401C29E03D498988F1
:101A20000170401C24E03B49C9880170401C1FE044
:101A3000384909890170401C1AE03649498901700A
:101A4000401C15E0334989890170401C10E0314980
:101A5000C9890170401C0BE00AE02F490978017028
:101A6000401C05E004E030490968417000E00124B1
:101A700039E089B2002916D0012915D0022914D0E5
:101A8000032913D0042912D0052911D0062910D01A
:101A900007290FD008290ED0092915D00B2914D0F9
:101AA0000F2916D01CE01CE01BE01AE019E018E03A
:101AB00017E016E015E00178427852EA01220A2088
:101AC0004243194802600CE00BE040781649087167
:101AD00007E0174A144BD3E90001FFF765FD00E06A
:101AE000012400E002242000C0B210BD4C520020AE
:101AF000C04E0020684A0008F4540020844A0008C0
:101B0000F8540020F0540020000000203C53002036
:101B1000CC530020D85400209C0000200008014035
:101B2000000C0140001001400400002004ED00E022
:101B3000007C000801207047012070470100002050
:101B40000A0012B2842A03D009B2C91C091808007D
:101B5000704780B501F024FA002002BD38B584B08A
:101B600004000D006069002815D0A069002812D07B
:101B7000B4F90800FFF7E2FFA169029161690191E0
:101B800000902B0022692168606801F0C7F803907B
:101B9000039805B030BDB4F90800FFF7CFFF03A9E3
:101BA000019100902B00226992B22168606801F0D7
:101BB000F6F80128ECD00020EBE780B50121B0FB5E
:101BC000F1F0002800D1012001F0C4F9002002BD8D
:101BD0002DE9FC410400002C01D10120DFE1207837
:101BE000C0076BD5DFF8F405016811F00C0104297A
:101BF00007D0016811F00C0108290CD10068C0035E
:101C000009D5DFF8D4050068800357D5606800283F
:101C100054D10120C3E16068B0F5803F06D1DFF800
:101C2000B805016851F48031016026E06068002841
:101C30000AD1DFF8A405016831F480310160016840
:101C400031F48021016018E06068B0F5A02F0AD15E
:101C5000DFF88405016851F480210160016851F4C6
:101C60008031016009E0DFF87005016831F48031EE
:101C70000160016831F480210160606800280ED0A5
:101C800001F004FC0500DFF850050068800315D45E
:101C900001F0FCFB401B6528F5D303207FE101F038
:101CA000F5FB0500DFF830050068800306D501F07C
:101CB000EDFB401B6528F5D3032070E120788007F9
:101CC0001ED5DFF81805016811F00C0F07D0016868
:101CD00011F00C0108292CD10068C00329D4DFF8C9
:101CE000F8040168890704D52169012901D0012080
:101CF00055E1016831F0F801626951EAC201016001
:101D00002078000749D5A069002871D00120DFF8AC
:101D1000E014086001F0BAFB0500DFF8D0040068A9
:101D2000800737D401F0B2FB401B0328F5D3032012
:101D300035E1206900281AD00120DFF8B8140860C6
:101D400001F0A4FB0500DFF890040168890706D4C0
:101D500001F09CFB401B0328F5D303201FE1016821
:101D600031F0F801626951EAC2010160C8E7002060
:101D7000DFF88014086001F089FB0500DFF85804E3
:101D800000688007BCD501F081FB401B0328F5D318
:101D9000032004E1012000F00BFA2078400740F115
:101DA00096800026DFF850542868C00009D42868BF
:101DB00050F080502860286810F080500090009803
:101DC0000126DFF838743868C00524D4386850F428
:101DD0008070386001F05AFB80463868C0051AD41C
:101DE00001F054FBB0EB08006528F6D30320D6E0E1
:101DF0000020DFF8FC13086001F048FB0500DFF865
:101E0000EC0300688007C8D501F040FB401B0328A5
:101E1000F5D30320C3E0E068012806D1DFF8E00332
:101E2000016851F00101016025E0E06800280AD155
:101E3000DFF8CC030168490849000160016831F00E
:101E40000401016017E0E06805280AD1DFF8B0035B
:101E5000016851F004010160016851F00101016065
:101E600009E0DFF89C030168490849000160016846
:101E700031F004010160E068002810D001F006FB99
:101E80000700DFF87C030068800719D401F0FEFA30
:101E9000C01B41F289318842F3D303207FE001F077
:101EA000F5FA0700DFF858030068800708D501F04D
:101EB000EDFAC01B41F289318842F3D303206EE072
:101EC000F6B2012E03D1286830F080502860E06916
:101ED000002863D0DFF80463306810F00C00082895
:101EE0004AD0E069022834D1DFF818730020386046
:101EF00001F0CCFA8046DFF8E0522868800107D56F
:101F000001F0C4FAB0EB08000328F4D3032046E044
:101F1000206AB0F5803F05D1316831F40031A06806
:101F200001433160316831F47411206A0143606A01
:101F3000014331600120386001F0A8FA04002868EC
:101F400080012BD401F0A2FA001B0328F7D3032051
:101F500025E00020DFF8AC12086001F097FA0400D9
:101F6000DFF874020068800118D501F08FFA001BB9
:101F70000328F5D3032012E0E069012801D10120F4
:101F80000DE0306810F48031226A914204D110F4DF
:101F90007010616A884201D0012000E00020BDE895
:101FA000F6812DE9F04104000E00002C01D1012042
:101FB00098E0DFF85452286810F00700B0420BD2C6
:101FC0002868C008C00030432860286810F0070067
:101FD000B04201D0012085E02078800716D5207816
:101FE000400704D57D48016851F4E0610160207824
:101FF000000704D57948016851F4605101607749C0
:102000000A6832F0F002A06802430A602078C00734
:1020100032D56068012805D16F480068800310D46C
:1020200001205FE06068022805D16B4800688001EC
:1020300007D4012056E068480068800701D40120D9
:1020400050E0664F3968890889006068014339604B
:1020500001F01CFA8046386810F00C006168B0EBA3
:10206000810F09D001F012FAB0EB080041F289317A
:102070008842F0D3032035E0286810F0070086423C
:102080000BD22868C008C00030432860286810F0D0
:102090000700B04201D0012024E02078400706D597
:1020A0004E490A6832F4E062E06802430A60207830
:1020B000000707D54948016831F46051226951EAA7
:1020C000C201016000F010F85049444A1268C2F39E
:1020D0000312895CC840434908604348006800F027
:1020E000E1F80020BDE8F08100B585B001A84849BD
:1020F000102200F0CFFC47480088ADF80000002017
:102100000020002000200020344A116811F00C004B
:10211000042802D0082802D014E03F4813E001A8A8
:10212000C1F38343C05CC90309D569461268C2F391
:1021300040428A5C38494843B0FBF2F001E037493D
:10214000484300E0264805B000BD264800687047B7
:1021500080B5FFF7FAFF3249204A1268C2F3022223
:10216000895CC84002BD80B5FFF7EFFF2C491B4AD0
:102170001268C2F3C222895CC84002BD0F2202600D
:10218000164A136813F003034360136813F0F00357
:102190008360136813F4E063C3601268D20812F41A
:1021A000E06202611848006810F00700086070479C
:1021B00081B00C490968C9084FF47A72B1FBF2F199
:1021C0004843009000BF0098411E00910028F9D1BB
:1021D00001B07047000000000010024004100240EF
:1021E00000127A0098000020940000202410024081
:1021F00080044242000042421C1002400070004035
:10220000201002406000424200200240004B0008C3
:10221000F04A0008F60F0008001BB70000093D0057
:10222000404B000803490A680348007882180A6096
:10223000704700BF385500209E00002062F30F2237
:1022400062F31F42401810F0030308D0C91A1FD3CD
:10225000DB0748BF00F8012D28BF20F8022D13002E
:1022600030B414461546103928BF20E93C00FAD88E
:10227000490728BF20E90C0048BF40F8042D890019
:1022800028BF20F8022D48BF00F8012D30BC704750
:10229000C91818BF00F8012DCB0728BF00F8012D81
:1022A0007047000018B587B0010000200020002210
:1022B0003720FEF7F5FE3720FEF703FF15480168CB
:1022C00051F020010160006810F02000009000989B
:1022D00001A902A8FFF752FFFFF73AFF40000E499D
:1022E000B0FBF1F0401E0D4C0D49216040F2E7318A
:1022F000E1606060002020610020A0602000FDF708
:1023000017FF002803D12000FDF749FF00E001205E
:1023100008B010BD1C10024040420F00F4520020D3
:102320000014004080B51148016851F001010160BE
:10233000006810F00100009000980D48016851F00D
:1023400080510160006810F08050009000980022D9
:102350000F217FF00100FEF7A3FE0649086830F068
:10236000E06050F00070086001BD00BF181002402E
:102370001C1002400400014038B50400002C01D1BB
:102380000120E0E094F83D00002805D1002084F809
:102390003C002000FFF76CF8242084F83D00206802
:1023A000006840084000216808602068006850F418
:1023B0000040216808602068006830F4004021680F
:1023C0000860FFF7C5FE0100DFF87C2160689042DD
:1023D00008D2DFF87801814201D2012000E000201C
:1023E000C0B207E0DFF86801814201D2012000E0BD
:1023F0000020C0B2012801D10120A4E0DFF854017F
:10240000B1FBF0F32068406880098001184325681B
:1024100068602068056A6068904201D25B1C07E032
:102420004FF4967043434FF47A70B3FBF0F35B1CA8
:10243000AD09AD012B43206803622068C369606861
:10244000904214D2481E62685200B0FBF2F0401C69
:102450000005000D042801D204213EE0491E6068F9
:102460004000B1FBF0F1491C0905090D35E0A068F9
:10247000002809D14A1E656803204543B2FBF5F0E8
:10248000401C0005000D0AE04A1E656819204543FE
:10249000B2FBF5F0401C0005000D50F48040000533
:1024A00001D1012119E0A068002809D1491E626804
:1024B00003204243B1FBF2F1491C0905090D0AE072
:1024C000491E626819204243B1FBF2F1491C09051B
:1024D000090D51F4804151F40041DFF87C000340C4
:1024E0000B432068C3612068016831F0C001E069D6
:1024F0000143206A01432068016020688168DFF899
:102500005C00014020690143E0680143206881606C
:102510002068C168090A0902A2696069024311437F
:102520002068C1602068006850F0010021680860E0
:1025300000202064202084F83D000020206300203B
:1025400084F83E00002032BDA186010080841E0078
:1025500000093D0040420F000030FFFF007CFFFFFC
:1025600010B50400002C01D1012033E0A06900283F
:10257000FFD194F83900002805D1002084F83800F4
:102580002000FEF7C7FF242084F839002068C068C7
:1025900030F400502168C860200000F000FA206884
:1025A000006930F49040216808612068406930F08B
:1025B0002A00216848612068C06850F400502168F2
:1025C000C8600020E063202084F83900202084F8CF
:1025D0003A00002010BD2DE9FC4106000D0014005A
:1025E0001F00002096F83900202857D1002D03D075
:1025F000200080B2002801D1012050E096F8380078
:10260000012801D102204AE0012086F8380000208C
:10261000F063212086F8390000F038FF8046B4844A
:10262000F484B068B0F5805F04D13069002801D12E
:10263000002401E02C000025002086F838000FE07F
:10264000207831684860641C07E0002CF8D12888A5
:10265000C005C00D31684860AD1CF08C401EF08490
:10266000F08C00280AD000974346002280213000D9
:1026700000F0B3F80028E8D0032010E000974346AC
:1026800000224021300000F0A8F8002801D00320EB
:1026900005E0202086F83900002000E00220BDE897
:1026A000F68138B50400206801682068C268206897
:1026B00043690020002011F00F00002807D18D068B
:1026C00005D5950603D5200000F017F984E0002811
:1026D00072D0D80702D412F4907F6DD011F00100AF
:1026E000C0B2002805D0D00503D5E06B50F0010042
:1026F000E063480708D513F00100C0B2002803D0FA
:10270000E06B50F00200E063880708D513F0010089
:10271000C0B2002803D0E06B50F00400E06308076B
:102720000AD5900604D413F00103DBB2002B03D0CA
:10273000E06B50F00800E063E06B00283BD08806B7
:1027400004D5900602D5200000F0D7F82068406933
:10275000800910F00100E16B090701D4002825D0A1
:10276000200000F071F82068406940061AD5206802
:10277000406930F0400021684861606B00280DD04E
:102780000FF2E500616B4863606B00F085FE002886
:1027900011D0606B616B496B88470CE0200000F042
:1027A00073FF08E0200000F06FFF04E0200000F05D
:1027B0006BFF0020E0630FE0080605D5100603D587
:1027C000200000F05BF807E0480605D5500603D569
:1027D000200000F084F8FFE731BD2DE9F04105004D
:1027E0000E0090461F00069C286800683040B042EA
:1027F00001D1012000E000204146C9B2884220D129
:1028000014F1010FF0D0002C04D000F03FFEC01BEB
:102810008442E9D22868C06830F4D0702968C86062
:10282000286840694008400029684861202085F8F0
:102830003900202085F83A00002085F83800032070
:1028400000E00020BDE8F0810168C96831F49071B2
:102850000268D1600168496949084900026851610C
:10286000202180F83A10704780B5406A0021C18568
:102870000021C18400F008FF01BD000090F839106C
:1028800021292AD18168B1F5805F0CD10169002925
:1028900009D1016A0988C905C90D02685160016A38
:1028A000891C016205E0016A4A1C0262097802681B
:1028B0005160C18C491EC18489B200290BD10168C5
:1028C000C96831F080010268D1600168C96851F0BF
:1028D00040010068C160002000E00220704780B520
:1028E0000168C96831F040010268D160202180F898
:1028F000391000F0CAFE002002BD80B590F83A10F1
:1029000022294AD18168B1F5805F0DD10169002982
:102910000AD10021816A02685268D205D20D0A806C
:10292000816A891C816217E0826A00218168B1F5A1
:10293000805F05D08168002906D10169002903D193
:1029400001684968117004E00168496811F07F016D
:102950001170816A491C8162C18D491EC18589B28D
:10296000002918D10168C96831F020010268D160DE
:102970000168C96831F480710268D16001684969F1
:102980004908490002685161202180F83A1000F09E
:102990007DFE002002E0002000E0022002BDF8B52C
:1029A00004002068016931F44051E0680143206867
:1029B0000161A16820690143606901432068C26820
:1029C0002A48024011432068C1602068416931F4FF
:1029D0004071A06901432068416120682449884210
:1029E00002D1FFF7C0FB01E0FFF7B2FB642119221F
:1029F00002FB00F36568AD00B3FBF5F36425B3FBA0
:102A0000F5F302FB00F56668B600B5FBF6F502FBD0
:102A100000F66768BF00B6FBF7F66427B6FBF7F66B
:102A200001FB16552D0132356426B5FBF6F515F080
:102A3000F00515EB031502FB00F36668B600B3FB67
:102A4000F6F3504362689200B0FBF2F06422B0FBF0
:102A5000F2F001FB1031080132306421B0FBF1F0DB
:102A600010F00F00451920688560F1BDF3E9FFFF04
:102A70000038014062B38B0708D0521E11F8013BA9
:102A800000F8013B00F024808B07F6D1830740F06B
:102A9000208000BF103A07D330B4B1E83810103AA4
:102AA000A0E83810F9D230BC530724BFB1E80810B1
:102AB000A0E8081044BF51F8043B40F8043BD2079B
:102AC00024BF31F8022B20F8022B44BF0B7803708F
:102AD0007047121F17D35B0009D151F8043B20F84F
:102AE000023B1B0C121F20F8023BF6D20BE051F800
:102AF000043B00F8013B1B0A20F8023B1B0C121F91
:102B000000F8013BF3D238BF121D521E24BF11F84A
:102B1000013B00F8013BF8D87047000070B5050094
:102B200014001A0000200800C0B2002807D00800D6
:102B3000C0B2002803D00800C0B2F82801DB02248C
:102B400036E05E4E31702800C0B2002820D1049BD0
:102B50005B485C4908605C485C4908605C485D49CA
:102B600008605D485D49086000205D4908605D4877
:102B70005D4908605D485E4908605E485E490860DE
:102B8000DBB22100C9B2307800F082FD040000E021
:102B900002242000C0B200280AD100F0DBFE002889
:102BA00001D1032404E05548057001205449087000
:102BB0002000C0B270BD38B50024514D28780128DE
:102BC00005D14048006880470020287000E00624B6
:102BD0002000C0B232BD7CB50020494800780028F2
:102BE00001D0062068E0684600F0C0FE012862D1EE
:102BF0009DF80000002805D002281AD003D303282E
:102C000059D058E057E0404C404A41492000334BEE
:102C10001B689847C0B200280AD120782749097854
:102C2000884202D02078002802D1022000F097FECE
:102C300041E0384C364D286800782070364E01202F
:102C40003070002205E013F832002178884208D065
:102C5000521C102A0CDA2B4B13F832000028F2D148
:102C600006E02A49286803EBC20252689047307098
:102C70002548007800281DD03078002812D023483D
:102C800000210180217851F080012A680388D15405
:102C90000188491C018031782A680388D154018851
:102CA000491C018019480288296804480078094BAA
:102CB0001B689847FFE7002076BD00008455002080
:102CC000D736000810550020F136000814550020B2
:102CD0006F3700080C5500200537000818550020F4
:102CE0001C550020CF370008205500205938000817
:102CF00024550020C738000828550020855500209D
:102D00009D0000200C0000208655002078550020F2
:102D10002C550020875500208855002078B585B0B7
:102D200005000B98002807D1502080F31188BFF3CD
:102D30004F8FBFF36F8FFEE70C9C002C07D1502004
:102D400080F31188BFF34F8FBFF36F8FFEE75426D8
:102D50000096009E542E07D0502080F31188BFF3B8
:102D60004F8FBFF36F8FFEE7002C13D0002811D0D8
:102D70002063022084F8510000200390029404A8EC
:102D800001900A980090280000F042F8200000F01E
:102D900094F801E000200490049806B070BD2DE97D
:102DA000F84384B00700884616009946300080B288
:102DB000800000F0EDFD0500002D0BD0542000F048
:102DC000E7FD0400002C01D0256304E0280000F09A
:102DD00069FE00E00024002C15D0002084F851008A
:102DE0000020039002940D9801900C9800904B469F
:102DF000B6B232004146380000F00AF8200000F078
:102E00005CF8012001E05FF0FF3005B0BDE8F08321
:102E10002DE9F84305001E000A9F386B00EB820085
:102E2000B0F104085FEAD8085FEAC80818F00700A4
:102E3000002807D0502080F31188BFF34F8FBFF3D5
:102E40006F8FFEE7002200E0521C102A07D2885C38
:102E500007EB020383F83400885C0028F4D1DDF826
:102E60002090002087F84300B9F1070F01D35FF0ED
:102E70000609099CC7F82C90C7F844900020B86454
:102E8000381D00F0C4FE17F1180000F0C0FE3F61CD
:102E9000D9F10709C7F818907F620020F864002074
:102EA00087F8500032002900404600F0EDFE3860FF
:102EB000002C00D02760BDE8F18338B5040000F095
:102EC0004FFFDFF8C0130868401C0860DFF8B853F4
:102ED0002868002806D12C60086801280DD100F070
:102EE000EDF90AE0DFF8C8030068002805D1E06AC0
:102EF0002968C96A884200D32C60DFF8B8030168EA
:102F0000491C0160DFF8B0130A680123E06A8340BE
:102F10001A430A60211DDFF8F423E36A14204343B7
:102F200002EB030000F076FE00F034FFDFF88003D0
:102F3000006800280DD02868C06AE16A884208D27B
:102F40005FF08050DFF878140860BFF34F8FBFF355
:102F50006F8F31BD10B504000020002C14D0DFF8B5
:102F60005C040068002807D0502080F31188BFF36C
:102F70004F8FBFF36F8FFEE700F059F8002120005C
:102F800000F038FA00F059F8002808D15FF08050BE
:102F9000DFF82C140860BFF34F8FBFF36F8F10BDA5
:102FA00010B586B0002004900020039005AA03A964
:102FB00004A8FEF77DFBDFF8144404980290039800
:102FC0000190002000900023059ADFF804140FF20E
:102FD000BD20FFF7A3FE20602068002801D001205B
:102FE00000E00020012817D1502080F31188BFF3A2
:102FF0004F8FBFF36F8F5FF0FF30DFF8DC13086097
:103000000120DFF8AC1208600020DFF8D013086060
:1030100000F05FFE06B010BD10F1010FFAD1502094
:1030200080F31188BFF34F8FBFF36F8FFEE7DFF898
:103030008C030168491C0160704770B500240025AD
:10304000DFF878633068002807D1502080F31188BA
:10305000BFF34F8FBFF36F8FFEE700F081FE306844
:10306000401E30603068002855D1DFF81802006833
:10307000002826D14FE0C868C46814F1180000F099
:10308000F0FD201D00F0EDFDDFF82C120A68012391
:10309000E06A83401A430A60211DDFF87022E36A68
:1030A0001420434302EB030000F0B4FDE06ADFF8B4
:1030B000D8110968C96A884203D30120DFF83013A8
:1030C0000860DFF8101308680028D4D1002C01D064
:1030D00000F05FF9DFF808633468002C0CD000F0D2
:1030E0001EF8002803D00120DFF804130860641ED6
:1030F000002CF4D100203060DFF8F40200680028D2
:1031000009D001255FF08050DFF8B4120860BFF3EA
:103110004F8FBFF36F8F00F03DFE280070BDF8B5F4
:103120000025DFF898020068002867D1DFF8AC02BC
:103130000468641C0460002C1AD1DFF8A812086827
:103140000068002807D0502080F31188BFF34F8F0C
:10315000BFF36F8FFEE70868DFF88C2213680B60FF
:103160001060DFF888020168491C016000F011F965
:10317000DFF864623068844230D322E0381D00F00A
:1031800070FDB86A002803D017F1180000F069FD3F
:10319000DFF824110A680123F86A83401A430A60A1
:1031A000391DDFF86821FB6A1420434302EB03005A
:1031B00000F030FDF86A34490968C96A884200D3D2
:1031C0000125DFF8201208680068002812D008687E
:1031D000C068C76878688442D0D230602A480068E6
:1031E000DFF82811C26A14204243885802280AD303
:1031F000012508E05FF0FF303060EFE7DFF8E00125
:103200000168491C0160DFF8E8010068002800D06F
:1032100001252800F2BDDFF8A4010068002804D0D1
:103220000120DFF8CC1108602AE00020DFF8C0118F
:10323000086021480068B0FA80F1D1F11F01142222
:10324000324B02FB01F01858002807D1502080F3C0
:103250001188BFF34F8FBFF36F8FFEE7514303EB2E
:103260000100416849684160416810F108029142DB
:1032700002D14168496841604068C06802490860FD
:10328000704700004C5500203C55002080B500F0F0
:103290003FF81E4800680228F9D35FF08050DFF83D
:1032A00028110860BFF34F8FBFF36F8FEFE7000067
:1032B00058550020685500205455002038B500248A
:1032C00007E01248142101FB04F1084400F090FCCF
:1032D000641C072CF5D3DFF89841200000F088FC2F
:1032E000DFF89051280000F083FCDFF8E80000F0E0
:1032F0007FFC154800F07CFC324800F079FCDFF8D8
:10330000E4000460DFF87001056031BDC0510020A9
:1033100038B514E000F024FD0B48C068C468201DD7
:1033200000F09FFCDFF840010168491E0160286839
:10333000401E286000F02EFD200000F009F8034D2B
:1033400028680028E6D131BDB0540020485500203F
:1033500010B5040094F85100002806D1206B00F04D
:10336000A1FB200000F09EFB10BD94F85100012845
:1033700003D1200000F096FBF6E794F851000228F4
:10338000F2D0502080F31188BFF34F8FBFF36F8FBF
:10339000FEE7DFF8501008680068002805D15FF0EC
:1033A000FF30DFF83410086006E00868C068C068C5
:1033B0004068DFF824100860704700007455002052
:1033C00004ED00E0C454002004ED00E0705500203E
:1033D000484B00089C5400206C550020505500209C
:1033E0005C550020405500204455002064550020C5
:1033F00060550020F8B505000C001A4806681B4F00
:103400003868001D00F02DFC002807D138681B49E2
:103410000A680123C06A83409A430A6015F1010FCC
:1034200007D1002C05D03868011D154800F0F2FBCB
:1034300016E0AD1938684560B54206D23868011DFE
:103440000D48006800F0F2FB0AE03868011D0D48E5
:10345000006800F0EBFB0C4801688D4200D205606B
:10346000F1BD0000505500204C5500203C55002077
:1034700074540020885400204455002054550020E6
:10348000C4540020405500206C55002001480068BD
:10349000704700BF3855002010B5002490F8211067
:1034A000022903D0042181630124CEE00168096868
:1034B00031F00E010268116001680968490849008D
:1034C000026811600168DFF88C21914259D30168CC
:1034D000DFF88421914201D101214EE00168DFF83B
:1034E0007C21914201D1102147E00168DFF8702171
:1034F000914202D14FF480713FE00168DFF864210E
:10350000914202D14FF4805137E00168DFF8582131
:10351000914202D15FF480312FE00168DFF84C2145
:10352000914202D15FF4801127E00168DFF8402169
:10353000914202D15FF080711FE00168DFF8102135
:10354000914201D1012118E00168DFF82821914260
:1035500001D1102111E00168DFF81C21914202D154
:103560004FF4807109E00168DFF81021914202D127
:103570004FF4805101E05FF48031DFF804211160E5
:1035800058E00168DFF8D020914201D101214EE0DE
:103590000168DFF8C820914201D1102147E001689D
:1035A000DFF8BC20914202D14FF480713FE0016806
:1035B000DFF8B020914202D14FF4805137E001682A
:1035C000DFF8A420914202D15FF480312FE001683E
:1035D000DFF89820914202D15FF4801127E0016862
:1035E000DFF88C20914202D15FF080711FE001680A
:1035F000DFF85C20914201D1012118E00168DFF879
:103600007420914201D1102111E00168DFF8682097
:10361000914202D14FF4807109E00168DFF85C202B
:10362000914202D14FF4805101E05FF48031DFF824
:1036300054201160012180F82110002180F8201011
:10364000416B002901D0416B88472000C0B210BDFA
:103650000804024081000240080002401C000240B1
:103660003000024044000240580002406C0002401A
:10367000800002401C040240300402404404024026
:103680000404024004000240704770477047000085
:1036900038B508001400002572B6DBB208222100FC
:1036A000C0B200F000FC012801D003250FE044F671
:1036B0000130844201D3232003E09A486100B0FB2B
:1036C000F1F080B200F03EFC012800D0032562B684
:1036D0002800C0B232BD80B572B600209249087091
:1036E0000021012000F0A6FB00F053FC62B601BDF2
:1036F00080B572B60021002000F09CFB00F052FC67
:1037000062B601BD2DE9F84304000D00160000204B
:10371000002772B6DFF81482B8F80000B0F5807F99
:1037200006DBA1228249834800F04CFCAFF3008005
:10373000B8F80000042814DBDFF8FC91B8F800109A
:10374000484600F051FC00280BD199F80000207089
:10375000B8F80000C01E308019F101002860012077
:1037600000E0052762B63800C0B2BDE8F28338B584
:10377000002472B66C4B1B78012B23D16F4B491E72
:1037800019606F4D01212980196808702888121866
:103790002A802988186800F027FC29884A1C2A807A
:1037A000654A89B2505429884B1C2B8080B2000A8C
:1037B00089B250540120634908700121002000F0B3
:1037C00039FB00E0052462B62000C0B232BD1CB552
:1037D00000245C480078002806D0EB2254495A485F
:1037E00000F0F0FBAFF30080684600F09DFB4E4810
:1037F0000178002905D0022919D008D3032903D064
:1038000027E000F0C6FB24E000F0C3FB21E04749BD
:1038100000220A800A88531C0B809DF80010464B3A
:1038200092B299540221017000F0B3FB11E03F49BC
:103830000A88B2F5807F08DA0888421C0A809DF861
:1038400000103D4A80B2115401E00321017000F0E4
:10385000A0FB2000C0B216BD70B50024324800782D
:10386000012807D04FF493723149384800F0AAFB81
:10387000AFF30080334E3078002802D0012805D005
:103880001EE00021012000F0D5FA19E02C4D288817
:1038900000280BD0294E3068007800F036FB3068E5
:1038A000401C30602888401E288009E0032000F07A
:1038B00056F804000021012000F0BCFA002030700E
:1038C0002000C0B270BD38B50024174D28780028FC
:1038D00004D0022807D003280AD00AE0002000F014
:1038E0003EF8040016E0012000F039F8040011E071
:1038F00010E0287800280DD0287802280AD02878EF
:10390000032807D04FF4B0720949114800F05AFB60
:10391000AFF3008000F046FB012028702000C0B209
:1039200032BD0000A07F17008A5500207E55002080
:1039300040490008D84A0008C050002030550020F7
:103940007C55002089550020A04A0008BC4A000888
:103950008448000800200C490870012070470121AC
:10396000094A1170094908700120704702000020BF
:10397000054B1978002905D0044800781070002004
:1039800018700120C0B270478D5500208C55002062
:103990002DE9F84304000025FFF749FBDFF83492D6
:1039A000D9F80000002801D100F0B5F88A4F386836
:1039B000044266D1002C15D088480068041914F020
:1039C000070F0FD014F1080014F00704041B14F0C3
:1039D000070F07D0502080F31188BFF34F8FBFF33C
:1039E0006F8FFEE7002C4CD0DFF8F481D8F8000090
:1039F000A04246D37B480100066801E031003668EA
:103A00007068A04202D230680028F7D1D9F80000CF
:103A1000864236D071480A68036802EB03053268B3
:103A20000A60006840007168091B884214D206EBE6
:103A3000040111F00700002807D0502080F31188FE
:103A4000BFF34F8FBFF36F8FFEE77068001B4860B6
:103A50007460080000F08EF8D8F800107068091A39
:103A6000C8F800106048D8F800100268914202D2ED
:103A7000D8F8001001607168386801437160002057
:103A80003060FFF7DAFA15F00700002807D0502061
:103A900080F31188BFF34F8FBFF36F8FFEE72800CD
:103AA000BDE8F28310B50100002833D04B48006810
:103AB000404201EB0004484960680A68104207D19F
:103AC000502080F31188BFF34F8FBFF36F8FFEE755
:103AD0002068002807D0502080F31188BFF34F8F53
:103AE000BFF36F8FFEE760680A68104212D020684B
:103AF00000280FD16268086882436260FFF797FA76
:103B000037490A68606882180A60200000F032F8BD
:103B1000FFF793FA10BD10B444F620623348010059
:103B200011F0070F04D0C91DC908C900521A821824
:103B30002C48016000234360521828480068121A7C
:103B4000D208D20023480260002304686360002387
:103B500004682360521A4A60006808604868224A74
:103B6000106048681E4908605FF000401A4908600C
:103B700010BC704710B41B4A00E012681168814203
:103B8000FBD3110053681944814204D15168406845
:103B900041185160100001004368194413689942AC
:103BA00010D10C4913680C68A34208D0436811680F
:103BB0004968CB18436011680968016004E009682E
:103BC000016001E011680160824200D0106010BC09
:103BD00070470000FC54002008550020504B00089E
:103BE00000550020E854002004550020A0000020CB
:103BF00010F1080141605FF0FF31816010F10801B0
:103C0000C16010F1080101610021016070470021CD
:103C10000161704742684A6093688B60936859609D
:103C2000916008610168491C0160704710B40B681D
:103C300013F1010F01D1026907E010F1080200E061
:103C4000526854682468A342FAD253684B604B68A8
:103C500099608A60516008610168491C016010BC6C
:103C600070470169826843689A60426883685A6055
:103C70004A68824201D182684A6000220261086873
:103C8000401E086008687047001F5FF08073036083
:103C9000001F490849000160001F0FF20D0101607B
:103CA00014380260203870474F48006810F1010F47
:103CB00007D0502080F31188BFF34F8FBFF36F8F71
:103CC000FEE7502080F31188BFF34F8FBFF36F8F53
:103CD000FEE7E0B5454801780191FF2101700178C8
:103CE0008DF800109DF8001011F05001404A11703D
:103CF000404907220A6007E00A68521E0A609DF8E0
:103D0000002052008DF800209DF800201206F3D408
:103D10000A68D2F10702042A07D0502080F31188E4
:103D2000BFF34F8FBFF36F8FFEE70A6812020A607E
:103D30000A6812F4E0620A60019901702E48016875
:103D400051F470010160016851F07041016000F0B0
:103D500057F800202449086000F099F900200EBDB2
:103D6000502080F31188BFF34F8FBFF36F8F1E4930
:103D70000A68521C0A60096801290AD11F490968AA
:103D8000090606D080F31188BFF34F8FBFF36F8F02
:103D9000FEE7704714490868002807D1502080F3D7
:103DA0001188BFF34F8FBFF36F8FFEE70868401E87
:103DB00008600868002802D1002080F3118870474D
:103DC00080B5502080F31188BFF34F8FBFF36F8F02
:103DD000FFF7A5F9002803D05FF08050074908607D
:103DE000002080F3118801BD8C00002000E400E079
:103DF0008B5500203455002020ED00E004ED00E05C
:103E00000848002101600021074A1160074909683C
:103E10004FF47A72B1FBF2F1491E054A1160072195
:103E20000160704710E000E018E000E0980000201A
:103E300014E000E010B50C00C0B200280ED0002243
:103E400002213D48FDF73BFA3C4801680968C96812
:103E500051F0200100680068C16008E0374801683F
:103E60000968C96831F0200100680068C160E4B2E7
:103E7000002C0ED0012202212F48FDF720FA2F48F6
:103E800001680968C96851F0800100680068C16074
:103E900008E02A4801680968C96831F080010068B3
:103EA0000068C16010BD10B52448254A046822602E
:103EB0000268516000210268D160DBB2002B03D0A0
:103EC000022B11D007D317E0002102689160002176
:103ED0000268116110E04FF48051026891604FF464
:103EE000C0610268116107E04FF48051026891607F
:103EF0004FF48061026811610068FEF731FB002811
:103F000001D0FCF7F5FF012010BD01B50A23012205
:103F100069460A480068FEF75EFB002801D10120CF
:103F200000E00020C0B202BD044909680968496880
:103F3000017001207047000000080140900000203F
:103F4000004400403EB50500194C1A482060FEF7B9
:103F5000FFF81949B0FBF1F0401E60600020A0603E
:103F60003120E060154805802000FCF7E1F80028CA
:103F700001D000200CE02020009000200190694634
:103F80002000FCF7C3FF002801D0002000E0012042
:103F90003EBD80B509480088094908800448FCF7FF
:103FA000FEF801BD80B50248FCF73AF901BD0000FA
:103FB000845300200010004040420F008055002034
:103FC0008255002000B583B00091019202906A46AC
:103FD00004491820ABBE002801D100F069F803B0F5
:103FE00000BD00BF1010020010B40300FF20040049
:103FF0000AE0C0B21A78504002005B1C0848805C9E
:1040000044402000074CA45C0A00511E92B2002AD2
:10401000EFD1E4B2C0B250EA042080B210BC7047C5
:10402000A0440008A0450008EFF30980BFF36F8F9C
:104030001D4B1A6820E9F00F106008B54FF05000D2
:1040400080F31188BFF34F8FBFF36F8FFFF7E3F853
:104050004FF0000080F31188BDE808401968086837
:10406000B0E8F00F80F30988BFF36F8F70470E4BF5
:1040700019680868B0E8F00F80F30988BFF36F8F04
:104080004FF0000080F311884EF00D0E7047074886
:104090000068006880F3088862B661B6BFF34F8F8E
:1040A000BFF36F8F00DF00003C55002008ED00E0FB
:1040B000012000F001B8000080B5AFF30080024A93
:1040C00011001820ABBEFBE72600020010B500244B
:1040D0000988052913D14178090282781143491CC6
:1040E0000123012289B2C01CFDF76CFC0100C9B29A
:1040F000002905D0C0B200F0F5F8040000E0032468
:104100002000C0B210BD70B50D0000262988062918
:104110002DDB4478240281780C43641CC27812029F
:1041200001790A434379110089B200291DD0110099
:1041300089B2792919DA110089B24900DBB2C9B212
:104140008B4212D1012392B2210089B2801DFDF76A
:1041500039FC0100C9B2002904D0C0B200F0C2F895
:10416000060005E00520288002E0032600E0032683
:104170003000C0B270BDF8B50C00002521880529BB
:1041800037D147783F0281780F437F1CC1780902FD
:104190000679310089B2002929D0310089B27E29FF
:1041A00025DA0021218003210170401C2188491C4F
:1041B00021803100C9B249000170401C2188491C8E
:1041C00021800023320092B2390089B2FDF7FAFB58
:1041D0000100C9B2002904D0C0B200F083F8050084
:1041E00008E02088B6B210EB4600208002E00325EC
:1041F00000E003252800C0B2F2BD2DE9F041804661
:104200000D00002428880A2868DB98F801703F0216
:1042100098F8020007437F1C98F80360360298F86C
:104220000400064398F80510090298F806000143B7
:10423000491C98F80720120298F80800024398F8E1
:104240000930300080B2002847D0300080B27E288C
:1042500043DA100080B200283FD0100080B27A28E4
:104260003BDA100080B24000DBB2984235D1012326
:1042700092B289B218F10A00FDF7A4FB0100C9B29D
:10428000002921D100202880172088F8000018F18B
:1042900001002988491C29803100C9B249000170F8
:1042A000401C2988491C29800023320092B2390021
:1042B00089B2FDF787FB0100C9B2002904D1298822
:1042C000B6B211EB460129800100C9B2002905D020
:1042D000C0B200F007F8040000E003242000C0B2E0
:1042E000BDE8F081C0B2002804D0012804D007281E
:1042F00004D005E0002004E0022002E0062000E0F7
:104300000420C0B27047F8B50D00002629880529A1
:1043100044D14478240281780C43641CC278120290
:1043200001790A43110089B2002935D0110089B200
:10433000B1F5FA6F30DA0021298001210170401CAB
:104340002988491C2980110011F0070F06D011009F
:1043500089B2082391FBF3F77F1C04E0110089B2B6
:10436000082391FBF3F70770401C2988491C29801A
:10437000002392B2210089B2FDF7DCFB0100C9B233
:10438000002904D0C0B2FFF7ADFF060007E028887F
:10439000FFB23F182F8002E0032600E00326300022
:1043A000C0B2F2BD38B50024098805292CD1457862
:1043B0002D0281780D436D1C0179002922D1C1782D
:1043C000FF2902D0C17800291CD100218DF80110ED
:1043D000C078FF2803D101208DF8000002E0002002
:1043E0008DF8000001230122290089B26846FDF7FB
:1043F000A1FB0100C9B2002907D0C0B2FFF772FFCC
:10440000040002E0032400E003242000C0B232BD17
:10441000F8B50D000026298806293CDB44782402E3
:1044200081780C43641CC278120201790A434379F3
:10443000110011F0070F06D0110089B2082791FB77
:10444000F7F77F1C04E0110089B2082791FBF7F70A
:10445000110089B200291CD0110089B240F2B17C50
:10446000614516DAFFB2DBB29F4212D1012392B24C
:10447000210089B2801DFDF75DFB0100C9B2002952
:1044800004D0C0B2FFF72EFF060005E0052028800B
:1044900002E0032600E003263000C0B2F2BD0000B7
:1044A00000C1814001C0804101C0804100C1814004
:1044B00001C0804100C1814000C1814001C08041F4
:1044C00001C0804100C1814000C1814001C08041E4
:1044D00000C1814001C0804101C0804100C18140D4
:1044E00001C0804100C1814000C1814001C08041C4
:1044F00000C1814001C0804101C0804100C18140B4
:1045000000C1814001C0804101C0804100C18140A3
:1045100001C0804100C1814000C1814001C0804193
:1045200001C0804100C1814000C1814001C0804183
:1045300000C1814001C0804101C0804100C1814073
:1045400000C1814001C0804101C0804100C1814063
:1045500001C0804100C1814000C1814001C0804153
:1045600000C1814001C0804101C0804100C1814043
:1045700001C0804100C1814000C1814001C0804133
:1045800001C0804100C1814000C1814001C0804123
:1045900000C1814001C0804101C0804100C1814013
:1045A00000C0C101C30302C2C60607C705C5C404D3
:1045B000CC0C0DCD0FCFCE0E0ACACB0BC90908C843
:1045C000D81819D91BDBDA1A1EDEDF1FDD1D1CDC33
:1045D00014D4D515D71716D6D21213D311D1D010A3
:1045E000F03031F133F3F23236F6F737F53534F493
:1045F0003CFCFD3DFF3F3EFEFA3A3BFB39F9F83803
:1046000028E8E929EB2B2AEAEE2E2FEF2DEDEC2CF2
:10461000E42425E527E7E62622E2E323E12120E062
:10462000A06061A163A3A26266A6A767A56564A452
:104630006CACAD6DAF6F6EAEAA6A6BAB69A9A868C2
:1046400078B8B979BB7B7ABABE7E7FBF7DBDBC7CB2
:10465000B47475B577B7B67672B2B373B17170B022
:104660005090915193535292965657975595945412
:104670009C5C5D9D5F9F9E5E5A9A9B5B9959589882
:10468000884849894B8B8A4A4E8E8F4F8D4D4C8C72
:1046900044848545874746868242438341818040E2
:1046A0007047FEE7FEE7FEE7FEE770471CB5264CC5
:1046B00020680068400910F001002168C96811F005
:1046C000200100280ED000290CD020480068804727
:1046D00000200090206800680090206840680090EA
:1046E00000980EE020680068000607D52068C068C2
:1046F000000603D516480068804702E02000FDF759
:10470000D0FF13BD10B5134C20680069C00711D548
:104710002068C068C0070DD57FF0010021680861DE
:104720000D480188491E01800088002802D10B48ED
:10473000006880472000FBF757FE10BD80B5084891
:10474000FBF752FE01BD000014540020205500204C
:104750002455002084530020825500202855002035
:10476000F452002070B50C0000252188052943D1A2
:1047700043781B0281780B435B1CC27812020179DB
:104780000A43110089B2002934D0110089B2B1F571
:10479000FA6F2FDA0021218002210170401C21884C
:1047A000491C2180110011F0070F06D0110089B2B9
:1047B000082691FBF6F6761C04E0110089B2082663
:1047C00091FBF6F60670401C2188491C218092B2AC
:1047D000190089B2FDF7B0F90100C9B2002904D06F
:1047E000C0B2FFF77FFD050007E02088F6B236185B
:1047F000268002E0032500E003252800C0B270BD3A
:1048000070B50C0000252188052937D143781B029B
:1048100081780B435B1CC678360201790E43310068
:1048200089B2002928D0310089B27D2924DA0021FB
:10483000218004210170401C2188491C2180310005
:10484000C9B249000170401C2188491C21803200F6
:1048500092B2190089B2FDF7B2F80100C9B200297D
:1048600004D0C0B2FFF73EFD050008E02088B6B2D4
:1048700010EB4600208002E0032500E0032528001D
:10488000C0B270BD28206552637653746174652090
:104890003D3D2053544154455F52585F494E495461
:1048A0002029207C7C202820655263765374617413
:1048B00065203D3D2053544154455F52585F52435B
:1048C000562029207C7C2028206552637653746111
:1048D0007465203D3D2053544154455F52585F4517
:1048E00052524F52202900000F49086850F0010031
:1048F00008600E4A13680E48034013600B680D48A9
:1049000003400B60086830F480200860106830F4C1
:10491000FE0010605FF41F00074908605FF0006050
:104920000649086070470000001002400410024071
:104930000000FFF8FFFFF6FE0810024008ED00E05F
:10494000443A5C526164696F5C4A6F62655C4952CB
:104950005F436F6E74726F6C6C65725C4952436F2B
:104960006E74726F6C6C5F50726F6772616D6D5CAC
:104970004D6964646C6577617265735C6D6F6462C8
:1049800075735C7274755C6D627274752E63000071
:1049900030B5016884684218416802EB5103C907C9
:1049A00003D54C4401E0491C05D19A420AD012F9C2
:1049B000011B12F8015B002904F8015BF3D4491EC6
:1049C000F7D5F2E70C3030BD10B5074979441831FE
:1049D000064C7C44163404E00A68081D11448847DC
:1049E0000146A142F8D110BD2C0000004800000093
:1049F00070B50C00054D2A880549461C3000FEF7AD
:104A000039F82888401C2080002070BD7A5500208D
:104A100054540020E3BFFFFFF0540000A00000202A
:104A2000000000006DFFFFFF10020000E00000002A
:104A30000000002000F00DF8002801D0FFF7C4FFAF
:104A4000AFF300800020AFF30080FCF7D3F900F053
:104A500002F80120704700F001B800000746384610
:104A6000FFF72AFBFBE70000204B0008FF160008B9
:104A70000000000000000000000100000000000035
:104A800000000000384B00089119000800000000E9
:104A90000000000000010000000000000000000015
:104AA00065536E645374617465203D3D20535441D9
:104AB00054455F54585F49444C4500006552637645
:104AC0005374617465203D3D2053544154455F52F9
:104AD000585F49444C4500007573526376427566D1
:104AE000666572506F73203C20323536000000003E
:104AF00002030405060708090A0B0C0D0E0F10101F
:104B0000000000000000000001020304060708097D
:104B10000148804701480047E94800082D4B00083C
:104B20004D61696E5461736B00000000AFF300804B
:104B3000AFF30080FFF77EFF4D6F64627573000076
:104B4000000000000102030449444C45000000003D
:104B500008000000FFF7FEBFFFF7FEBFFFF7FEBF34
:104B6000FFF7FEBFFFF7FEBFFFF7FEBFFFF7FEBF79
:104B7000FFF7FEBFFFF7FEBFFFF7FEBFFFF7FEBF69
:104B8000FFF7FEBFFFF7FEBFFFF7FEBFFFF7FEBF59
:104B9000FFF7FEBFFFF7FEBFFFF7FEBFFFF7FEBF49
:104BA000FFF7FEBFFFF7FEBFFFF7FEBFFFF7FEBF39
:104BB000FFF7FEBFFFF7FEBFFFF7FEBFFFF7FEBF29
:104BC000FFF7FEBFFFF7FEBFFFF7FEBFFFF7FEBF19
:104BD000FFF7FEBFFFF7FEBFFFF7FEBFFFF7FEBF09
:104BE000FFF7FEBFFFF7FEBFFFF7FEBFFFF7FEBFF9
:104BF000FFF7FEBFFFF7FEBFFFF7FEBFFFF7FEBFE9
:104C0000FFF7FEBFFFF7FEBFFFF7FEBFFFF7FEBFD8
:104C1000FFF7FEBFFFF7FEBFFFF7FEBFFFF7FEBFC8
:104C2000FFF7FEBFFFF7FEBFFFF7FEBFFFF7FEBFB8
:104C3000FFF7FEBFFFF7FEBF016009FD0003C201E1
:104C4000000EFD000011FD0004F149000804FD0004
:104C5000040148000803FD00047741000810FD002E
:104C6000040741000806FD0004CD40000817FD00C0
:104C700004FB41000801FD00040743000805FD0096
:104C800004A54300080FFD00041144000802FD00C4
:104C90000365470008D000FCAA041454002010FC4F
:084CA000000524F400FF0201ED
:0400000508004B2D77
:00000001FF
